:020000040800F2
:10000000C005002001010008090100080B010008DB
:100010000D0100080F010008110100080000000098
:1000200000000000000000000000000013010008B4
:1000300015010008000000001701000875230008E2
:100040001B0100081B0100081B0100081B01000820
:100050001B0100081B0100081B0100081B01000810
:100060001B0100081B0100081B0100081B01000800
:100070001B0100081B0100081B0100081B010008F0
:100080001B0100081B0100081B0100081B010008E0
:100090001B0100081B0100081B0100081B010008D0
:1000A0001B0100081B0100081B0100081B010008C0
:1000B0001B0100081B0100081B0100081B010008B0
:1000C0001B0100081B0100081B0100081B010008A0
:1000D0001B0100081B0100081B0100081B01000890
:1000E000590800081B0100081B010008DFF80CD0AC
:1000F00000F04EFB00480047CD330008C00500204B
:100100000648804706480047FEE7FEE7FEE7FEE7B1
:10011000FEE7FEE7FEE7FEE7FEE7FEE7ED23000869
:10012000ED000008202A04DB203A21FA02F0002129
:10013000704721FA02F3D040C2F1200291400843F7
:10014000194670472DE9FE4F804681EA0300C00F33
:100150000C46009021F0004123F00045B8EB02006E
:10016000A94105D24046214690461C460B46024610
:1001700023F00040104347D0270DC7F30A00C3F314
:100180000A510290401A019040286BDAC3F3130021
:1001900040F4801B0098924620B10023D2EB030A62
:1001A00063EB0B0B01985946C0F14002504600F03A
:1001B00024FA06460D4650465946019A00F02CFA9C
:1001C00010EB08006141002487EA115284EAE773CA
:1001D0001A4340D0009A62B3019A012A4FEA0752AB
:1001E00015DC001B61EB02014FF0004202EA0752EE
:1001F000CDE90042001C41F5801132462B4600F04B
:1002000061FA03B0BDE8F08F40462146F9E7001BD4
:1002100061EB0201001C41F5801300185B412018BE
:10022000A2F5001747EB030140EAD570B6196D41FE
:1002300011E06D084FEA360645EAC0754FEA0752ED
:10024000001B61EB0201001C41F5801149084FEAD7
:1002500030000019514132462B4603B0BDE8F04F43
:1002600000F023BA0098012240000023D0EB0202E4
:1002700063EBE073009821464FEAE074B8EB0000AE
:1002800061EB0401E9E783F000435BE781F00041A3
:1002900058E72DE9FE4F81EA030404F0004421F001
:1002A000004100944FF0000B23F0004350EA01049A
:1002B0005ED052EA03045BD0C3F30A54C1F30A557B
:1002C0002C44A4F2F3340194A0FB0254C1F31301B3
:1002D00041F48011C3F3130343F4801301FB024480
:1002E00000FB034E840A970A44EA815447EA835785
:1002F000A4FB076802958D0A05FB07854FEA932C3E
:1003000004FB0C542705029D4FEA065847EA1637AE
:10031000B5EB08056EEB070C870E920E47EA8117C6
:1003200042EA8312A7FB0201B6EB0B0164EB000467
:100330002B0D43EA0C335E1844EB1C50DA46514651
:10034000E7FB0201C5F313044FEA0B3343EA1453EE
:100350004FEA0432019C43EA0603A4F10C04029420
:10036000009CCDE900B400F0ADF903B0BDE8F08F1A
:1003700000200146F9E72DE9F04D81EA030404F07D
:10038000004B21F0004514464FF0000A23F00041D5
:1003900050EA050220D054EA01021DD0C5F30A57E5
:1003A0000246C5F31303C1F31300C1F30A5640F428
:1003B000801543F48013A7EB0608101BD64608F2FD
:1003C000FD3873EB050002D308F1010801E0921833
:1003D0005B41B8F1000F03DA00200146BDE8F08D63
:1003E00000204FF48011064684460EE0171B73EB85
:1003F000050705D3121B63EB050306434CEA010C0A
:1004000049084FEA300092185B4150EA0107EDD1EC
:1004100052EA030012D082EA040083EA050108438D
:1004200005D0101BAB4106D20122002306E00022BA
:100430004FF0004302E06FF0010253101AEB060088
:100440004CEB085110EB0A0041EB0B01BDE8F04DFD
:1004500000F02BB970B521F0004303430CD0C1F379
:100460000A550024D5EB040564EB0403D617AD1A36
:10047000B34102DB0020014670BD201841EB025160
:1004800070BD0EB5C10F80EAE0700844CA070021B4
:1004900040F233438DE80E000A460B4600F012F995
:1004A00003B000BD0EB540F2334102910021CDE909
:1004B00000110A460B4600F005F903B000BD00F03C
:1004C000004230F000400AD0C10D01F56071C0F368
:1004D000160042EA0151C20840071143704700204C
:1004E0000146704730B5002904DB4FF0004440421C
:1004F00064EB0101002B04DB4FF00044524264EB3B
:1005000003038B4208BF824230BD000030B5002992
:1005100004DB4FF00044404264EB0101002B04DB9C
:100520004FF00044524264EB0303994208BF9042EB
:1005300030BD000001F0004330B421F0004150EA2A
:10054000010206D00A0DA2F56072C1F31301002A60
:1005500002DC30BC00207047440F44EAC104C100F3
:10056000E01830BC00EBC25000F068B830B50B4664
:10057000014600202022012409E021FA02F59D42D3
:1005800005D303FA02F5491B04FA02F52844151EA7
:10059000A2F10102F1DC30BD2DE9F05F054600203B
:1005A00092469B4688460646814640241BE02846E4
:1005B000414647462246FFF7B5FD53465A46C01A04
:1005C000914110D311461846224600F016F82D1A14
:1005D00067EB01084F4622460120002100F00DF88C
:1005E00017EB00094E41201EA4F10104DFDC484650
:1005F00031462A464346BDE8F09F202A04DB203AD4
:1006000000FA02F1002070479140C2F1200320FA65
:1006100003F3194390407047202A06DBCB17203A9A
:1006200041FA02F043EAE07306E041FA02F3D040F7
:10063000C2F1200291400843194670470029A8BF23
:100640007047401C490008BF20F00100704710B4FB
:10065000B0FA80FC00FA0CF050EA010404BF10BCB0
:10066000704749B1CCF1200421FA04F411FA0CF1DD
:1006700018BF012121430843A3EB0C01CB1D4FEA16
:1006800000614FEA102042BF002010BC704700EB11
:10069000C35010440029A4BF10BC7047401C49003F
:1006A00008BF20F0010010BC704710B5002B08DA1D
:1006B000401C41F1000192185B411A4301D120F026
:1006C000010010BD2DE9F04D92469B4611B1B1FAE3
:1006D00081F202E0B0FA80F220329046FFF78DFFFF
:1006E00004460F4640EA0A0041EA0B0153465A46C7
:1006F000084313D0114653EA010019D0C8F1400253
:100700005046FFF70FFD05460E46504659464246F5
:10071000FFF773FF084305D0012004E02046394667
:10072000BDE8F08D0020054346EAE0762C433743D0
:100730000A986305E40AA0EB08000022FD0A44EAD7
:1007400047540A3002D500200146E9E70105101997
:100750006941DDE9084500196941BDE8F04DA4E7AC
:10076000C1F30A52C1F3130140F2FF3341F4801187
:100770009A4202DA00200146704740F233439A421F
:10078000A2F2334202DC5242FFF7CCBCFFF735BF86
:10079000064C074D06E0E06840F0010394E80700CE
:1007A00098471034AC42F6D3FFF7A4FCC8400008C9
:1007B000E84000082DE9F04D00231A461B1A8A4133
:1007C00003DB00200146BDE8F08DC1F30A52C1F3FE
:1007D000130141F480154FF0000BD10702D100182E
:1007E0006D41521E0027044640F2FF11384601EBCE
:1007F000620A3E468046024600204FF48011FFF711
:1008000091FCC2197141BB1846EB0100B4EB030C1B
:1008100075EB000C04D3E41A65EB000517460E4691
:10082000241908F101006D4180463428E3DDF919EF
:1008300046EB0600091BA84103D24FF0FF321346D6
:1008400001E0002213461BEB070046EB0A51BDE80E
:10085000F04DFFF72ABF000010B54FF4005000F034
:1008600023F84FF44041044800F008F9BDE8104077
:100870002021024800F002B9000C014000080140AC
:1008800070B5044600F004F90546601C02D0044827
:100890000078044400F0FCF8401BA042FAD370BD7D
:1008A0001800002070470000044910B50A68024291
:1008B00002D00860FFF7F6FF10BD000014040140ED
:1008C0002DE9F84FDFF890A100220AF1040B14463D
:1008D00001274FF00F090BF1040E00BF0B6807FA58
:1008E00004F52B40AB4274D1DFF870C14E68A6EB23
:1008F0000C0866452BD00DDC032E34D005DC36B356
:10090000012E19D0022E2FD11BE0112E16D0122E3F
:100910002AD119E0B8F5881F19D006DCB8F5803F58
:1009200015D0B8F5801F1FD111E0B8F5001F0ED00B
:10093000B8F5041F18D10AE0CA6815E0CA68121D8C
:1009400012E0CA6808320FE0CA680C320CE08A680C
:100950002AB1012A4FF0080203D0456104E00422C5
:1009600002E0056100E00022FF2B01D8064601E00D
:1009700000F104064FEA840501D9A5F12005D6F857
:1009800000C009FA05F82CEA080C02FA05F54CEA51
:10099000050CC6F800C04D68ED0057D5304DAE6966
:1009A00046F00106AE61AD6924F0030605F00105CD
:1009B00000952C4D06EB050CDCF80850A6074FEA15
:1009C000167809FA08F6B543274EB04202D1002640
:1009D00010E03BE0254EB04201D101260AE0244E52
:1009E000B04201D1022605E0224EB04201D10326D9
:1009F00000E0042606FA08F62E43CCF808604D689D
:100A0000DAF80060ED03554601D51E4300E09E4331
:100A10002E604D68DBF80060AD035D4601D51E43D6
:100A200000E09E432E604D68DEF80060ED027546E2
:100A300001D51E4300E09E432E604D68AD020E4D71
:100A40002E6801D51E4300E09E432E60641C102CCE
:100A5000FFF444AFBDE8F88F00040140000011101E
:100A6000001002400000014000080140000C01405D
:100A700000100140001401400C040140C2684A40CB
:100A8000C26070470AB1016170470904FBE70000CA
:100A900001488068704700001800002070B504000D
:100AA0001BD094F83D00002520B984F83C50204626
:100AB00000F0E2FA242084F83D002068016821F06B
:100AC0000101016000F06AFC3D4A6168914201D871
:100AD0003C4900E03C49884201D2012070BD3B49BD
:100AE0002368B0FBF1F159606368934206D94FF473
:100AF000967359434FF47A73B1FBF3F12368491CA1
:100B00001962616891420AD84900401EB0FBF1F0B9
:100B1000401CC0F30B0004281ED204201CE0A36874
:100B2000CBB301EBC10202EB0116421EB2FBF6F29F
:100B3000521C42F48042120536D06BB301EBC10265
:100B400002EB0111401EB0FBF1F0401CC0F30B00A2
:100B500040F4804040F400402168C861D4E90701B6
:100B6000084321680860D4E90310084321688860BD
:100B7000D4E9050108432168C8602068016841F094
:100B8000010101602564202084F83D00256384F87C
:100B90003E50002070BD00E008E001EB4106421E1F
:100BA000B2FBF6F2521CC6E70120D5E701EB41018A
:100BB000401EB0FBF1F0401CC0F30B00CAE7000080
:100BC000A086010080841E0000093D0040420F0005
:100BD0002DE9FF4F81B099468B4604464FF001083E
:100BE000FFF756FF054694F83D0020287BD11923D6
:100BF00001224D492046009501F01BF9002872D1D1
:100C000094F83C0001286ED0012084F83C00206854
:100C10000168C90703D1016841F001010160206842
:100C2000016821F400610160242084F83D00002661
:100C300026643E48E06220272068016841F4807104
:100C400001604B4600224FF001112046009501F053
:100C5000F0F8002858D121680BF0FE000861FFF77A
:100C600017FF2168054648694969C0F3400094F8B8
:100C70003D20C1F380214FF0A00A12E0B9F1000F2E
:100C800004D0FFF705FF411B494501D984F83DA079
:100C9000216848694969C0F3400094F83D20C1F3D8
:100CA0008021084301D1A02AE8D184F83D70206852
:100CB0004169C943890717D4016841F40071016093
:100CC000206841698069192301221749204600954F
:100CD00001F0AFF8C0B984F83D7084F83C600020A2
:100CE00005B0BDE8F08F1DE0016841F400710160BE
:100CF00021686FF480604861192301220A49204667
:100D0000009501F096F808B10320E9E74146039801
:100D100008F1010881428FD384F83D7084F83C606B
:100D20000120DDE70220DBE7020010000000FFFFEA
:100D30002DE9F84F1F4690468A460446DDF8289074
:100D4000FFF7A6FE054694F83D0020287ED1192322
:100D5000012278492046009501F06BF80028F5D172
:100D600094F83C00012871D0012084F83C002068F0
:100D70000168C90703D1016841F0010101602068E1
:100D8000016821F400610160222084F83D001020F8
:100D900084F83E0000262664C4F8248067856648EF
:100DA000E062608D20852B464A465146204600F081
:100DB00060FF28B1206C84F83C60042850D073E0B8
:100DC000208D5E4F68B1012814D002282068016888
:100DD0001ED041F480610160206841698069009003
:100DE0009AE02068416981690091016841F40071CD
:100DF000016091E02068016821F48061016072B6B1
:100E00002068416981690091016841F400710AE03C
:100E100041F40061016072B6206841698169009106
:100E2000016821F48061016062B675E0032850D842
:100E300001280CD002284B464FF0000239462046CC
:100E4000009512D000F0F5FF70BB13E070E02A4669
:100E50004946204601F062F828B1206C202823D0B2
:100E60000120BDE8F88F20684BE000F0E2FFD8B920
:100E700072B61BE02068016821F48061016072B6DF
:100E800020680169606A421C62620170208D401E08
:100E90002085608D401E60854B46002239462046E5
:100EA000009500F0C6FF08B10320DAE7206801686A
:100EB00041F40071016020680169606A421C62624D
:100EC0000170208D401E2085608D401E608562B6B9
:100ED000C9E72A464946204601F020F80028BCD13F
:100EE00020680169606A421C62620170208D401EA8
:100EF0002085608D401E608520684169C94349078F
:100F00000AD40169606A421C62620170208D401E31
:100F10002085608D401E6085208D002886D1202090
:100F200084F83D0084F83E6084F83C60002098E737
:100F3000022096E7020010000000FFFF04000100FD
:100F40002DE9F84F1F4690468A460446DDF8289062
:100F5000FFF79EFD064694F83D0020287ED1192318
:100F6000012243492046009600F063FF00287DD10E
:100F700094F83C00012879D0012084F83C002068D6
:100F80000168C90703D1016841F0010101602068CF
:100F9000016821F400610160212084F83D001020E7
:100FA00084F83E0000252564C4F824806785314814
:100FB000E062608D208533464A465146204600F067
:100FC000C7FE28B1206C84F83C5004284CD00DE0BA
:100FD000206841698069009030E0324649462046E9
:100FE00000F0CDFF28B1206C042838D00320BDE8E4
:100FF000F88F606A411C6162216800780861608D29
:10100000401E6085208D401E80B2208521684A697F
:10101000D24352070BD450B1606A421C626200781E
:101020000861608D401E6085208D401E20853246FF
:101030004946204600F0D6FE0028D4D1208D002855
:10104000CBD154F83D0B016841F4007101602020C0
:1010500004F81E09E57765770020C8E706E02068F8
:10106000016841F4007101600120C0E70220BEE781
:10107000020010000000FFFF00B500680C4985B0B9
:10108000884213D14FF44060009012200190032059
:10109000039069460748FFF713FC0748C16941F40C
:1010A0008001C161C06900F48000049005B000BDFA
:1010B00000580040000C01400010024002488168C6
:1010C000027811448160704718000020074810B56D
:1010D000016841F010010160032000F09DF800203C
:1010E00000F006F800F024F8002010BD00200240B7
:1010F00070B50D4D04464FF47A712878B1FBF0F0CD
:101100000A490968B1FBF0F000F02DFB48B9102C3A
:1011100007D200222146501E00F05EF800206C60CD
:1011200070BD012070BD00001800002014000020D8
:10113000214808B5816941F001018161816901F0AF
:1011400001010091C16941F08051C161C06900F0A5
:1011500080500090032000F05FF8002211466FF0ED
:101160000B0000F039F8002211466FF00A0000F081
:1011700033F8002211466FF0090000F02DF800222C
:101180001146501F00F028F800221146101F00F0F1
:1011900023F800221146901E00F01EF8002211468E
:1011A000501E00F019F80548416821F0E06141F057
:1011B0000071416008BD00000010024000000140C5
:1011C00000F01F02012191404009800000F1E02061
:1011D000C0F8001170470000F0B40E4B1B680C46BD
:1011E000C3F30223C3F10705042D00D90425191DFB
:1011F000072901D2002300E0DB1E012606FA05F1D3
:10120000491E214099409E40761E16403143F0BC55
:1012100001F0A0B80CED00E0064900F007020868F4
:101220004FF6FF03184040EA0220034A10430860CB
:10123000704700000CED00E00000FA052DE9F047D2
:10124000DFF83C8105460E46D8F8000000F00700A4
:10125000B0420CD2D8F8001021F007013143C8F891
:101260000010D8F8000000F00700B04263D12878E1
:10127000444C800705D56068A96820F0F000084359
:1012800060602878C00745D06868012816D02168BA
:10129000022816D0890700294DDA616821F0030180
:1012A00001436160FFF7F4FB6968074641F288304B
:1012B00001290FD00229814619D027E0216889032E
:1012C000E9E78901E7E700BFFFF7E2FBC11B4945FA
:1012D00001D918E081466068C0F381000128F3D18C
:1012E00018E000BFFFF7D4FBC11B49450BD860686D
:1012F000C0F381000228F5D10CE000BFFFF7C8FB66
:10130000C11B494502D90320BDE8F087606810F091
:101310000C0FF3D1D8F80010404601F00701B1429C
:101320000BD9016821F0070131430160006800F02A
:101330000700B04201D00120E6E72878400705D534
:101340006068E96820F4E06008436060287800077E
:1013500006D56068296920F4605040EAC1006060E9
:1013600000F03CF86168084AC1F30311515CC840C1
:10137000064908600020FFF7BBFE0020C4E700001C
:10138000002002400010024020400008140000200D
:101390000148006870470000140000200448054917
:1013A00000684968044AC1F30221515CC840704793
:1013B0001400002000100240304000080448054995
:1013C00000684968044AC1F3C221515CC8407047B3
:1013D00014000020001002403040000812A185B027
:1013E0000FC98DE80F0014A0144A006804905168DA
:1013F000134801F00C03042B10D0082B0ED1C1F3BD
:101400008343C9031DF803000AD5516804AAC1F338
:101410004041515C0A4A5043B0FBF1F005B07047BF
:1014200008494843FAE700000203040506070809D3
:101430000A0B0C0D0E0F10100102000000100240EC
:1014400000127A0000093D002DE9F84F04460078AB
:10145000B94DC00748D06868C0F38100012807D0A3
:101460006868C0F38100022809D16868C00306D506
:101470002868800338D5606800286FD034E0606841
:10148000B0F5803F0BD010B1B0F5A02F11D0286877
:1014900020F480302860286820F4802002E028684A
:1014A00040F480302860606888B1FFF7F1FA0646A2
:1014B00009E0286840F480202860F0E7FFF7E8FAA8
:1014C000801B642875D828688003F7D50CE0FFF7E7
:1014D000DFFA064605E000BFFFF7DAFA801B642852
:1014E000F0D828688003F7D42078944E80074FF016
:1014F00001094FF000083BD5686810F00C0F07D0C9
:101500006868C0F38100022809D16868C00306D466
:101510002868800714D5206901281FD110E02069B0
:10152000B0B1C6F80090FFF7B3FA074605E000BF78
:10153000FFF7AEFAC01B0228C4D828688007F7D589
:101540002868616920F0F80040EAC10028600FE0D7
:10155000C6F80080FFF79CFA074606E0E9E000BF06
:10156000FFF796FAC01B022823D828688007F7D413
:10157000207800072CD57248A169D9B1C0F8009035
:10158000FFF786FA074604E0FFF782FAC01B02283D
:101590000FD8686A8007F7D56A484FF4FA51006897
:1015A000B0FBF1F0009000BF0098411E0091FAD20C
:1015B0000EE080E0C0F80080FFF76AFA074604E01A
:1015C000FFF766FAC01B022875D8686A8007F7D44F
:1015D0002078400760D5E8690027C00008D4E86992
:1015E00040F08050E861E869012700F080500090E9
:1015F00055480168C90513D40168834641F48071D8
:101600000160FFF745FA824606E000BFFFF740FAA7
:10161000A0EB0A0064284ED8DBF80000C005F5D521
:10162000E06801280AD008B1052813D0286A20F004
:1016300001002862286A20F0040002E0286A40F0D5
:1016400001002862E06841F2883B98B1FFF720FA78
:1016500082460BE0286A40F004002862EEE700BFF3
:10166000FFF716FAA0EB0A0159455AD8286A8007F5
:10167000F6D50CE0FFF70CFA824605E0FFF708FA12
:10168000A0EB0A0159454CD8286A8007F6D41FB14F
:10169000E86920F08050E861E06988B36968C1F3C7
:1016A0008101022945D00228C6F8608004D0FFF7E6
:1016B000EFF9044638E034E0FFF7EAF9074604E0C2
:1016C000FFF7E6F9C01B02282BD828688001F7D461
:1016D000206AB0F5803F05D16868A16820F4003029
:1016E00008436860D4E908010843696821F474116B
:1016F00008436860C6F86090FFF7CAF9044606E040
:1017000015E000BFFFF7C4F9001B022809D82868BC
:101710008001F7D50BE000BFFFF7BAF9001B0228E4
:1017200002D90320BDE8F88F28688001F4D4002096
:10173000F8E70120F6E700000010024000004242F6
:101740008004424214000020007000404FF0E0216D
:101750000428086903D020F004000861704740F0B5
:101760000400FAE7704710B5401EB0F1807F01D346
:10177000012010BD4FF0E02460610F21601700F0E0
:10178000E9FD0020A06107202061002010BD10B5F8
:10179000FFF7E8FF10BD30B590F83C20012A20D0BB
:1017A000012280F83C20022380F83D3003685C6809
:1017B00024F070045C6003685C680D682C435C6016
:1017C00003689C6824F080049C6003689C684968F6
:1017D0000C439C6080F83D20002180F83C100846B6
:1017E00030BD022030BD10B5040003D094F83D0098
:1017F00010B107E0012010BD002084F83C00204615
:1018000000F00CF8022084F83D00211D206800F053
:1018100011FE012084F83D00002010BD08B50168CC
:101820001148B1F1804F0BD0104A914210D1C169DB
:1018300041F00201C161C06900F00200009008BDE2
:10184000C16941F00101C161C06900F00100F5E723
:10185000074A9142F3D1C16941F00401C161C069F5
:1018600000F00400EAE7000000100240000400401D
:101870000008004070B5044690F83C00012817D0DD
:10188000012584F83C50022084F83D0020688268DD
:1018900022F0770222F47F4282600868502837D015
:1018A0000DDC202859D005DC88B3102841D151E047
:1018B000022070BD302853D040283AD13FE0602844
:1018C0002ED070280BD0B0F5805F03D0B0F5005F4C
:1018D0002FD110E02068816821F0070115E0CB6866
:1018E000D1E90121206800F0DBFD2168886840F023
:1018F000770088601DE0CB68D1E90121206800F005
:10190000CFFD2068816841F48041816011E01EE0D4
:10191000CA684968206800F077FE5021206806E018
:10192000CA684968206800F080FE6021206800F0E5
:10193000C1FD84F83D50002084F83C0070BDCA68A9
:101940004968206800F060FE40212068EFE7002130
:101950002068ECE710212068E9E720212068E6E70D
:1019600030212068E3E700001FB50A4B026802211E
:1019700009489A4202D10091019105E0074B9A4231
:1019800006D15215CDE9002103916946FEF798FF73
:101990001FBD000000040040000C01400008004092
:1019A00070B5044690F83C000D4601280DD0012684
:1019B00084F83C60022084F83D0042B1042A18D02B
:1019C000082A2AD00C2A4DD139E0022070BD2068A7
:1019D00000F078FD2068816941F00801816120688C
:1019E000816921F004018161206881692A691143BC
:1019F00011E0206800F08EFD2068816941F40061EB
:101A000081612068816921F4806181612068816938
:101A10002A6941EA0221816124E0206800F0A6FDE4
:101A20002068C16941F00801C1612068C16921F0E5
:101A30000401C1612068C1692A69114311E020686D
:101A400000F0C0FD2068C16941F40061C1612068F7
:101A5000C16921F48061C1612068C1692A6941EAD4
:101A60000221C16184F83D60002084F83C0070BD13
:101A700010B5040003D094F83D0010B107E0012038
:101A800010BD002084F83C00204600F00CF8022035
:101A900084F83D00211D206800F0CCFC012084F872
:101AA0003D00002010BD704770B5040004D094F8CC
:101AB0003900002510B106E0012070BD84F83850CF
:101AC000204600F023F8242084F839002068C168FB
:101AD00021F40051C160204600F0BAFD2068016980
:101AE00021F4904101612068416921F02A0141619E
:101AF0002068C16841F40051C160E563202084F88A
:101B0000390084F83A00002070BD000070B51C4E0A
:101B1000036800241B49022003221B4D86B0B342F8
:101B200011D18B6943F480438B618969039201F47D
:101B3000804104910102CDE9001069462846FEF774
:101B4000BFFE281513E0114EB34217D1CB6943F401
:101B50000033CB61C969039201F40031049104217F
:101B6000CDE9001069462846FEF7AAFE0820CDE917
:101B70000004694628460294FEF7A2FE06B070BD36
:101B800000380140001002400008014000440040BD
:101B90002DE9F843044690F839001F4616460D46D5
:101BA000202850D1A5B19EB194F8380001284AD020
:101BB000012084F838004FF00008C4F83C80212050
:101BC00084F83900FEF764FFA6848146E68426E0A7
:101BD0000120BDE8F883E08C401EE084A0684B46FD
:101BE000B0F5805F4FF000024FF080012046009773
:101BF00003D000F0E5FDE8B90DE000F0E1FDC8B963
:101C000028882168C0F308004860206908B16D1C6D
:101C100005E0AD1C03E0216815F8010B4860E08C7D
:101C20000028D8D14B46002240212046009700F0E2
:101C3000C7FD08B10320CCE7202084F8390084F8E0
:101C400038800020C5E70220C3E701684A69D24313
:101C500052050CD46FF480624A61042101640021B2
:101C600040F8301F2022427301730120704700208A
:101C700070472DE9F84F0446C06A1E4692460D464D
:101C800021680A6842F480620A60042807D00128AB
:101C900005D010F5803F02D0206B112804D12068B8
:101CA000016841F4807101604FF001185346002231
:101CB00041462046009600F0BCF8B8BB206908F108
:101CC0000109B0F5804F12D00620216800EAD5172F
:101CD00047F0F00008613346524608F107012046FC
:101CE00000F0D8F838B1206C04282FD01EE0E8B2FC
:101CF00040F001001FE02168E8B208613346524617
:101D00004946204600F0C6F80028ECD12068416919
:101D100081690091016841F480710160534600229D
:101D200041462046009600F084F810B10320BDE83B
:101D3000F88F47F0F1002168086133465246494662
:101D4000204600F0A7F80028CDD1F0E70120EEE70B
:101D5000F8B50446C06A1E460D461746042807D04B
:101D6000012805D010F5803F02D0206B122804D145
:101D70002068016841F480710160134600224FF031
:101D800001112046009600F054F8A0B92069B0F582
:101D9000804F12D00620216800EAD51040F0F000F4
:101DA000086133463A460E49204600F073F838B1D0
:101DB000206C042811D00320F8BD05F0FE0000E0DF
:101DC000E8B221680861064933463A46891F204631
:101DD00000F060F80028EBD1F8BD0120F8BD00004C
:101DE0000800010070B516460D4604461AE020466C
:101DF000FFF72BFF08B1012070BD681C12D025B180
:101E0000FEF746FE801BA8420CD954F8400F40F064
:101E1000200044F810090020206020216173207305
:101E2000032070BD20684069C0434007DFD4002014
:101E300070BD2DE9F0471E4690460D460446C1F39D
:101E40000747DDF8209012E0701C10D02EB1FEF78D
:101E50001FFEA0EB0900B04209D9002044F8300F62
:101E600020216173A07320730320BDE8F0872068F0
:101E7000012F0AD0806925EA00000004000C06D07A
:101E800000214145E0D00020EFE74069F3E7012160
:101E9000F7E700002DE9F0479A4691460D460446C3
:101EA00000264FF02008C1F307472AE02068406968
:101EB000C043400512D42068016841F400710160FC
:101EC00021686FF48060486104202064266384F8F0
:101ED0003D8084F83C600120BDE8F087B9F1FF3F08
:101EE0000FD0B9F1000F05D0FEF7D2FDA0EB0A012B
:101EF000494506D944F8306F84F80D8026730320D5
:101F0000EAE72068012F07D0D0F8180025EA000082
:101F10000004000CE0D0C9E74069F7E72DE9F04183
:101F2000002590460E460446202721E04069C04324
:101F3000C0060CD421686FF0100048612564256349
:101F400084F83D7084F83C500120BDE8F0812EB14A
:101F5000FEF79EFDA0EB0800B04209D954F8400FEF
:101F600040F0200044F80409677025700320ECE776
:101F700020684169C9434906D8D40020E5E770B517
:101F800016460D4604461AE02046FFF75EFE08B1ED
:101F9000012070BD681C12D025B1FEF779FD801BB1
:101FA000A8420CD954F8400F40F0200044F8100922
:101FB00000202060202161732073032070BD206801
:101FC0004069C0430006DFD4002070BD2DE9F04316
:101FD0002D4885B0816941F010018161816901F06E
:101FE00010010491816941F020018161816901F052
:101FF00020010491816941F004018161816901F04E
:1020000004010491816941F0080181618069DFF870
:102010007C8000F008000490002220214046FEF75A
:1020200031FDDFF86C904FF44047002239464846B6
:10203000FEF728FD4FF40050009016480024CDE92B
:10204000010469461448FEF73BFC202001250226C6
:10205000CDE90005CDE9024669464046FEF730FC71
:1020600000970396CDE9015469464846FEF728FCDF
:10207000002211462820FFF7AFF82820FFF7A0F82C
:1020800005B0BDE8F08300000010024000080140E8
:10209000000C014000001110001001400E4810B566
:1020A0000C4901600D49416000214FF4804281607C
:1020B000C0E9031241618161C1610162FEF7EEFC7A
:1020C000002805D0BDE81040422105A000F0AABBC1
:1020D00010BD0000005800402C000020A086010028
:1020E0002E2E2F5372632F6932632E63000000007F
:1020F00010B5174886B04FF0804101604721002499
:10210000C0E90114C460802104618161FFF76BFBA9
:1021100018B141210FA000F085FB4FF480500090D2
:1021200069460B48FFF7A6FB18B1472109A000F04C
:1021300079FB049404A906480594FFF72CFB0028BA
:1021400003D04E2103A000F06DFB06B010BD0000CF
:10215000800000202E2E2F5372632F74696D2E6322
:102160000000000010B525488EB02349016040F200
:10217000CF210024C0E9011440F2CF71C0E903145B
:102180008461FFF730FB18B161211DA000F04AFB0C
:102190004FF48050079007A91848FFF76BFB18B160
:1021A000672117A000F03EFB1448FFF761FC18B14F
:1021B0006C2113A000F036FB0B940BA90F480C9474
:1021C000FFF7E9FA18B173210DA000F02BFB602096
:1021D000CDE9000402940C22694608480494FFF7F4
:1021E000DFFB18B17C2106A000F01CFB0348FFF7C1
:1021F000BBFB0EB010BD000000040040C00000207A
:102200002E2E2F5372632F74696D2E630000000011
:1022100010B525488EB02349016040F2CF2100243B
:10222000C0E9011440F2CF71C0E903148461FFF7E3
:10223000DAFA18B191211DA000F0F4FA4FF48050A1
:10224000079007A91848FFF715FB18B1972117A0A9
:1022500000F0E8FA1448FFF70BFC18B19C2113A01A
:1022600000F0E0FA0B940BA90F480C94FFF793FAD7
:1022700018B1A3210DA000F0D5FA6020CDE900042B
:1022800002940C22694608480494FFF789FB18B1B0
:10229000AC2106A000F0C6FA0348FFF765FB0EB0BC
:1022A00010BD000000080040000100202E2E2F531A
:1022B00072632F74696D2E63000000000D4810B525
:1022C0000B4901604FF4E1314160002181600C2233
:1022D000C160C0E904128161C161FFF7E5FB00281C
:1022E00005D0BDE81040432103A000F09BBA10BD0B
:1022F00000380140400100202E2E2F5372632F75AD
:10230000736172742E6300000D4810B50B490160B3
:102310004FF4E1314160002181600C22C160C0E9CD
:1023200004128161C161FFF7BFFB002805D0BDE841
:102330001040562103A000F075BA10BD00440040C3
:10234000800100202E2E2F5372632F7573617274DB
:102350002E6300000907090E002806DA00F00F00BE
:1023600000F1E02080F8141D704700F1E02080F8B3
:102370000014704710B5FEF7A1FEBDE81040FFF74E
:1023800006BA30B58FB001204FF4A02100248DE8AB
:102390001300049002250004CDE907504FF4E0102B
:1023A00009906846FFF750F800B1FEE70F20CDE92D
:1023B0000A054FF48060CDE90C4002210AA80E9472
:1023C000FEF73CFF00B1FEE7FEF7E2FF4FF47A7143
:1023D000B0FBF1F0FFF7C7F90420FFF7B7F90022CF
:1023E0001146501EFEF7F8FE0FB030BD0D480168D3
:1023F00041F00101016041680B4A114041600168F0
:102400000A4A11400160016821F48021016041689D
:1024100021F4FE0141604FF41F0181600449C003B3
:1024200008607047001002400000FFF8FFFFF6FE52
:1024300008ED00E0F0B50268164B174C174D4FF051
:102440008047984205D0B84203D0A04201D0A842AC
:1024500003D122F070064A683243984205D0B84250
:1024600003D0A04201D0A84203D122F44074CA682C
:10247000224322F080044A69224302608A68C262D1
:102480000A688262984201D10969016301214161B0
:10249000F0BD0000002C0140000400400008004096
:1024A00010B5846842EA032224F47F440A4322439D
:1024B000826010BD826822F070020A4342F0070178
:1024C0008160704730B5026A22F001020262026A3E
:1024D0004368846924F073050C682C4322F00205DC
:1024E0008A682A430A4DA8420BD122F00805CA681F
:1024F00023F440732A434D6922F004021D438B6983
:102500002B434360846149684163026230BD00002F
:10251000002C014030B5026A22F010020262026A09
:10252000436884690D6824F4E64444EA05248D6810
:1025300022F0200242EA05120B4DA8420ED1CD68CE
:1025400022F0800242EA05124D6923F4406343EA17
:1025500085038D6922F0400243EA8503436084616C
:1025600049688163026230BD002C014030B5026AC7
:1025700022F480720262036A4268C46923F4007321
:1025800024F073050C682C438D6843EA05230C4D39
:10259000A8420ED1CD6823F4006343EA05234D69B8
:1025A00022F4405242EA05128D6923F4806342EA24
:1025B00005124260C4614968C163036230BD000016
:1025C000002C014030B5026A22F480520262046A93
:1025D0004268C3690D6823F4E64343EA05238D6826
:1025E00024F4005444EA0534064DA84204D14D6950
:1025F00022F4804242EA85124260C3614968016464
:10260000046230BD002C014010B5036A046A24F056
:1026100001040462846924F0F00444EA021423F003
:102620000A020A438461026210BD10B5036A23F0F6
:10263000100303628369046A23F4704343EA02329D
:1026400024F0A00343EA01118261016210BD000081
:102650002DE9F041044600680169E26821F4405127
:10266000114301612169A068084361690843216839
:10267000CA6841F20C639A430243CA602068416908
:10268000A26921F44071114341614C4920686425DD
:10269000322688423CD1FEF791FE00EBC00101EBEF
:1026A000001061688900B0FBF1F7FEF787FE00EBD0
:1026B000C00101EB00106168B0468900B0FBF1F089
:1026C000B0FBF5F06FF01801484307EB800106EB13
:1026D0000110B0FBF5F000F0F006FEF76FFE00EB26
:1026E000C00101EB001061688900B0FBF1F0B0FBA4
:1026F000F5F006EB0016FEF761FE00EBC00101EB02
:10270000001061688900B0FBF1F7FEF757FE3BE06F
:10271000FEF744FE00EBC00101EB00106168890088
:10272000B0FBF1F7FEF73AFE00EBC00101EB001041
:102730006168B0468900B0FBF1F0B0FBF5F06FF0D6
:102740001801484307EB800106EB0110B0FBF5F0E0
:1027500000F0F006FEF722FE00EBC00101EB0010D6
:1027600061688900B0FBF1F0B0FBF5F006EB0016F4
:10277000FEF714FE00EBC00101EB00106168890058
:10278000B0FBF1F7FEF70AFE00EBC00101EB001011
:1027900061688900B0FBF1F0B0FBF5F06FF0180153
:1027A000484307EB800108EB0110B0FBF5F021680E
:1027B00000F00F0030448860BDE8F081003801402F
:1027C0002DE9F041984617460E460446069D1DE049
:1027D000681C1BD02DB1FEF75BF9A0EB0800A842E6
:1027E00014D92068C16821F4D071C16020684169A2
:1027F00021F001014161202084F8390084F83A0079
:10280000002084F838000320BDE8F08120680068CB
:1028100036EA000004D00020B842D9D00020F3E707
:102820000120F9E7FEE700000FB4054B10B503A93E
:10283000044A029800F042F910BC5DF814FB000055
:10284000B533000824000020490050EAC12018BF19
:1028500004204A0D18BF40F0010040F2FF72B2EBB5
:10286000515F08BF40F00200012808BF05207047F3
:102870002DE9F0414F1E00EBC7010446D1E90001EC
:1028800015461E4637F006020DD02A463346FDF7A0
:1028900000FD7F1E04EBC703D3E90023FDF752FCC4
:1028A00037F00602F1D1022F25D0042F13D0062FC6
:1028B00018BFBDE8F0812A463346FDF7EAFCD4E9AB
:1028C0000A23FDF73FFC2A463346FDF7E2FCD4E934
:1028D0000823FDF737FC2A463346FDF7DAFCD4E936
:1028E0000623FDF72FFC2A463346FDF7D2FCD4E938
:1028F0000423FDF727FC2A463346FDF7CAFCD4E93A
:102900000223FDF71FFC2A463346FDF7C2FCD4E93B
:102910000023BDE8F041FDF715BC0000024A00208D
:102920001107FDF797BD000001FDFFFF02E008C899
:10293000121F08C1002AFAD170477047002001E039
:1029400001C1121F002AFBD1704700000149086035
:1029500070470000280000202DE9FF5FDDE902201C
:10296000010DDDF838B0024318D044F61050A1F242
:10297000FF3141430D140F98012820D0A5EB0B0027
:10298000401C5FEA000A4FF00004474EDFF81C913C
:10299000A046504616D5CAF1000728E00F9801243A
:1029A00043A2012808D0002100980F9BC0E9002114
:1029B000C0E90243BDE8FF9F6FEA0B01F4E7CBF1EA
:1029C0000000DEE7074612E0F80707D0224633464C
:1029D00040464946FDF75DFC80468946224633461F
:1029E00010461946FDF755FC04460E467F10002F91
:1029F000EAD1DDE90201BAF1000F42464B4602DAA4
:102A0000FDF747FC01E0FDF7B6FC04460E46002248
:102A1000284BFDF77BFD03D84FF0FF30014607E060
:102A20000022254B20463146FDF78CFBFDF798FE32
:102A3000102409E0002C0ADB0A220023FDF7ACFD7C
:102A4000019B30321A55641E50EA0102F2D1641C17
:102A5000019AC4F1110314440F9A012A03D00122F0
:102A600008430DD10AE0084304D000204FF0110BB9
:102A70000F9080E7A3EB0B056D1E0DE05B4504DDB9
:102A80004FF0000205F1010504E003DA4FF0000207
:102A9000A5F10105002AECD000980F99C0E9023198
:102AA000C0E9004586E70000000024400000F03F38
:102AB000300000000000F0430000E03F2DE9FF4F30
:102AC00095B09B468946064600250FE2252877D11A
:102AD00000242746F84A0121059400E0044316F833
:102AE000013F203B01FA03F01042F7D130782A2849
:102AF00011D06FF02F033078A0F13002092A16D8D8
:102B0000059A44F0020402EB820203EB42021044F5
:102B1000761C0590EFE759F8042B0592002A03DA9A
:102B2000504244F40054059044F00204761C30787E
:102B30002E2816D116F8010F44F004042A280DD0CF
:102B40006FF02F023078A0F13003092B09D807EB82
:102B5000870302EB4303C718761CF3E759F8047B9D
:102B6000761C30786C280FD006DC4C2817D06828EB
:102B70000DD06A2814D104E0742810D07A280FD11F
:102B80000DE044F400140AE044F4801401E044F43D
:102B900040147278824202D104F58014761C761CAF
:102BA000307866280BD013DC582877D009DC002851
:102BB00075D04528F6D04628F4D047281AD19DE193
:102BC00018E0632835D0642879D0652812D195E1C2
:102BD000702873D008DC6728F1D069286FD06E2880
:102BE0000DD06F2806D1B5E073282CD0752875D08C
:102BF000782874D05A46179990476D1C75E1C4F334
:102C00000250022809D003280DD0D9F8001004285A
:102C10000DD00D6009F1040967E1D9F80010EA1739
:102C2000C1E90052F6E7D9F800100D80F2E70D7007
:102C3000F0E719F8041B8DF8001000208DF8010052
:102C4000EA46012003E059F804AB4FF0FF3061077A
:102C50004FF0000102D40DE008F101018846B942AD
:102C60000FDA8045F8DB1AF808100029F4D108E0E3
:102C700008F1010188468142FADB1AF808100029A0
:102C8000F6D105985B46A0EB080721463846179A0F
:102C900000F094FA284400EB080507E04DE029E134
:102CA0000DE01AF8010B5A4617999047B8F1010840
:102CB000F7D25B4621463846179A13E142E00A22D2
:102CC0000092C4F302524FF0000A022A08D059F8C9
:102CD00004CB032A4FEAEC710AD00DE029E02AE088
:102CE00009F1070121F00702F2E802C1914609E06B
:102CF0000FFA8CFC4FEAEC71042A03D14FFA8CFCDA
:102D00004FEAEC71002907DA0A460021DCF1000CD9
:102D100061EB02012D2202E0220504D52B228DF861
:102D20000420012203E0E20701D02022F7E79046C9
:102D300059E00A2102E010220DE010214FF0000AB4
:102D400000910BE010224FF0000A44F00404082721
:102D5000009203E008224FF0000A0092C4F30252EE
:102D6000022A05D059F804CB0021032A08D009E033
:102D700009F1070121F00702F2E802C1914605E0DE
:102D80001FFA8CFC042A01D10CF0FF0C4FF0000854
:102D9000220728D5702806D0009B83F0100353EA41
:102DA0000A0305D00EE040228DF80420012208E03D
:102DB0005CEA010206D030228DF804208DF805006F
:102DC00002229046009B83F0080353EA0A030AD1CB
:102DD0005CEA010201D1620705D530228DF804209A
:102DE0004FF001087F1E582804D034A003900EA88D
:102DF00002900DE036A0F9E753466046009AFDF7D1
:102E0000CBFB84460398825C0298401E02900270BD
:102E10005CEA0100F0D1029806A9081A00F1200A24
:102E2000600702D524F4803400E00127574502DD15
:102E3000A7EB0A0000E0002000EB0A0100900598D3
:102E40004144401A0590E00306D45B462146179A98
:102E5000059800F0B3F90544002706E001A85A469A
:102E6000C05D179990476D1C7F1C4745F6DBE0035A
:102E70000CD55B462146179A059800F09FF905444A
:102E800004E030205A46179990476D1C0099481E5F
:102E900000900029F5DC08E0029802995A46007873
:102EA000491C0291179990476D1CBAF10001AAF1D3
:102EB000010AF1DC65E100000928010030313233FC
:102EC0003435363738396162636465660000000066
:102ED0003031323334353637383941424344454650
:102EE0000000000000F058F90544761C30780028F6
:102EF0007FF4ECAD19B02846BDE8F08F620700D42E
:102F0000062709F1070222F0070CFCE80223E1463C
:102F100003F000485FEA080C02D00FF2702C0DE0BD
:102F20005FEA045C02D50FF2682C07E05FEAC47C1C
:102F300002D00FF2602C01E0AFF2700C4FF0FF38BE
:102F400023F00043CDF850C065280CD006DC45289E
:102F500009D046281DD047283DD13DE0662818D02D
:102F600067287ED138E00021112F01DB112000E01D
:102F7000781CCDE9000106A90EA8FFF7EDFCDDE9FC
:102F80000F010E9A03910021009207F1010A0491AA
:102F90004DE04FF000400097CDE9011006A90EA8C2
:102FA000FFF7DAFCDDE90F0203920E9B1199002274
:102FB000DDF80CA00093049211B9791C00EB010A12
:102FC000B7EB0A0004D4C0F1FF3007F1010A049006
:102FD000AAEB0700019044E0012F00DA012700214D
:102FE000112F01DD112000E03846CDE9000106A9CE
:102FF0000EA8FFF7B1FCDDE90F010E9A0391002145
:1030000004910092BA4621070CD40399514500DA85
:103010008A46BAF1010F05DD009AAAF10101515C5F
:10302000302908D0B84202DA10F1040F06DA012183
:10303000CDE9011015E0AAF10101E9E7002805DC5E
:10304000049901440491AAEB000102E0411C51459E
:1030500000DD8A460499401A401C01904FF0004060
:103060000290200704D40198504501DBCDF804807C
:1030700000208DF84F0002980DF14F07B0F1004F7E
:1030800025D02B200E9002984FF0020800280CDA71
:10309000404202902D200E9007E00A210298FDF791
:1030A00065FA3031029007F8011DB8F10001A8F16E
:1030B0000108F2DC02980028EFD1791E0E98087002
:1030C000307800F0200040F0450007F8020D12A80B
:1030D000C01B00F107081498007800B1012000EB34
:1030E0000A01019801EBE07105984144401A401E25
:1030F0000590E00306D45B462146179A059800F038
:103100005DF805441498007818B15A46179990470D
:103110006D1CE00324D55B462146179A059800F004
:103120004DF805441CE00498002807DBDDE90301A5
:10313000884203DD0098405C179901E01799302020
:103140005A469047049805F10105401C04900198E7
:10315000401E019004D12E205A46179990476D1CAD
:10316000BAF10001AAF1010ADDDC05E017F8010B54
:103170005A46179990476D1CB8F10001A8F1010853
:10318000F4DC5B462146179A0598ABE62D0000005B
:103190002B000000200000002DE9F041044600252E
:1031A0001E461746880404D405E039462020B0475F
:1031B0006D1C641EF9D52846BDE8F0812DE9F0416B
:1031C000044600251E469046C80301D5302700E07E
:1031D0002027880404D505E041463846B0476D1CD9
:1031E000641EF9D52846BDE8F08100002DE9F05FA6
:1031F0008346B1FBFBF08A46FDF754F9002289466D
:1032000080461346FDF782F92BD2404649460022FC
:10321000514BFDF767F924D8404649464FF06632D6
:103220004E4B00F009F906460F465846FDF73AF9AD
:103230000D4604464A4A4B4BFDF72BF832463B46B7
:10324000FDF727F807460E4620462946464A474BD3
:10325000FDF71FF83A463346FDF715F8FDF76AF912
:1032600004464046494600223B4BFDF74FF91DD22C
:10327000404649463E4A3F4BFDF734F916D8504682
:10328000FDF710F9364A3C4BFDF703F805460C46AE
:103290005846FDF707F9394A394BFCF7FAFF2A4639
:1032A0002346FCF7F0FFFDF745F904464046494642
:1032B0002F4A304BFDF72AF91DD240464946314A84
:1032C000314BFDF70FF916D85046FDF7EBF82F4AB2
:1032D0002F4BFCF7DEFF05460C465846FDF7E2F89B
:1032E0002C4A2D4BFCF7D5FF2A462346FCF7CBFF93
:1032F000FDF720F9044640464946224A224BFDF795
:1033000005F91DD240464946244A254BFDF7EAF807
:1033100016D85046FDF7C6F8224A234BFCF7B9FFF2
:1033200005460C465846FDF7BDF8204A204BFCF7F1
:10333000B0FF2A462346FCF7A6FFFDF7FBF804463C
:1033400040464946154A164BFDF7E0F800D20024E6
:103350002046BDE8F09F00000000E03F6666F63FB3
:103360005839B4C876BEAF3FC58F31772D219F3F06
:1033700085EB51B81E85E33F76BE9F3FC7BAB88D37
:1033800006F0963F9A9999999999E93F4BC8073D5C
:103390009B558F3F2D431CEBE2368A3FCDCCCCCCE6
:1033A000CCCCF43FD2FBC6D79E59523FB263231018
:1033B000AFEB573F13B54FF6FF7301226946024842
:1033C000FEF7E6FB00981CBD80010020FDF77EFEA5
:1033D000FEF7D7FFFEF7FAFDFEF796FFFEF7C2FEF7
:1033E000FEF716FFFEF75AFEFEF782FEFEF766FFB7
:1033F000094C4FF4FA7500BF00F090FD00F082FD1B
:103400002060FDF75CF802460B4604A0FFF70CFABB
:103410002846FDF735FAEFE70000002054686520E4
:103420006C756D696E6F757320666C757820697345
:10343000202566200A0000002DE9F04D16460F46B3
:103440000546020094B01C4621F0004123F00040E4
:1034500014BF4FF0010C4FF0000C0CEB470CFE4B6F
:103460000CEB03084FEA630CE0452DD35FEA060836
:1034700018BF4FF0010808EB44089844F74B9845F3
:1034800022D3F74B50EA060C02D09F4205D14AB92D
:1034900014B000201946BDE8F08D002A08BF4FF097
:1034A000000C01D04FF0010C0CEB470313F5001F8B
:1034B0000AD8002E14BF4FF0010C4FF0000C0CEB9B
:1034C000440313F5001F08D914B03246234628469A
:1034D0003946BDE8F04DFCF735BEDFF888B34FF054
:1034E000000A002FB8BF584523DADF4B9842A8BF27
:1034F0004FF0020A1DDADA4B83421ADCDB4B03EB96
:103500002053142B08DDC3F1340C26FA0CF303FA14
:103510000CFCB4450DD108E05EB9C3F1140C20FADF
:103520000CF303FA0CFC844503D103F00103C3F14F
:10353000020A51EA020321D1002C1FDA002F18BF22
:10354000BAF1020F02D0BAF1010F0BD00220FFF73F
:10355000FDF914B00022BDE8F04D13461046C049F5
:10356000FCF709BF0220FFF7F1F914B02A463B46E9
:10357000BDE8F04D0020BA49FCF7FDBE33006DD127
:10358000584525D107F1804010F5801001BF002A71
:103590000020B34914B008BFBDE8F08DB0488842A0
:1035A00007DC002CA1BF1846214614B0BDE8F08D01
:1035B00007E0002CBFBF184684F0004114B0BDE8FE
:1035C000F08DAB497944D1E9000114B0BDE8F08D2C
:1035D000DFF88CC2604526D1002C1FDA19B159459D
:1035E00013D1DAB90AE0002A40F0DA829D4A39465E
:1035F00014B0002062F31E01BDE8F08D00203946B2
:1036000014B060F31E01BDE8F08D07DA14B03B463C
:10361000BDE8F04D00206146FCF7ADBE14B0104689
:103620003946BDE8F08D594518DAB4F1804F0DD018
:10363000A4F10053B3F1FF5310D13B1E0EDB14B0C5
:103640001046BDE8F04D194600F0E6BB3B4614B00D
:103650001046BDE8F04D1946FCF71BBE27F00043AD
:10366000A2BBE1B1594538D1002F06DD002CA1BF26
:103670000020594614B0BDE8F08D002F01DD002C6C
:103680001FDB002F16DA002C14DBBAF1010F4FF00C
:10369000000014BF7349774914B0BDE8F08DBAF14A
:1036A000020F18BF002F0CD0BAF1010F09D1002F63
:1036B00007DA0CE0002FB8BF002C0EDABAF1010FC8
:1036C00005D0002014B00146BDE8F08D05E014B02F
:1036D00000204FF00041BDE8F08D4FF0010C0CEBE5
:1036E000E7720D9252EA0A020BD0634A90427DDDE6
:1036F000624B634A984216DD8A420EDB002C1CDBCB
:103700002CE00120FFF722F914B00022BDE8F04DB3
:10371000134610461146FCF72EBE5148884202DC83
:10372000002C0ADC1AE0914202DA002C16DA04E0DE
:103730004B4B99421EDD002C10DD0220FFF706F9ED
:1037400040F2013200204FF0E041FCF783FE454A91
:1037500014B061F31E021146BDE8F08D0220FFF7A0
:10376000F5F8FFF7DBF83E4A14B061F31E0211468C
:10377000BDE8F08D002228463946FCF784FD054659
:1037800088466FF00102FCF765FE4FF055323D4B65
:10379000FCF77CFD2A464346FCF77BFD00223A4BB2
:1037A000FCF774FD07468B462A46434610461946E9
:1037B000FCF76FFD3A465B46FCF76BFD09910C90F8
:1037C0004FF0C042314B28464146FCF762FD0746A8
:1037D0008B462F4A2D4B09990C98FCF75AFDCDE9E1
:1037E00001102C4A2C4B2846414600E019E0FCF71A
:1037F00050FDDDE90132FCF746FD3A465B46059196
:103800000890FCF79FFC002588463A465B46284610
:10381000FCF739FD059B089AFCF738FD024600F0DD
:1038200076B90020B1F5801F07DA352228461946FF
:10383000FCF710FE05466FF0340000EB2150A0F2BB
:10384000FF300190C1F3130040F07F6141F040511F
:1038500002911249884223E0FFFF1F00FFFF0F0083
:103860000000F03F0000F07F0000404301FCFFFF3C
:10387000F80A00000000F0FF0000E0410000F04303
:10388000FFFFEF3F5555D53F0000E03F4715F73F9D
:10389000FE822B6544DF5DF80BAE543E8E9803002C
:1038A000D8BF4FF0000B0EDDFE498142C8BF4FF07C
:1038B000010B08DC01984FF0000B401C01900298AE
:1038C000A0F580100290F8480299784400EBCB00F4
:1038D0000B911090D0E900232846FCF7D4FC00900F
:1038E00010980791D0E9002328460B99FCF72AFC91
:1038F00002460B460020ED49FCF73DFD05910B46C5
:103900000246089007990098FCF7C3FC0690E84827
:10391000884600277844029900680E904FF00050C6
:1039200040EA610000EB8B4000F500211098029105
:10393000D0E900230E98FCF7A6FC2A460B9BFCF767
:10394000A5FC3A464346FCF7A4FC05460B913846D5
:103950004146029B0E9AFCF79CFC079B009AFCF7E1
:1039600095FC2A460B9BFCF78EFC059B089AFCF7FE
:1039700090FC0B911090069A434610461946FCF7AE
:1039800088FC05460246CB480B4600910621784448
:10399000FEF76EFF009B2A460291089010461946DA
:1039A000FCF777FC029B089AFCF773FC054605912F
:1039B000434638461946069AFCF7C4FB0B9B109AFF
:1039C000FCF767FC2A46059BFCF7BCFB3A464346DE
:1039D0000591089010461946FCF75BFC0022B64B97
:1039E00000910C90FCF7AEFB059B089AFCF7AAFB34
:1039F0000D463A46B04B3846FCF745FC009B0C9A06
:103A0000FCF741FC059B089AFCF740FC11913A46F3
:103A10000C902B4610464146FCF73BFC079100906A
:103A20004346069A11990C98FCF733FC80460391A3
:103A30002B463A460B991098FCF72BFC4246039B09
:103A4000FCF780FB059180460B46024607990098DB
:103A5000FCF778FB00200F460546079B009AFCF711
:103A600012FC4246059BFCF711FC804609914FF081
:103A70006042924B28463946FCF70BFC00910290BD
:103A80008F4A8E4B40460999FCF703FC8046039110
:103A90008C4A8D4B28463946FCF7FBFB4246039B7C
:103AA000FCF750FB894A7A4402EBCB03D3E90023AD
:103AB000FCF748FB069003910198FCF7E2FC0746EF
:103AC000DDE902030591069A0099FCF73BFB804A69
:103AD0007A4402EBCB0BDBE90023FCF733FB3A46DD
:103AE000059BFCF72FFB002588463A462846059B98
:103AF000FCF7C9FBDBE90023FCF7C5FB009B029A3E
:103B0000FCF7C1FB039B069AFCF7C0FB02460020B2
:103B100006900D98654FAAF10103184301D16D4F2E
:103B2000069000200B46009030462146FCF7B1FB82
:103B300082468B46234630461946009AFCF7A3FB83
:103B40002A464346FCF7A5FB52465B46FCF7FAFAC9
:103B500006468A462A46434621460098FCF799FBCA
:103B600004460D4632465346FCF7ECFA5A4A8B4659
:103B7000914226DBABEB020353EA000210D122464E
:103B80002B46FCF780FB80460591544A544B304647
:103B90005146FCF7D7FA4246059BFCF7B7FC30D2FA
:103BA0000220FEF7D3FE40F2013200204FF0E04148
:103BB000FCF750FC0A46394614B062F31E01BDE81A
:103BC000F08D484B2BF000429A421AD3464A0BEB39
:103BD000020353EA000208D122462B46FCF753FBAE
:103BE00032465346FCF792FC0BD80220FEF7AEFE9D
:103BF000FEF794FE0A46394614B062F31E01BDE892
:103C0000F08D2BF000403949394A01EB20514FF03B
:103C10000008824223DA481C4FF4801121FA00F098
:103C20005844344AC0F30A517A44334BA1F2FF316D
:103C3000CB4020EA0303C0F3130040F4801CC1F121
:103C4000140012682CFA00F8BBF1000FB8BFC8F1DD
:103C5000000820462946FCF716FB04460D4622467E
:103C60002B4630465146FCF76DFA4FF0000B5A4692
:103C7000224B58460591FCF70CFB00900791204A17
:103C8000204B58460599FCF704FB0491029022460C
:103C90002B4658460599FCF7F6FA32465346FCF790
:103CA000F5FA31E07AB60B006A0700000000F03F39
:103CB000A8070000D60600000000084009C7EE3F34
:103CC000FD033ADCF5015B14E02F3EBEAE050000BB
:103CD000740500000000F0BF00009040FE822B65DC
:103CE0004715973C00CC904000346F3F01FCFFFF2C
:103CF0000000E03F94040000FFFF0F00432EE63F6A
:103D0000396CA80C615C20BE3F4A404BFCF7C1FAFD
:103D1000049B029AFCF716FA06468A46079B009A0D
:103D2000FCF710FA04460D46079B009AFCF7ABFA25
:103D300032465346FCF7AAFA064622462B4609911C
:103D400010461946FCF7A5FA8346024630488A46D3
:103D50000B4605217844FEF78BFD5A465346FCF787
:103D600098FA22462B46FCF791FA82468B46324659
:103D700020462946099BFCF78CFA3246099BFCF742
:103D8000E1F90591089000224FF0804350465946D2
:103D9000FCF779FA0646009152465B4620462946D2
:103DA000FCF777FA3246009BFCF7E5FA059B089A88
:103DB000FCF769FA22462B46FCF765FA0022154B00
:103DC000FCF764FA0D46044601EB0851081500287B
:103DD00010DC424620462946FCF73CFBFEF734FD4A
:103DE000042808BFFEF79AFD424620462946FCF704
:103DF00031FB044606980B4614B022463946BDE80E
:103E0000F04DFCF746BA0000EF39FAFE422EE63FCD
:103E1000400300000000F03F2DE9F04106460F4648
:103E2000FCF7C8FC04000D4618BF0120284320F011
:103E30000040C0F17F6000F1E040C00F0ED0301CA8
:103E400018BF0120384320F00040C0F17F6000F12E
:103E5000E040C00F04BF0120FEF778FD2046294650
:103E6000BDE8F08138B525498C20FF2408700A464A
:103E70000123722122480094FDF762F81F4A0123B2
:103E8000121F72211E480094FCF752FF01231B4AA7
:103E900072211B480094FDF753F8184D01232D1F84
:103EA0006A1C722116480094FCF742FF01232A1D68
:103EB000722113480094FDF743F80123AA1C7221D4
:103EC0000F480094FCF734FF01232A1D72210C488F
:103ED0000094FDF735F80123EA1C7221084800948C
:103EE000FCF726FF2878697800EB0121281F018064
:103EF000A978EA7801EB0221418038BD0C0000204E
:103F00002C00002010B5FFF7ADFF03484188008862
:103F1000BDE81040FFF76AB90400002038B5FF2360
:103F20001A4672211B48FCF753FE00282BD01AA01A
:103F3000FEF77AFC1E4C8020FF2520700320607065
:103F400002232246722113480095FCF7F9FFE0B1E5
:103F500018A000BFFEF768FC6420FCF791FC8120EC
:103F60002070102060700223114A722109480095C8
:103F7000FCF7E6FF58B114A0FEF756FCBDE8384048
:103F80000A20FCF77DBC15A0D2E718A0E2E71EA02E
:103F9000F2E700002C0000206469766963652069FF
:103FA00073206E6F742072656164790A00000000EE
:103FB0000C000020636D6420312073656E64206501
:103FC00072726F720A000000636D642032207365A4
:103FD0006E64206572726F720A0000006465766913
:103FE0006365206973206F6B0A000000636D6420B5
:103FF000706F7765722073656E6420737563636597
:10400000737366756C0A0000636D642074696D6576
:10401000207375636365737366756C0A0000000036
:104020000000000000000000010203040607080968
:104030000000000001020304000000000000F03F47
:10404000000000000000F83F000000000000000039
:104050000000004003B8E23F000000000000000044
:1040600006D0CF43EBFD4C3E033333333333E33FD2
:10407000FFAB6FDBB66DDB3F4D268F515555D53FFE
:1040800001411DA96074D13F65DBC9934A86CD3FCC
:10409000EF4E454A287ECA3F3E5555555555C53FBA
:1040A00093BDBE166CC166BF2CDE25AF6A56113FAC
:1040B000F16BD2C541BDBBBED0A4BE726937663EAE
:1040C0000000000000000000E840000800000020A0
:1040D0002C0000002C290008144100082C000020AE
:1040E000940500003C2900080000000000000000CA
:1040F00099000000000000000000000000A24A0437
:10410000010000001000000000000000000000009E
:0441100000000000AB
:04000005080000ED02
:00000001FF
