:020000040800F2
:10000000B005002001010008090100080B010008EB
:100010000D0100080F010008110100080000000098
:1000200000000000000000000000000013010008B4
:1000300015010008000000001701000871190008F0
:100040001B0100081B0100081B0100081B01000820
:100050001B0100081B0100081B0100081B01000810
:100060001B0100081B0100081B0100081B01000800
:100070001B0100081B0100081B0100081B010008F0
:100080001B0100081B0100081B0100081B010008E0
:100090001B0100081B0100081B0100081B010008D0
:1000A0001B0100081B0100081B0100081B010008C0
:1000B0001B0100081B0100081B0100081B010008B0
:1000C0001B0100081B0100081B0100081B010008A0
:1000D0001B0100081B0100081B0100081B01000890
:1000E000590600081B0100081B010008DFF80CD0AE
:1000F00000F0A0FA0048004711270008B0050020D2
:100100000648804706480047FEE7FEE7FEE7FEE7B1
:10011000FEE7FEE7FEE7FEE7FEE7FEE7E919000877
:10012000ED000008202A04DB203A21FA02F0002129
:10013000704721FA02F3D040C2F1200291400843F7
:10014000194670472DE9FE4F804681EA0300C00F33
:100150000C46009021F0004123F00045B8EB02006E
:10016000A94105D24046214690461C460B46024610
:1001700023F00040104347D0270DC7F30A00C3F314
:100180000A510290401A019040286BDAC3F3130021
:1001900040F4801B0098924620B10023D2EB030A62
:1001A00063EB0B0B01985946C0F14002504600F03A
:1001B000ACF906460D4650465946019A00F0B4F98E
:1001C00010EB08006141002487EA115284EAE773CA
:1001D0001A4340D0009A62B3019A012A4FEA0752AB
:1001E00015DC001B61EB02014FF0004202EA0752EE
:1001F000CDE90042001C41F5801132462B4600F04B
:10020000B2F903B0BDE8F08F40462146F9E7001B84
:1002100061EB0201001C41F5801300185B412018BE
:10022000A2F5001747EB030140EAD570B6196D41FE
:1002300011E06D084FEA360645EAC0754FEA0752ED
:10024000001B61EB0201001C41F5801149084FEAD7
:1002500030000019514132462B4603B0BDE8F04F43
:1002600000F074B90098012240000023D0EB020294
:1002700063EBE073009821464FEAE074B8EB0000AE
:1002800061EB0401E9E783F000435BE781F00041A3
:1002900058E72DE9FE4F81EA030404F0004421F001
:1002A000004100944FF0000B23F0004350EA01049A
:1002B0005ED052EA03045BD0C3F30A54C1F30A557B
:1002C0002C44A4F2F3340194A0FB0254C1F31301B3
:1002D00041F48011C3F3130343F4801301FB024480
:1002E00000FB034E840A970A44EA815447EA835785
:1002F000A4FB076802958D0A05FB07854FEA932C3E
:1003000004FB0C542705029D4FEA065847EA1637AE
:10031000B5EB08056EEB070C870E920E47EA8117C6
:1003200042EA8312A7FB0201B6EB0B0164EB000467
:100330002B0D43EA0C335E1844EB1C50DA46514651
:10034000E7FB0201C5F313044FEA0B3343EA1453EE
:100350004FEA0432019C43EA0603A4F10C04029420
:10036000009CCDE900B400F0FEF803B0BDE8F08FCA
:1003700000200146F9E72DE9F04D81EA030404F07D
:10038000004B21F0004514464FF0000A23F00041D5
:1003900050EA050220D054EA01021DD0C5F30A57E5
:1003A0000246C5F31303C1F31300C1F30A5640F428
:1003B000801543F48013A7EB0608101BD64608F2FD
:1003C000FD3873EB050002D308F1010801E0921833
:1003D0005B41B8F1000F03DA00200146BDE8F08D63
:1003E00000204FF48011064684460EE0171B73EB85
:1003F000050705D3121B63EB050306434CEA010C0A
:1004000049084FEA300092185B4150EA0107EDD1EC
:1004100052EA030012D082EA040083EA050108438D
:1004200005D0101BAB4106D20122002306E00022BA
:100430004FF0004302E06FF0010253101AEB060088
:100440004CEB085110EB0A0041EB0B01BDE8F04DFD
:1004500000F07CB830B5002904DB4FF00044404286
:1004600064EB0101002B04DB4FF00044524264EBCB
:100470000303994208BF904230BD000030B50B46DF
:10048000014600202022012409E021FA02F59D42C4
:1004900005D303FA02F5491B04FA02F52844151E98
:1004A000A2F10102F1DC30BD2DE9F05F054600202C
:1004B00092469B4688460646814640241BE02846D5
:1004C000414647462246FFF72DFE53465A46C01A7C
:1004D000914110D311461846224600F016F82D1A05
:1004E00067EB01084F4622460120002100F00DF87D
:1004F00017EB00094E41201EA4F10104DFDC484641
:1005000031462A464346BDE8F09F202A04DB203AC4
:1005100000FA02F1002070479140C2F1200320FA56
:1005200003F3194390407047202A06DBCB17203A8B
:1005300041FA02F043EAE07306E041FA02F3D040E8
:10054000C2F12002914008431946704710B5002BB4
:1005500008DA401C41F1000192185B411A4301D1B5
:1005600020F0010010BD2DE9F04D92469B4611B1DF
:10057000B1FA81F202E0B0FA80F220329046FFF741
:10058000C4FF04460F4640EA0A0041EA0B01534605
:100590005A46084313D0114653EA010019D0C8F156
:1005A00040025046FFF7BEFD05460E4650465946EE
:1005B0004246FFF7AAFF084305D0012004E0204689
:1005C0003946BDE8F08D0020054346EAE0762C432D
:1005D00037430A986305E40AA0EB08000022FD0AED
:1005E00044EA47540A3002D500200146E9E70105F4
:1005F00010196941DDE9084500196941BDE8F04D70
:10060000A4E7C1F30A52C1F3130140F2FF3341F4EE
:1006100080119A4202DA00200146704740F23343CB
:100620009A42A2F2334202DC5242FFF77BBDFFF74F
:100630006CBF0000064C074D06E0E06840F0010387
:1006400094E8070098471034AC42F6D3FFF752FD08
:10065000A8270008C827000810B54FF4005000F084
:1006600029F84FF44041064800F013F920210548CD
:1006700000F00FF904480168491C016010BD00003A
:10068000000C0140000801400000002070B5044645
:1006900000F008F90546601C02D0044800780444C4
:1006A00000F000F9401BA042FAD370BD0800002002
:1006B00070470000044910B50A68024202D0086081
:1006C000FFF7F6FF10BD0000140401402DE9F84FBC
:1006D000DFF890A100220AF1040B144601274FF025
:1006E0000F090BF1040E00BF0B6807FA04F52B404D
:1006F000AB4274D1DFF870C14E68A6EB0C086645BA
:100700002BD00DDC032E34D005DC36B3012E19D0EE
:10071000022E2FD11BE0112E16D0122E2AD119E055
:10072000B8F5881F19D006DCB8F5803F15D0B8F5AC
:10073000801F1FD111E0B8F5001F0ED0B8F5041FBF
:1007400018D10AE0CA6815E0CA68121D12E0CA682A
:1007500008320FE0CA680C320CE08A682AB1012A1C
:100760004FF0080203D0456104E0042202E0056175
:1007700000E00022FF2B01D8064601E000F104064C
:100780004FEA840501D9A5F12005D6F800C009FA81
:1007900005F82CEA080C02FA05F54CEA050CC6F837
:1007A00000C04D68ED0057D5304DAE6946F00106EA
:1007B000AE61AD6924F0030605F0010500952C4DEE
:1007C00006EB050CDCF80850A6074FEA167809FA84
:1007D00008F6B543274EB04202D1002610E03BE0B8
:1007E000254EB04201D101260AE0244EB04201D18B
:1007F000022605E0224EB04201D1032600E0042685
:1008000006FA08F62E43CCF808604D68DAF8006066
:10081000ED03554601D51E4300E09E432E604D6812
:10082000DBF80060AD035D4601D51E4300E09E434A
:100830002E604D68DEF80060ED02754601D51E435E
:1008400000E09E432E604D68AD020E4D2E6801D52E
:100850001E4300E09E432E60641C102CFFF444AF46
:10086000BDE8F88F000401400000111000100240A4
:100870000000014000080140000C01400010014050
:10088000001401400C0401408068084000D00120A1
:100890007047C2684A40C26070470AB10161704740
:1008A0000904FBE701488068704700000800002049
:1008B00070B504001BD094F83D00002520B984F8E1
:1008C0003C50204600F08EF8242084F83D0020683B
:1008D000016821F00101016000F016FA3D4A6168EB
:1008E000914201D83C4900E03C49884201D20120B4
:1008F00070BD3B492368B0FBF1F1596063689342D6
:1009000006D94FF4967359434FF47A73B1FBF3F160
:100910002368491C1962616891420AD84900401E47
:10092000B0FBF1F0401CC0F30B0004281ED20420E1
:100930001CE0A368CBB301EBC10202EB0116421E1F
:10094000B2FBF6F2521C42F48042120536D06BB371
:1009500001EBC10202EB0111401EB0FBF1F0401CA3
:10096000C0F30B0040F4804040F400402168C861AF
:10097000D4E90701084321680860D4E9031008435B
:1009800021688860D4E9050108432168C8602068AF
:10099000016841F0010101602564202084F83D00D8
:1009A000256384F83E50002070BD00E008E001EBB4
:1009B0004106421EB2FBF6F2521CC6E70120D5E703
:1009C00001EB4101401EB0FBF1F0401CC0F30B00F5
:1009D000CAE70000A086010080841E0000093D00D7
:1009E00040420F0000B500680C4985B0884213D121
:1009F0004FF440600090122001900320039069465C
:100A00000748FFF763FE0748C16941F48001C161EF
:100A1000C06900F48000049005B000BD005800409B
:100A2000000C014000100240024881680278114425
:100A30008160704708000020074810B5016841F048
:100A400010010160032000F09DF8002000F006F87E
:100A500000F024F8002010BD0020024070B50D4DBC
:100A600004464FF47A712878B1FBF0F00A4909681E
:100A7000B1FBF0F000F02DFB48B9102C07D200229A
:100A80002146501E00F05EF800206C6070BD012011
:100A900070BD00000800002004000020214808B5B7
:100AA000816941F001018161816901F001010091D9
:100AB000C16941F08051C161C06900F0805000906F
:100AC000032000F05FF8002211466FF00B0000F0E9
:100AD00039F8002211466FF00A0000F033F80022C6
:100AE00011466FF0090000F02DF800221146501F4A
:100AF00000F028F800221146101F00F023F8002211
:100B00001146901E00F01EF800221146501E00F003
:100B100019F80548416821F0E06141F00071416039
:100B200008BD0000001002400000014000F01F025C
:100B3000012191404009800000F1E020C0F800113F
:100B400070470000F0B40E4B1B680C46C3F3022341
:100B5000C3F10705042D00D90425191D072901D269
:100B6000002300E0DB1E012606FA05F1491E2140A4
:100B700099409E40761E16403143F0BC00F0E8BE1E
:100B80000CED00E0064900F0070208684FF6FF038D
:100B9000184040EA0220034A1043086070470000F2
:100BA0000CED00E00000FA052DE9F047DFF83C818C
:100BB00005460E46D8F8000000F00700B0420CD2FF
:100BC000D8F8001021F007013143C8F80010D8F818
:100BD000000000F00700B04263D12878444C800741
:100BE00005D56068A96820F0F000084360602878A7
:100BF000C00745D06868012816D02168022816D0A1
:100C0000890700294DDA616821F003010143616021
:100C1000FFF748FE6968074641F2883001290FD086
:100C20000229814619D027E021688903E9E7890173
:100C3000E7E700BFFFF736FEC11B494501D918E0C1
:100C400081466068C0F381000128F3D118E000BF3D
:100C5000FFF728FEC11B49450BD86068C0F381002F
:100C60000228F5D10CE000BFFFF71CFEC11B49456F
:100C700002D90320BDE8F087606810F00C0FF3D1B3
:100C8000D8F80010404601F00701B1420BD90168C5
:100C900021F0070131430160006800F00700B04215
:100CA00001D00120E6E72878400705D56068E968AB
:100CB00020F4E060084360602878000706D560688B
:100CC000296920F4605040EAC100606000F03CF8FF
:100CD0006168084AC1F30311515CC84006490860C5
:100CE0000020FFF7BBFE0020C4E700000020024008
:100CF000001002409027000804000020014800680E
:100D00007047000004000020044805490068496855
:100D1000044AC1F30221515CC8407047040000201E
:100D200000100240A02700080448054900684968EF
:100D3000044AC1F3C221515CC8407047040000203E
:100D400000100240A027000812A185B00FC98DE84D
:100D50000F0014A0144A006804905168134801F071
:100D60000C03042B10D0082B0ED1C1F38343C9030D
:100D70001DF803000AD5516804AAC1F34041515C33
:100D80000A4A5043B0FBF1F005B0704708494843A8
:100D9000FAE7000002030405060708090A0B0C0D18
:100DA0000E0F1010010200000010024000127A0025
:100DB00000093D002DE9F84F04460078B94DC00701
:100DC00048D06868C0F38100012807D06868C0F384
:100DD0008100022809D16868C00306D5286880030D
:100DE00038D5606800286FD034E06068B0F5803F87
:100DF0000BD010B1B0F5A02F11D0286820F48030AE
:100E00002860286820F4802002E0286840F48030C0
:100E10002860606888B1FFF745FD064609E028684C
:100E200040F480202860F0E7FFF73CFD801B642839
:100E300075D828688003F7D50CE0FFF733FD064628
:100E400005E000BFFFF72EFD801B6428F0D828685E
:100E50008003F7D42078944E80074FF001094FF0BB
:100E600000083BD5686810F00C0F07D06868C0F325
:100E70008100022809D16868C00306D42868800769
:100E800014D5206901281FD110E02069B0B1C6F83F
:100E90000090FFF707FD074605E000BFFFF702FDE2
:100EA000C01B0228C4D828688007F7D52868616964
:100EB00020F0F80040EAC10028600FE0C6F800808A
:100EC000FFF7F0FC074606E0E9E000BFFFF7EAFCA9
:100ED000C01B022823D828688007F7D42078000791
:100EE0002CD57248A169D9B1C0F80090FFF7DAFC9F
:100EF000074604E0FFF7D6FCC01B02280FD8686A3B
:100F00008007F7D56A484FF4FA510068B0FBF1F05A
:100F1000009000BF0098411E0091FAD20EE080E0E0
:100F2000C0F80080FFF7BEFC074604E0FFF7BAFCFC
:100F3000C01B022875D8686A8007F7D4207840075C
:100F400060D5E8690027C00008D4E86940F0805007
:100F5000E861E869012700F0805000905548016879
:100F6000C90513D40168834641F480710160FFF71D
:100F700099FC824606E000BFFFF794FCA0EB0A0054
:100F800064284ED8DBF80000C005F5D5E0680128DC
:100F90000AD008B1052813D0286A20F00100286281
:100FA000286A20F0040002E0286A40F0010028626C
:100FB000E06841F2883B98B1FFF774FC82460BE091
:100FC000286A40F004002862EEE700BFFFF76AFCE1
:100FD000A0EB0A0159455AD8286A8007F6D50CE0DB
:100FE000FFF760FC824605E0FFF75CFCA0EB0A011E
:100FF00059454CD8286A8007F6D41FB1E86920F01B
:101000008050E861E06988B36968C1F38101022911
:1010100045D00228C6F8608004D0FFF743FC0446A0
:1010200038E034E0FFF73EFC074604E0FFF73AFC07
:10103000C01B02282BD828688001F7D4206AB0F59D
:10104000803F05D16868A16820F4003008436860DB
:10105000D4E908010843696821F474110843686001
:10106000C6F86090FFF71EFC044606E015E000BFDE
:10107000FFF718FC001B022809D828688001F7D563
:101080000BE000BFFFF70EFC001B022802D9032073
:10109000BDE8F88F28688001F4D40020F8E701202B
:1010A000F6E7000000100240000042428004424285
:1010B00004000020007000404FF0E021042808697F
:1010C00003D020F004000861704740F00400FAE704
:1010D000704710B5401EB0F1807F01D3012010BDD4
:1010E0004FF0E02460610F21601700F031FC002018
:1010F000A06107202061002010BD10B5FFF7E8FFB8
:1011000010BD30B590F83C20012A20D0012280F893
:101110003C20022380F83D3003685C6824F07004B2
:101120005C6003685C680D682C435C6003689C68C5
:1011300024F080049C6003689C6849680C439C60B0
:1011400080F83D20002180F83C10084630BD022088
:1011500030BD10B5040003D094F83D0010B107E095
:10116000012010BD002084F83C00204600F00CF85F
:10117000022084F83D00211D206800F059FC012068
:1011800084F83D00002010BD08B501681148B1F198
:10119000804F0BD0104A914210D1C16941F0020139
:1011A000C161C06900F00200009008BDC16941F052
:1011B0000101C161C06900F00100F5E7074A9142F1
:1011C000F3D1C16941F00401C161C06900F00400BC
:1011D000EAE7000000100240000400400008004060
:1011E00070B5044690F83C00012817D0012584F81A
:1011F0003C50022084F83D002068826822F077028B
:1012000022F47F4282600868502837D00DDC202805
:1012100059D005DC88B3102841D151E0022070BDBF
:10122000302853D040283AD13FE060282ED0702893
:101230000BD0B0F5805F03D0B0F5005F2FD110E088
:101240002068816821F0070115E0CB68D1E9012110
:10125000206800F023FC2168886840F077008860EF
:101260001DE0CB68D1E90121206800F017FC20685F
:10127000816841F48041816011E01EE0CA684968DC
:10128000206800F0BFFC5021206806E0CA68496869
:10129000206800F0C8FC6021206800F009FC84F898
:1012A0003D50002084F83C0070BDCA684968206841
:1012B00000F0A8FC40212068EFE700212068ECE75F
:1012C00010212068E9E720212068E6E73021206826
:1012D000E3E700001FB50A4B0268022109489A4261
:1012E00002D10091019105E0074B9A4206D15215B7
:1012F000CDE9002103916946FFF7E8F91FBD000021
:1013000000040040000C01400008004070B5044695
:1013100090F83C000D4601280DD0012684F83C6071
:10132000022084F83D0042B1042A18D0082A2AD0AD
:101330000C2A4DD139E0022070BD206800F0C0FBBE
:101340002068816941F0080181612068816921F08C
:1013500004018161206881692A69114311E02068D4
:1013600000F0D6FB2068816941F40061816120684A
:10137000816921F480618161206881692A6941EA7B
:101380000221816124E0206800F0EEFB2068C16941
:1013900041F00801C1612068C16921F00401C16107
:1013A0002068C1692A69114311E0206800F008FC37
:1013B0002068C16941F40061C1612068C16921F4FC
:1013C0008061C1612068C1692A6941EA0221C16165
:1013D00084F83D60002084F83C0070BD10B5040026
:1013E00003D094F83D0010B107E0012010BD0020AB
:1013F00084F83C00204600F00CF8022084F83D0000
:10140000211D206800F014FB012084F83D0000201D
:1014100010BD704770B5040004D094F83900002561
:1014200010B106E0012070BD84F83850204600F06D
:1014300023F8242084F839002068C16821F4005181
:10144000C160204600F002FC2068016921F490414F
:1014500001612068416921F02A0141612068C16869
:1014600041F40051C160E563202084F8390084F81C
:101470003A00002070BD000070B51C4E03680024C7
:101480001B49022003221B4D86B0B34211D18B6948
:1014900043F480438B618969039201F48041049194
:1014A0000102CDE9001069462846FFF70FF928151B
:1014B00013E0114EB34217D1CB6943F40033CB6133
:1014C000C969039201F4003104910421CDE90010AF
:1014D00069462846FFF7FAF80820CDE90004694676
:1014E00028460294FFF7F2F806B070BD00380140BC
:1014F0000010024000080140004400402DE9F8437C
:10150000044690F839001F4616460D46202850D153
:10151000A5B19EB194F8380001284AD0012084F882
:1015200038004FF00008C4F83C80212084F83900CE
:10153000FFF7B8F9A6848146E68426E00120BDE8DD
:10154000F883E08C401EE084A0684B46B0F5805FD5
:101550004FF000024FF080012046009703D000F0CA
:101560002DFCE8B90DE000F029FCC8B928882168F5
:10157000C0F308004860206908B16D1C05E0AD1C8F
:1015800003E0216815F8010B4860E08C0028D8D1F1
:101590004B46002240212046009700F00FFC08B186
:1015A0000320CCE7202084F8390084F8388000201C
:1015B000C5E70220C3E700002DE9F043314885B0BC
:1015C000816941F010018161816901F0100104918C
:1015D000816941F020018161816901F0200104915C
:1015E000816941F004018161816901F00401049184
:1015F000816941F0080181618069DFF88C8000F029
:1016000008000490002220214046FFF746F9DFF849
:101610007C904FF44047002239464846FFF73DF999
:101620004FF4005000901A480024CDE901046946A7
:101630001848FFF74BF8202001250226CDE90005C8
:10164000CDE9024669464046FFF740F80097039609
:10165000CDE9015469464846FFF738F83020CDE916
:101660000004694648460294FFF730F8002211460C
:101670002820FFF767FA2820FFF758FA05B0BDE8E1
:10168000F08300000010024000080140000C0140FF
:1016900000001110001001400E4810B50C49016007
:1016A0000D49416000214FF480428160C0E903127E
:1016B00041618161C1610162FFF7FAF8002805D03C
:1016C000BDE81040422105A000F0AABB10BD0000FB
:1016D0000058004018000020A08601002E2E2F5335
:1016E00072632F6932632E630000000010B5174843
:1016F00086B04FF08041016047210024C0E9011409
:10170000C460802104618161FFF723FD18B141218C
:101710000FA000F085FB4FF48050009069460B4805
:10172000FFF75EFD18B1472109A000F079FB049492
:1017300004A906480594FFF7E4FC002803D04E21D5
:1017400003A000F06DFB06B010BD00006C0000208F
:101750002E2E2F5372632F74696D2E6300000000CC
:1017600010B525488EB02349016040F2CF210024F6
:10177000C0E9011440F2CF71C0E903148461FFF79E
:10178000E8FC18B161211DA000F04AFB4FF4805025
:10179000079007A91848FFF723FD18B1672117A084
:1017A00000F03EFB1448FFF719FE18B16C2113A09E
:1017B00000F036FB0B940BA90F480C94FFF7A1FC2B
:1017C00018B173210DA000F02BFB6020CDE90004BF
:1017D00002940C22694608480494FFF797FD18B15B
:1017E0007C2106A000F01CFB0348FFF773FD0EB040
:1017F00010BD000000040040AC0000202E2E2F532E
:1018000072632F74696D2E630000000010B52548C7
:101810008EB02349016040F2CF210024C0E90114B9
:1018200040F2CF71C0E903148461FFF792FC18B154
:1018300091211DA000F0F4FA4FF48050079007A901
:101840001848FFF7CDFC18B1972117A000F0E8FA6F
:101850001448FFF7C3FD18B19C2113A000F0E0FA73
:101860000B940BA90F480C94FFF74BFC18B1A32164
:101870000DA000F0D5FA6020CDE9000402940C22FE
:10188000694608480494FFF741FD18B1AC2106A051
:1018900000F0C6FA0348FFF71DFD0EB010BD0000B2
:1018A00000080040EC0000202E2E2F5372632F748E
:1018B000696D2E63000000000D4810B50B490160F2
:1018C0004FF416514160002181600C22C160C0E9D3
:1018D00004128161C161FFF79DFD002805D0BDE8BC
:1018E0001040432103A000F09BBA10BD0038014016
:1018F0002C0100202E2E2F5372632F75736172748A
:101900002E6300000D4810B50B4901604FF4E13122
:101910004160002181600C22C160C0E90412816134
:10192000C161FFF777FD002805D0BDE810405621C2
:1019300003A000F075BA10BD004400406C01002007
:101940002E2E2F5372632F75736172742E630000F5
:101950000907090E002806DA00F00F0000F1E02068
:1019600080F8141D704700F1E02080F800147047E3
:1019700010B5FFF759F8BDE81040FFF7BEBB30B512
:101980008FB001204FF4A02100248DE813000490B3
:1019900002250004CDE907504FF4E0100990684695
:1019A000FFF708FA00B1FEE70F20CDE90A054FF472
:1019B0008060CDE90C4002210AA80E94FFF7F4F8EC
:1019C00000B1FEE7FFF79AF94FF47A71B0FBF1F03E
:1019D000FFF77FFB0420FFF76FFB00221146501E2C
:1019E000FFF7B0F80FB030BD0D48016841F00101BC
:1019F000016041680B4A1140416001680A4A114088
:101A00000160016821F480210160416821F4FE0138
:101A100041604FF41F0181600449C00308607047B2
:101A2000001002400000FFF8FFFFF6FE08ED00E0A6
:101A3000F0B50268164B174C174D4FF0804798428F
:101A400005D0B84203D0A04201D0A84203D122F071
:101A500070064A683243984205D0B84203D0A0428B
:101A600001D0A84203D122F44074CA68224322F074
:101A700080044A69224302608A68C2620A688262FC
:101A8000984201D10969016301214161F0BD000063
:101A9000002C0140000400400008004010B584689C
:101AA00042EA032224F47F440A432243826010BDA9
:101AB000826822F070020A4342F007018160704799
:101AC00030B5026A22F001020262026A4368846948
:101AD00024F073050C682C4322F002058A682A431F
:101AE0000A4DA8420BD122F00805CA6823F44073BE
:101AF0002A434D6922F004021D438B692B43436046
:101B0000846149684163026230BD0000002C0140DD
:101B100030B5026A22F010020262026A43688469E8
:101B20000D6824F4E64444EA05248D6822F020027E
:101B300042EA05120B4DA8420ED1CD6822F0800278
:101B400042EA05124D6923F4406343EA85038D6937
:101B500022F0400243EA850343608461496881635F
:101B6000026230BD002C014030B5026A22F480725E
:101B70000262036A4268C46923F4007324F07305A7
:101B80000C682C438D6843EA05230C4DA8420ED106
:101B9000CD6823F4006343EA05234D6922F44052E3
:101BA00042EA05128D6923F4806342EA051242601D
:101BB000C4614968C163036230BD0000002C01406C
:101BC00030B5026A22F480520262046A4268C36934
:101BD0000D6823F4E64343EA05238D6824F400549A
:101BE00044EA0534064DA84204D14D6922F48042EE
:101BF00042EA85124260C36149680164046230BDF3
:101C0000002C014010B5036A046A24F00104046248
:101C1000846924F0F00444EA021423F00A020A431F
:101C20008461026210BD10B5036A23F010030362E1
:101C30008369046A23F4704343EA023224F0A00368
:101C400043EA01118261016210BD00002DE9F041FB
:101C5000044600680169E26821F4405111430161C2
:101C60002169A0680843616908432168CA6841F294
:101C70000C639A430243CA6020684169A26921F457
:101C80004071114341614C492068642532268842E5
:101C90003CD1FFF749F800EBC00101EB001061688F
:101CA0008900B0FBF1F7FFF73FF800EBC00101EB53
:101CB00000106168B0468900B0FBF1F0B0FBF5F0B0
:101CC0006FF01801484307EB800106EB0110B0FBF1
:101CD000F5F000F0F006FFF727F800EBC00101EB8C
:101CE000001061688900B0FBF1F0B0FBF5F006EB85
:101CF0000016FFF719F800EBC00101EB0010616856
:101D00008900B0FBF1F7FFF70FF83BE0FEF7FCFFAF
:101D100000EBC00101EB001061688900B0FBF1F736
:101D2000FEF7F2FF00EBC00101EB00106168B04666
:101D30008900B0FBF1F0B0FBF5F06FF018014843FB
:101D400007EB800106EB0110B0FBF5F000F0F006A8
:101D5000FEF7DAFF00EBC00101EB001061688900BB
:101D6000B0FBF1F0B0FBF5F006EB0016FEF7CCFF90
:101D700000EBC00101EB001061688900B0FBF1F7D6
:101D8000FEF7C2FF00EBC00101EB001061688900A3
:101D9000B0FBF1F0B0FBF5F06FF01801484307EB32
:101DA000800108EB0110B0FBF5F0216800F00F0096
:101DB00030448860BDE8F081003801402DE9F041F1
:101DC000984617460E460446069D1DE0681C1BD02B
:101DD0002DB1FEF767FDA0EB0800A84214D92068DA
:101DE000C16821F4D071C1602068416921F001010E
:101DF0004161202084F8390084F83A00002084F8FA
:101E000038000320BDE8F0812068006836EA000051
:101E100004D00020B842D9D00020F3E70120F9E730
:101E2000FEE700000FB4054B10B503A9044A029861
:101E300000F0CAF810BC5DF814FB0000F926000899
:101E40001400002002E008C8121F08C1002AFAD1BD
:101E500070477047002001E001C1121F002AFBD12A
:101E6000704700002DE9FF5FDDE90220010DDDF87C
:101E700038B0024318D044F61050A1F2FF3141436C
:101E80000D140F98012820D0A5EB0B00401C5FEA31
:101E9000000A4FF00004474EDFF81C91A046504660
:101EA00016D5CAF1000728E00F98012443A20128A3
:101EB00008D0002100980F9BC0E90021C0E902432F
:101EC000BDE8FF9F6FEA0B01F4E7CBF10000DEE70E
:101ED000074612E0F80707D02246334640464946F7
:101EE000FEF7D7F980468946224633461046194602
:101EF000FEF7CFF904460E467F10002FEAD1DDE948
:101F00000201BAF1000F42464B4602DAFEF7C1F970
:101F100001E0FEF730FA04460E460022284BFEF799
:101F200099FA03D84FF0FF30014607E00022254B15
:101F300020463146FEF706F9FEF763FB102409E060
:101F4000002C0ADB0A220023FEF7AEFA019B303296
:101F50001A55641E50EA0102F2D1641C019AC4F1C0
:101F6000110314440F9A012A03D0012208430DD112
:101F70000AE0084304D000204FF0110B0F9080E7D7
:101F8000A3EB0B056D1E0DE05B4504DD4FF0000279
:101F900005F1010504E003DA4FF00002A5F10105A7
:101FA000002AECD000980F99C0E90231C0E9004541
:101FB00086E70000000024400000F03F30000000F1
:101FC0000000F0430000E03F2DE9FF4F95B09B4635
:101FD0008946064600250FE2252877D100242746AA
:101FE000F84A0121059400E0044316F8013F203B24
:101FF00001FA03F01042F7D130782A2811D06FF09F
:102000002F033078A0F13002092A16D8059A44F03F
:10201000020402EB820203EB42021044761C05909C
:10202000EFE759F8042B0592002A03DA504244F4F2
:102030000054059044F00204761C30782E2816D106
:1020400016F8010F44F004042A280DD06FF02F0277
:102050003078A0F13003092B09D807EB870302EB96
:102060004303C718761CF3E759F8047B761C3078D5
:102070006C280FD006DC4C2817D068280DD06A28B1
:1020800014D104E0742810D07A280FD10DE044F464
:1020900000140AE044F4801401E044F4401472781F
:1020A000824202D104F58014761C761C30786628B2
:1020B0000BD013DC582877D009DC002875D04528D0
:1020C000F6D04628F4D047281AD19DE118E06328BD
:1020D00035D0642879D0652812D195E1702873D065
:1020E00008DC6728F1D069286FD06E280DD06F28E2
:1020F00006D1B5E073282CD0752875D0782874D017
:102100005A46179990476D1C75E1C4F30250022896
:1021100009D003280DD0D9F8001004280DD00D6087
:1021200009F1040967E1D9F80010EA17C1E9005282
:10213000F6E7D9F800100D80F2E70D70F0E719F816
:10214000041B8DF8001000208DF80100EA460120E4
:1021500003E059F804AB4FF0FF3061074FF0000186
:1021600002D40DE008F101018846B9420FDA80453A
:10217000F8DB1AF808100029F4D108E008F1010191
:1021800088468142FADB1AF808100029F6D1059832
:102190005B46A0EB080721463846179A00F094FAF0
:1021A000284400EB080507E04DE029E10DE01AF8AE
:1021B000010B5A4617999047B8F10108F7D25B46D0
:1021C00021463846179A13E142E00A220092C4F3EE
:1021D00002524FF0000A022A08D059F804CB032A11
:1021E0004FEAEC710AD00DE029E02AE009F107017D
:1021F00021F00702F2E802C1914609E00FFA8CFCD7
:102200004FEAEC71042A03D14FFA8CFC4FEAEC71CF
:10221000002907DA0A460021DCF1000C61EB02011B
:102220002D2202E0220504D52B228DF80420012264
:1022300003E0E20701D02022F7E7904659E00A21A7
:1022400002E010220DE010214FF0000A00910BE097
:1022500010224FF0000A44F004040827009203E023
:1022600008224FF0000A0092C4F30252022A05D05D
:1022700059F804CB0021032A08D009E009F107012D
:1022800021F00702F2E802C1914605E01FFA8CFC3A
:10229000042A01D10CF0FF0C4FF00008220728D5CA
:1022A000702806D0009B83F0100353EA0A0305D080
:1022B0000EE040228DF80420012208E05CEA0102D1
:1022C00006D030228DF804208DF8050002229046B9
:1022D000009B83F0080353EA0A030AD15CEA010277
:1022E00001D1620705D530228DF804204FF0010896
:1022F0007F1E582804D034A003900EA802900DE051
:1023000036A0F9E753466046009AFEF7CDF88446BA
:102310000398825C0298401E029002705CEA010001
:10232000F0D1029806A9081A00F1200A600702D528
:1023300024F4803400E00127574502DDA7EB0A00B2
:1023400000E0002000EB0A01009005984144401A8B
:102350000590E00306D45B462146179A059800F0E5
:10236000B3F90544002706E001A85A46C05D179955
:1023700090476D1C7F1C4745F6DBE0030CD55B46A0
:102380002146179A059800F09FF9054404E0302093
:102390005A46179990476D1C0099481E00900029D5
:1023A000F5DC08E0029802995A460078491C02912F
:1023B000179990476D1CBAF10001AAF1010AF1DCEE
:1023C00065E10000092801003031323334353637F9
:1023D0003839616263646566000000003031323371
:1023E0003435363738394142434445460000000011
:1023F00000F058F90544761C307800287FF4ECADE5
:1024000019B02846BDE8F08F620700D4062709F10D
:10241000070222F0070CFCE80223E14603F0004823
:102420005FEA080C02D00FF2702C0DE05FEA045C4A
:1024300002D50FF2682C07E05FEAC47C02D00FF2ED
:10244000602C01E0AFF2700C4FF0FF3823F0004336
:10245000CDF850C065280CD006DC452809D04628A8
:102460001DD047283DD13DE0662818D067287ED191
:1024700038E00021112F01DB112000E0781CCDE9AC
:10248000000106A90EA8FFF7EDFCDDE90F010E9A89
:1024900003910021009207F1010A04914DE04FF0F1
:1024A00000400097CDE9011006A90EA8FFF7DAFC5D
:1024B000DDE90F0203920E9B11990022DDF80CA0BA
:1024C0000093049211B9791C00EB010AB7EB0A00E2
:1024D00004D4C0F1FF3007F1010A0490AAEB070011
:1024E000019044E0012F00DA01270021112F01DDC6
:1024F000112000E03846CDE9000106A90EA8FFF73B
:10250000B1FCDDE90F010E9A0391002104910092C4
:10251000BA4621070CD40399514500DA8A46BAF12C
:10252000010F05DD009AAAF10101515C302908D0A4
:10253000B84202DA10F1040F06DA0121CDE90110E8
:1025400015E0AAF10101E9E7002805DC049901443E
:102550000491AAEB000102E0411C514500DD8A46CE
:102560000499401A401C01904FF00040029020074F
:1025700004D40198504501DBCDF8048000208DF88B
:102580004F0002980DF14F07B0F1004F25D02B20DE
:102590000E9002984FF0020800280CDA4042029098
:1025A0002D200E9007E00A210298FDF767FF3031D9
:1025B000029007F8011DB8F10001A8F10108F2DC52
:1025C00002980028EFD1791E0E980870307800F03C
:1025D000200040F0450007F8020D12A8C01B00F1D2
:1025E00007081498007800B1012000EB0A01019857
:1025F00001EBE07105984144401A401E0590E0034C
:1026000006D45B462146179A059800F05DF805440C
:102610001498007818B15A46179990476D1CE0033A
:1026200024D55B462146179A059800F04DF80544DD
:102630001CE00498002807DBDDE90301884203DD84
:102640000098405C179901E0179930205A4690474E
:10265000049805F10105401C04900198401E01906A
:1026600004D12E205A46179990476D1CBAF10001EB
:10267000AAF1010ADDDC05E017F8010B5A461799AB
:1026800090476D1CB8F10001A8F10108F4DC5B462D
:102690002146179A0598ABE62D0000002B0000009C
:1026A000200000002DE9F041044600251E46174693
:1026B000880404D405E039462020B0476D1C641E10
:1026C000F9D52846BDE8F0812DE9F0410446002502
:1026D0001E469046C80301D5302700E02027880415
:1026E00004D505E041463846B0476D1C641EF9D557
:1026F0002846BDE8F081000013B54FF6FF730122B4
:1027000069460248FEF7FAFE00981CBD6C010020E5
:10271000FEF792F9FFF733F9FEF74EFFFFF7F2F8F5
:10272000FFF71EF8FFF772F8FEF7B6FFFEF7DEFFC1
:10273000FFF7C2F80C4C0A20FDF7A8FF1021204635
:10274000FEF7A2F808B109A000E00AA0FFF76AFBB3
:1027500020212046FEF798F808B109A000E00AA061
:10276000FFF760FBE7E70000000C01404F4B202023
:102770002020000072657365742020202000000076
:102780004F4B202020200A007265736574200A00D8
:102790000000000000000000010203040607080911
:1027A0000000000001020304C82700080000002008
:1027B00018000000441E0008E02700081800002050
:1027C00098050000541E00080000000000A24A0402
:1027D00001000000100000000000000000000000E8
:04000005080000ED02
:00000001FF
