:020000040800F2
:100000006808002001010008090100080B01000830
:100010000D0100080F010008110100080000000098
:1000200000000000000000000000000013010008B4
:10003000150100080000000017010008C12B00088E
:100040001B0100081B0100081B0100081B01000820
:100050001B0100081B0100081B0100081B01000810
:100060001B0100081B0100081B0100081B01000800
:100070005908000865080008710800087D08000894
:100080001B0100081B0100081B0100081B010008E0
:100090001B0100081B0100081B0100081B010008D0
:1000A0001B0100081B0100081B0100081B010008C0
:1000B0001B0100081B0100081B0100081B010008B0
:1000C0001B0100081B0100081B0100081B010008A0
:1000D0001B010008893200081B010008BD3200081E
:1000E000B50800081B0100081B010008DFF80CD050
:1000F00000F04EFB00480047993E000868080020C9
:100100000648804706480047FEE7FEE7FEE7FEE7B1
:10011000FEE7FEE7FEE7FEE7FEE7FEE7392C000814
:10012000ED000008202A04DB203A21FA02F0002129
:10013000704721FA02F3D040C2F1200291400843F7
:10014000194670472DE9FE4F804681EA0300C00F33
:100150000C46009021F0004123F00045B8EB02006E
:10016000A94105D24046214690461C460B46024610
:1001700023F00040104347D0270DC7F30A00C3F314
:100180000A510290401A019040286BDAC3F3130021
:1001900040F4801B0098924620B10023D2EB030A62
:1001A00063EB0B0B01985946C0F14002504600F03A
:1001B00024FA06460D4650465946019A00F02CFA9C
:1001C00010EB08006141002487EA115284EAE773CA
:1001D0001A4340D0009A62B3019A012A4FEA0752AB
:1001E00015DC001B61EB02014FF0004202EA0752EE
:1001F000CDE90042001C41F5801132462B4600F04B
:1002000061FA03B0BDE8F08F40462146F9E7001BD4
:1002100061EB0201001C41F5801300185B412018BE
:10022000A2F5001747EB030140EAD570B6196D41FE
:1002300011E06D084FEA360645EAC0754FEA0752ED
:10024000001B61EB0201001C41F5801149084FEAD7
:1002500030000019514132462B4603B0BDE8F04F43
:1002600000F023BA0098012240000023D0EB0202E4
:1002700063EBE073009821464FEAE074B8EB0000AE
:1002800061EB0401E9E783F000435BE781F00041A3
:1002900058E72DE9FE4F81EA030404F0004421F001
:1002A000004100944FF0000B23F0004350EA01049A
:1002B0005ED052EA03045BD0C3F30A54C1F30A557B
:1002C0002C44A4F2F3340194A0FB0254C1F31301B3
:1002D00041F48011C3F3130343F4801301FB024480
:1002E00000FB034E840A970A44EA815447EA835785
:1002F000A4FB076802958D0A05FB07854FEA932C3E
:1003000004FB0C542705029D4FEA065847EA1637AE
:10031000B5EB08056EEB070C870E920E47EA8117C6
:1003200042EA8312A7FB0201B6EB0B0164EB000467
:100330002B0D43EA0C335E1844EB1C50DA46514651
:10034000E7FB0201C5F313044FEA0B3343EA1453EE
:100350004FEA0432019C43EA0603A4F10C04029420
:10036000009CCDE900B400F0ADF903B0BDE8F08F1A
:1003700000200146F9E72DE9F04D81EA030404F07D
:10038000004B21F0004514464FF0000A23F00041D5
:1003900050EA050220D054EA01021DD0C5F30A57E5
:1003A0000246C5F31303C1F31300C1F30A5640F428
:1003B000801543F48013A7EB0608101BD64608F2FD
:1003C000FD3873EB050002D308F1010801E0921833
:1003D0005B41B8F1000F03DA00200146BDE8F08D63
:1003E00000204FF48011064684460EE0171B73EB85
:1003F000050705D3121B63EB050306434CEA010C0A
:1004000049084FEA300092185B4150EA0107EDD1EC
:1004100052EA030012D082EA040083EA050108438D
:1004200005D0101BAB4106D20122002306E00022BA
:100430004FF0004302E06FF0010253101AEB060088
:100440004CEB085110EB0A0041EB0B01BDE8F04DFD
:1004500000F02BB970B521F0004303430CD0C1F379
:100460000A550024D5EB040564EB0403D617AD1A36
:10047000B34102DB0020014670BD201841EB025160
:1004800070BD0EB5C10F80EAE0700844CA070021B4
:1004900040F233438DE80E000A460B4600F012F995
:1004A00003B000BD0EB540F2334102910021CDE909
:1004B00000110A460B4600F005F903B000BD00F03C
:1004C000004230F000400AD0C10D01F56071C0F368
:1004D000160042EA0151C20840071143704700204C
:1004E0000146704730B5002904DB4FF0004440421C
:1004F00064EB0101002B04DB4FF00044524264EB3B
:1005000003038B4208BF824230BD000030B5002992
:1005100004DB4FF00044404264EB0101002B04DB9C
:100520004FF00044524264EB0303994208BF9042EB
:1005300030BD000001F0004330B421F0004150EA2A
:10054000010206D00A0DA2F56072C1F31301002A60
:1005500002DC30BC00207047440F44EAC104C100F3
:10056000E01830BC00EBC25000F068B830B50B4664
:10057000014600202022012409E021FA02F59D42D3
:1005800005D303FA02F5491B04FA02F52844151EA7
:10059000A2F10102F1DC30BD2DE9F05F054600203B
:1005A00092469B4688460646814640241BE02846E4
:1005B000414647462246FFF7B5FD53465A46C01A04
:1005C000914110D311461846224600F016F82D1A14
:1005D00067EB01084F4622460120002100F00DF88C
:1005E00017EB00094E41201EA4F10104DFDC484650
:1005F00031462A464346BDE8F09F202A04DB203AD4
:1006000000FA02F1002070479140C2F1200320FA65
:1006100003F3194390407047202A06DBCB17203A9A
:1006200041FA02F043EAE07306E041FA02F3D040F7
:10063000C2F1200291400843194670470029A8BF23
:100640007047401C490008BF20F00100704710B4FB
:10065000B0FA80FC00FA0CF050EA010404BF10BCB0
:10066000704749B1CCF1200421FA04F411FA0CF1DD
:1006700018BF012121430843A3EB0C01CB1D4FEA16
:1006800000614FEA102042BF002010BC704700EB11
:10069000C35010440029A4BF10BC7047401C49003F
:1006A00008BF20F0010010BC704710B5002B08DA1D
:1006B000401C41F1000192185B411A4301D120F026
:1006C000010010BD2DE9F04D92469B4611B1B1FAE3
:1006D00081F202E0B0FA80F220329046FFF78DFFFF
:1006E00004460F4640EA0A0041EA0B0153465A46C7
:1006F000084313D0114653EA010019D0C8F1400253
:100700005046FFF70FFD05460E46504659464246F5
:10071000FFF773FF084305D0012004E02046394667
:10072000BDE8F08D0020054346EAE0762C433743D0
:100730000A986305E40AA0EB08000022FD0A44EAD7
:1007400047540A3002D500200146E9E70105101997
:100750006941DDE9084500196941BDE8F04DA4E7AC
:10076000C1F30A52C1F3130140F2FF3341F4801187
:100770009A4202DA00200146704740F233439A421F
:10078000A2F2334202DC5242FFF7CCBCFFF735BF86
:10079000064C074D06E0E06840F0010394E80700CE
:1007A00098471034AC42F6D3FFF7A4FCF852000887
:1007B000185300082DE9F04D00231A461B1A8A41F0
:1007C00003DB00200146BDE8F08DC1F30A52C1F3FE
:1007D000130141F480154FF0000BD10702D100182E
:1007E0006D41521E0027044640F2FF11384601EBCE
:1007F000620A3E468046024600204FF48011FFF711
:1008000091FCC2197141BB1846EB0100B4EB030C1B
:1008100075EB000C04D3E41A65EB000517460E4691
:10082000241908F101006D4180463428E3DDF919EF
:1008300046EB0600091BA84103D24FF0FF321346D6
:1008400001E0002213461BEB070046EB0A51BDE80E
:10085000F04DFFF72ABF0000014800F0A9B80000E2
:1008600020040020014800F0A3B80000DC030020B1
:10087000014800F09DB8000098030020014800F0F6
:1008800097B800005403002030B590F84050012480
:10089000AC40C56B6C60046863604368102B0368F0
:1008A00003D099600068C26030BD9A600068C16082
:1008B00030BD000010B54FF4005000F0A1F94FF426
:1008C0004041064800F086FA2021054800F082FAEF
:1008D00004480168491C016010BD0000000C014083
:1008E000000801401C00002001680A6822F00E0286
:1008F0000A6001680A6822F001020A6090F840204C
:10090000C36B012101FA02F25A6080F82110002124
:1009100080F820100846704710B590F82110002488
:10092000022903D00421816301243DE001680A68A3
:1009300022F00E020A6001680A6822F001020A60D1
:100940001A4A0168914201D1012121E0174A14326B
:10095000914201D110211BE0144A2832914201D169
:10096000891515E0114A3C32914201D189140FE0FA
:100970000E4A5032914202D14FF4803108E00B4AC6
:100980006432914202D14FF4801101E04FF0807146
:10099000064A083A5160012180F82110002180F8B0
:1009A0002010416B01B18847204610BD080002406D
:1009B0002DE9F05FC16B0C6801680B68D0F840C08E
:1009C000042202FA0CF2494DDFF824A1494E4A4FA5
:1009D000DFF828B1DFF828E122422CD05A072AD5C7
:1009E0000A68920603D40A6822F004020A600168C9
:1009F000A94201D1042219E0514501D1402215E05C
:100A0000B14202D14FF4806210E0B94202D14FF4FA
:100A100080420BE0594502D14FF4802206E0714537
:100A200002D14FF4800201E04FF080622F49083973
:100A30004A60C16A3BE04FF0020808FA0CF818EA75
:100A4000040F4FF000094FF0010235D05FEA8378C0
:100A500032D50B689B0605D40B6823F00A030B60A4
:100A600080F821200168A94201D1022219E05145F4
:100A700001D1202215E0B14202D14FF4007210E002
:100A8000B94202D14FF400520BE0594502D14FF464
:100A9000003206E0714502D14FF4001201E04FF040
:100AA0000072124908394A6080F82090816A002952
:100AB0001AD0BDE8F05F0847082505FA0CF5254275
:100AC00012D01B0710D50B6823F00E030B6090F8B3
:100AD0004010C36B02FA01F15960826380F8212053
:100AE00080F82090016BE2E7BDE8F09F080002402B
:100AF0001C00024030000240440002405800024006
:100B00006C00024030B548B308C815491422194496
:100B1000B1FBF2F18900C16312498163022141777F
:100B20001A6843F6F0718A43D0E900142143D0E9F2
:100B300002452C43214304692143446921438469CC
:100B4000214311431960002141628162C162016346
:100B50004163012242770177084630BD012030BD54
:100B6000F8FFFDBF0000024070B5044690F8200079
:100B7000002501280CD0012084F8200094F8216081
:100B80000020012E06D084F820000225284670BDE2
:100B9000022070BD022684F82160A06320680668E8
:100BA00026F0010606602046FFF76EFEE06A002888
:100BB0002068016802D041F00E0106E021F0040136
:100BC00001602068016841F00A0101602068016845
:100BD00041F001010160D9E770B5044600F004F965
:100BE0000546601C02D004480078044400F0FCF87C
:100BF000401BA042FAD370BD2800002070470000BF
:100C0000044910B50A68024202D00860FFF7F6FFF7
:100C100010BD0000140401402DE9F84FDFF890A149
:100C200000220AF1040B144601274FF00F090BF1C3
:100C3000040E00BF0B6807FA04F52B40AB4274D1D9
:100C4000DFF870C14E68A6EB0C0866452BD00DDCB2
:100C5000032E34D005DC36B3012E19D0022E2FD14D
:100C60001BE0112E16D0122E2AD119E0B8F5881FDC
:100C700019D006DCB8F5803F15D0B8F5801F1FD11C
:100C800011E0B8F5001F0ED0B8F5041F18D10AE026
:100C9000CA6815E0CA68121D12E0CA6808320FE07F
:100CA000CA680C320CE08A682AB1012A4FF00802A7
:100CB00003D0456104E0042202E0056100E0002267
:100CC000FF2B01D8064601E000F104064FEA840537
:100CD00001D9A5F12005D6F800C009FA05F82CEADB
:100CE000080C02FA05F54CEA050CC6F800C04D6880
:100CF000ED0057D5304DAE6946F00106AE61AD69E5
:100D000024F0030605F0010500952C4D06EB050CBB
:100D1000DCF80850A6074FEA167809FA08F6B5433A
:100D2000274EB04202D1002610E03BE0254EB042F3
:100D300001D101260AE0244EB04201D1022605E08D
:100D4000224EB04201D1032600E0042606FA08F63E
:100D50002E43CCF808604D68DAF80060ED03554684
:100D600001D51E4300E09E432E604D68DBF8006015
:100D7000AD035D4601D51E4300E09E432E604D68E5
:100D8000DEF80060ED02754601D51E4300E09E438B
:100D90002E604D68AD020E4D2E6801D51E4300E059
:100DA0009E432E60641C102CFFF444AFBDE8F88F06
:100DB000000401400000111000100240000001403A
:100DC00000080140000C01400010014000140140E7
:100DD0000C040140C2684A40C26070470AB1016118
:100DE00070470904FBE70000014880687047000075
:100DF0002800002070B504001BD094F83D000025A9
:100E000020B984F83C50204600F0E2FA242084F80F
:100E10003D002068016821F00101016000F06AFCDA
:100E20003D4A6168914201D83C4900E03C49884212
:100E300001D2012070BD3B492368B0FBF1F159603C
:100E40006368934206D94FF4967359434FF47A730B
:100E5000B1FBF3F12368491C1962616891420AD819
:100E60004900401EB0FBF1F0401CC0F30B00042809
:100E70001ED204201CE0A368CBB301EBC10202EB3D
:100E80000116421EB2FBF6F2521C42F480421205D9
:100E900036D06BB301EBC10202EB0111401EB0FB77
:100EA000F1F0401CC0F30B0040F4804040F40040DF
:100EB0002168C861D4E90701084321680860D4E9C2
:100EC0000310084321688860D4E9050108432168BC
:100ED000C8602068016841F001010160256420209C
:100EE00084F83D00256384F83E50002070BD00E08A
:100EF00008E001EB4106421EB2FBF6F2521CC6E7C7
:100F00000120D5E701EB4101401EB0FBF1F0401C90
:100F1000C0F30B00CAE70000A086010080841E0019
:100F200000093D0040420F002DE9FF4F81B0994676
:100F30008B4604464FF00108FFF756FF054694F82C
:100F40003D0020287BD1192301224D4920460095E0
:100F500001F02DFB002872D194F83C0001286ED0DE
:100F6000012084F83C0020680168C90703D10168AA
:100F700041F0010101602068016821F40061016015
:100F8000242084F83D00002626643E48E0622027A5
:100F90002068016841F4807101604B4600224FF0E7
:100FA00001112046009501F002FB002858D121686C
:100FB0000BF0FE000861FFF717FF2168054648693E
:100FC0004969C0F3400094F83D20C1F380214FF0FF
:100FD000A00A12E0B9F1000F04D0FFF705FF411B92
:100FE000494501D984F83DA0216848694969C0F3A1
:100FF000400094F83D20C1F38021084301D1A02A8C
:10100000E8D184F83D7020684169C943890717D445
:10101000016841F400710160206841698069192309
:10102000012217492046009501F0C1FAC0B984F8A1
:101030003D7084F83C60002005B0BDE8F08F1DE0F5
:10104000016841F40071016021686FF480604861BB
:10105000192301220A492046009501F0A8FA08B197
:101060000320E9E74146039808F1010881428FD344
:1010700084F83D7084F83C600120DDE70220DBE766
:10108000020010000000FFFF2DE9F84F1F469046B8
:101090008A460446DDF82890FFF7A6FE054694F838
:1010A0003D0020287ED11923012278492046009551
:1010B00001F07DFA0028F5D194F83C00012871D0A8
:1010C000012084F83C0020680168C90703D1016849
:1010D00041F0010101602068016821F400610160B4
:1010E000222084F83D00102084F83E00002626646B
:1010F000C4F8248067856648E062608D20852B46B1
:101100004A465146204601F071F928B1206C84F816
:101110003C60042850D073E0208D5E4F68B10128F8
:1011200014D00228206801681ED041F4806101605B
:1011300020684169806900909AE02068416981696E
:101140000091016841F40071016091E0206801683C
:1011500021F48061016072B6206841698169009163
:10116000016841F400710AE041F40061016072B667
:101170002068416981690091016821F48061016002
:1011800062B675E0032850D801280CD002284B46DF
:101190004FF0000239462046009512D001F007FAC0
:1011A00070BB13E070E02A464946204601F074FA0D
:1011B00028B1206C202823D00120BDE8F88F2068BA
:1011C0004BE001F0F4F9D8B972B61BE02068016871
:1011D00021F48061016072B620680169606A421C76
:1011E00062620170208D401E2085608D401E6085EA
:1011F0004B46002239462046009501F0D8F908B147
:101200000320DAE72068016841F40071016020687A
:101210000169606A421C62620170208D401E208557
:10122000608D401E608562B6C9E72A464946204661
:1012300001F032FA0028BCD120680169606A421CC2
:1012400062620170208D401E2085608D401E608589
:1012500020684169C94349070AD40169606A421C90
:1012600062620170208D401E2085608D401E608569
:10127000208D002886D1202084F83D0084F83E602F
:1012800084F83C60002098E7022096E702001000F6
:101290000000FFFF040001002DE9F84F1F469046B3
:1012A0008A460446DDF82890FFF79EFD064694F82E
:1012B0003D0020287ED11923012243492046009673
:1012C00001F075F900287DD194F83C00012879D00F
:1012D000012084F83C0020680168C90703D1016837
:1012E00041F0010101602068016821F400610160A2
:1012F000212084F83D00102084F83E00002525645C
:10130000C4F8248067853148E062608D20853346CB
:101310004A465146204601F0D9F828B1206C84F89D
:101320003C5004284CD00DE0206841698069009051
:1013300030E032464946204601F0DFF928B1206C02
:10134000042838D00320BDE8F88F606A411C616230
:10135000216800780861608D401E6085208D401EE8
:1013600080B2208521684A69D24352070BD450B11C
:10137000606A421C626200780861608D401E608570
:10138000208D401E208532464946204601F0E8F86F
:101390000028D4D1208D0028CBD154F83D0B016812
:1013A00041F400710160202004F81E09E57765779B
:1013B0000020C8E706E02068016841F40071016080
:1013C0000120C0E70220BEE7020010000000FFFF7E
:1013D00000B500680C4985B0884213D14FF44060D5
:1013E0000090122001900320039069460748FFF700
:1013F00013FC0748C16941F48001C161C06900F470
:101400008000049005B000BD00580040000C014071
:1014100000100240024881680278114481607047E0
:1014200028000020074810B5016841F01001016054
:10143000032000F09DF8002000F006F800F024F8EA
:10144000002010BD0020024070B50D4D04464FF441
:101450007A712878B1FBF0F00A490968B1FBF0F025
:1014600000F02DFB48B9102C07D200222146501E57
:1014700000F05EF800206C6070BD012070BD0000BF
:101480002800002034000020214808B5816941F07F
:1014900001018161816901F001010091C16941F09F
:1014A0008051C161C06900F080500090032000F0BD
:1014B0005FF8002211466FF00B0000F039F80022AF
:1014C00011466FF00A0000F033F8002211466FF069
:1014D000090000F02DF800221146501F00F028F8F6
:1014E00000221146101F00F023F800221146901E22
:1014F00000F01EF800221146501E00F019F80548B1
:10150000416821F0E06141F00071416008BD0000D8
:10151000001002400000014000F01F020121914034
:101520004009800000F1E020C0F800117047000081
:10153000F0B40E4B1B680C46C3F30223C3F107053E
:10154000042D00D90425191D072901D2002300E02C
:10155000DB1E012606FA05F1491E214099409E40F6
:10156000761E16403143F0BC01F01ABB0CED00E0D2
:10157000064900F0070208684FF6FF03184040EAEA
:101580000220034A10430860704700000CED00E0A1
:101590000000FA052DE9F047DFF83C8105460E46CC
:1015A000D8F8000000F00700B0420CD2D8F80010C4
:1015B00021F007013143C8F80010D8F8000000F00E
:1015C0000700B04263D12878444C800705D5606895
:1015D000A96820F0F000084360602878C00745D073
:1015E0006868012816D02168022816D089070029CA
:1015F0004DDA616821F0030101436160FFF7F4FBFC
:101600006968074641F2883001290FD002298146D6
:1016100019D027E021688903E9E78901E7E700BFDE
:10162000FFF7E2FBC11B494501D918E0814660681C
:10163000C0F381000128F3D118E000BFFFF7D4FB0D
:10164000C11B49450BD86068C0F381000228F5D161
:101650000CE000BFFFF7C8FBC11B494502D90320BE
:10166000BDE8F087606810F00C0FF3D1D8F80010D7
:10167000404601F00701B1420BD9016821F0070192
:1016800031430160006800F00700B04201D0012042
:10169000E6E72878400705D56068E96820F4E0604F
:1016A000084360602878000706D56068296920F43F
:1016B000605040EAC100606000F03CF86168084A90
:1016C000C1F30311515CC840064908600020FFF7D0
:1016D000BBFE0020C4E700000020024000100240D2
:1016E0004C52000834000020014800687047000098
:1016F000340000200448054900684968044AC1F3E1
:101700000221515CC84070473400002000100240A4
:101710005C5200080448054900684968044AC1F35E
:10172000C221515CC84070473400002000100240C4
:101730005C52000812A185B00FC98DE80F0014A0FB
:10174000144A006804905168134801F00C03042BFC
:1017500010D0082B0ED1C1F38343C9031DF8030039
:101760000AD5516804AAC1F34041515C0A4A50436A
:10177000B0FBF1F005B0704708494843FAE70000B4
:1017800002030405060708090A0B0C0D0E0F1010C2
:10179000010200000010024000127A0000093D0022
:1017A0002DE9F84F04460078B94DC00748D0686865
:1017B000C0F38100012807D06868C0F381000228C7
:1017C00009D16868C00306D52868800338D56068E9
:1017D00000286FD034E06068B0F5803F0BD010B1C6
:1017E000B0F5A02F11D0286820F480302860286838
:1017F00020F4802002E0286840F48030286060688F
:1018000088B1FFF7F1FA064609E0286840F4802025
:101810002860F0E7FFF7E8FA801B642875D828688D
:101820008003F7D50CE0FFF7DFFA064605E000BFBE
:10183000FFF7DAFA801B6428F0D828688003F7D411
:101840002078944E80074FF001094FF000083BD5F7
:10185000686810F00C0F07D06868C0F38100022898
:1018600009D16868C00306D42868800714D52069A8
:1018700001281FD110E02069B0B1C6F80090FFF731
:10188000B3FA074605E000BFFFF7AEFAC01B022817
:10189000C4D828688007F7D52868616920F0F80067
:1018A00040EAC10028600FE0C6F80080FFF79CFA0C
:1018B000074606E0E9E000BFFFF796FAC01B0228E2
:1018C00023D828688007F7D4207800072CD57248E1
:1018D000A169D9B1C0F80090FFF786FA074604E085
:1018E000FFF782FAC01B02280FD8686A8007F7D575
:1018F0006A484FF4FA510068B0FBF1F0009000BF65
:101900000098411E0091FAD20EE080E0C0F80080FD
:10191000FFF76AFA074604E0FFF766FAC01B0228E1
:1019200075D8686A8007F7D42078400760D5E869E1
:101930000027C00008D4E86940F08050E861E869F9
:10194000012700F08050009055480168C90513D464
:101950000168834641F480710160FFF745FA8246D1
:1019600006E000BFFFF740FAA0EB0A0064284ED85B
:10197000DBF80000C005F5D5E06801280AD008B101
:10198000052813D0286A20F001002862286A20F078
:10199000040002E0286A40F001002862E06841F299
:1019A000883B98B1FFF720FA82460BE0286A40F0A6
:1019B00004002862EEE700BFFFF716FAA0EB0A0169
:1019C00059455AD8286A8007F6D50CE0FFF70CFA7B
:1019D000824605E0FFF708FAA0EB0A0159454CD80A
:1019E000286A8007F6D41FB1E86920F08050E861CA
:1019F000E06988B36968C1F38101022945D00228F2
:101A0000C6F8608004D0FFF7EFF9044638E034E010
:101A1000FFF7EAF9074604E0FFF7E6F9C01B0228E2
:101A20002BD828688001F7D4206AB0F5803F05D113
:101A30006868A16820F4003008436860D4E90801B0
:101A40000843696821F4741108436860C6F860901F
:101A5000FFF7CAF9044606E015E000BFFFF7C4F936
:101A6000001B022809D828688001F7D50BE000BFC9
:101A7000FFF7BAF9001B022802D90320BDE8F88F4E
:101A800028688001F4D40020F8E70120F6E7000080
:101A90000010024000004242800442423400002014
:101AA000007000404FF0E0210428086903D020F0C6
:101AB00004000861704740F00400FAE7704710B571
:101AC000401EB0F1807F01D3012010BD4FF0E02413
:101AD00060610F21601701F063F80020A06107200A
:101AE0002061002010BD10B5FFF7E8FF10BD30B534
:101AF00090F83C20012A20D0012280F83C200223CB
:101B000080F83D3003685C6824F070045C60036812
:101B10005C680D682C435C6003689C6824F080045A
:101B20009C6003689C6849680C439C6080F83D2079
:101B3000002180F83C10084630BD022030BD10B5B1
:101B4000040003D094F83D0010B107E0012010BD5F
:101B5000002084F83C00204600F00CF8022084F8B5
:101B60003D00211D206801F08BF8012084F83D0024
:101B7000002010BD08B501681148B1F1804F0BD0AD
:101B8000104A914210D1C16941F00201C161C0699E
:101B900000F00200009008BDC16941F00101C1617F
:101BA000C06900F00100F5E7074A9142F3D1C1692D
:101BB00041F00401C161C06900F00400EAE70000DF
:101BC00000100240000400400008004070B50446C8
:101BD00090F83C00012817D0012584F83C500220E1
:101BE00084F83D002068826822F0770222F47F4268
:101BF00082600868502837D00DDC202859D005DCD9
:101C000088B3102841D151E0022070BD302853D054
:101C100040283AD13FE060282ED070280BD0B0F594
:101C2000805F03D0B0F5005F2FD110E0206881689D
:101C300021F0070115E0CB68D1E90121206801F00E
:101C400060F82168886840F0770088601DE0CB6804
:101C5000D1E90121206801F054F82068816841F43D
:101C60008041816011E01EE0CA684968206801F087
:101C7000FDF85021206806E0CA684968206801F034
:101C800006F96021206801F046F884F83D500020F4
:101C900084F83C0070BDCA684968206801F0E6F825
:101CA00040212068EFE700212068ECE71021206840
:101CB000E9E720212068E6E730212068E3E700001B
:101CC0001FB50A4B0268022109489A4202D10091CD
:101CD000019105E0074B9A4206D15215CDE900214A
:101CE00003916946FEF798FF1FBD00000004004005
:101CF000000C01400008004070B5044690F83C001C
:101D00000D4601280DD0012684F83C60022084F89D
:101D10003D0042B1042A18D0082A2AD00C2A4DD1FD
:101D200039E0022070BD206800F0FEFF2068816964
:101D300041F0080181612068816921F0040181611D
:101D4000206881692A69114311E0206801F014F8C4
:101D50002068816941F4006181612068816921F412
:101D600080618161206881692A6941EA022181617B
:101D700024E0206801F02CF82068C16941F00801D6
:101D8000C1612068C16921F00401C1612068C16995
:101D90002A69114311E0206801F046F82068C16902
:101DA00041F40061C1612068C16921F48061C161B1
:101DB0002068C1692A6941EA0221C16184F83D6055
:101DC000002084F83C0070BD10B5040003D094F8E6
:101DD0003D0010B107E0012010BD002084F83C0058
:101DE000204600F00CF8022084F83D00211D2068F8
:101DF00000F046FF012084F83D00002010BD704730
:101E000010B504460068012200F070FF0749206801
:101E1000884203D1416C41F400414164206801686B
:101E200041F001010160002010BD0000002C0140C4
:101E300010B504460068416994F83920C1F3C01117
:101E4000212A0BD151B1416921F080014161206B00
:101E500008B1FEF749FD204601F0A5F82068416968
:101E600094F83A20C1F38011222A0BD151B1416973
:101E700021F040014161606B08B1FEF735FD20465D
:101E800001F083F8002010BD7047000070B50268B3
:101E900004461068D168536910F00F0F51D003F059
:101EA000010501F4907635435DD0C20705D0CA051F
:101EB00003D5E26B42F00102E263420705D5DA077F
:101EC00003D0E26B42F00202E263820705D5DA0733
:101ED00003D0E26B42F00402E263020705D5DA07A1
:101EE00003D0E26B42F00802E263E26B002A34D0D6
:101EF000800604D5880602D5204601F05DF82068EA
:101F00004069E16BC0F3801001F0080101432046F5
:101F100024D001F03AF82068416949061AD5416990
:101F200021F040014161606BA0B11B494163606BCE
:101F3000FEF7F2FC002810D0606B416BBDE87040EA
:101F4000084783060FD58B060DD52046BDE87040A7
:101F500001F032B82046FFF797FF70BDFFF794FFFE
:101F60000020E06370BD030606D50B0604D52046AD
:101F7000BDE8704001F024B94006F3D54806F1D51C
:101F8000D168204621F04001D160202184F8391029
:101F900000F016FA70BD0000B32E000870B5040002
:101FA00004D094F83900002510B106E0012070BD7E
:101FB00084F83850204600F023F8242084F83900B3
:101FC0002068C16821F40051C160204601F040F84A
:101FD0002068016921F4904101612068416921F084
:101FE0002A0141612068C16841F40051C160E56384
:101FF000202084F8390084F83A00002070BD0000E9
:102000002DE9F043044603686A48DFF8A4C10221C1
:102010000322DFF8A48107150025802685B04FF044
:102020001009634547D1836943F480438361806924
:10203000039200F4804004900802CDE90001694653
:102040004046FEF7E9FDCDE9007569464046029538
:10205000FEF7E2FD5A4F5948C7E90005C7E90256A5
:102060003D617D61BD613846FD61FEF74BFD18B1F4
:102070009D2154A001F03CF967637C62504F4F48AA
:1020800044371438C7E902563D617D61BD61FD6189
:10209000C7E900093846FEF735FD18B1AD2149A062
:1020A00001F026F927630022114625207C62FFF704
:1020B0003FFA252078E0DFF820C163451AD1C369D3
:1020C00043F40033C361C069039200F4003004900C
:1020D0000420CDE9000169464046FEF79DFD082039
:1020E000CDE90005694640460295FEF795FD05B02D
:1020F000BDE8F083DFF8E4C06345F8D1C36943F479
:102100008023C361C069CDE9007100F48020CDE96E
:102110000320334F69463846FEF77EFDF814CDE9BB
:102120000005694638460295FEF776FD2D48416860
:1021300021F0300141F0E06141F010014160204F99
:102140001E4888372838C7E90005C7E902563D61AF
:102150004FF480587D61C7E906583846FEF7D2FC37
:1021600018B1F72117A001F0C3F867637C62144F20
:102170001248CC373C38C7E902563D617D61C7E95A
:102180000009C7E906583846FEF7BCFC20B140F20A
:1021900007110CA001F0ACF827630022114627209C
:1021A0007C62FFF7C5F92720FFF7B6F99FE700002B
:1021B0000038014000100240000801405800024071
:1021C000540300202E2E2F436F72652F5372632FFE
:1021D00075736172742E6300004400400048004033
:1021E0000010014000000140F8B5044690F83A00A4
:1021F00020283CD1C1B3BAB394F83800012836D0B6
:10220000012084F83800A162A2850025E563222020
:1022100084F83A00636B17489862636B1648D8627B
:10222000636B16481863606B134645630846666B1C
:10223000216802463046091DFEF796FC20680168B9
:102240004168009184F83850C16841F48071C160E0
:102250002068416941F0010141612068416941F014
:10226000400141610020F8BDFFE70120FBE70220AB
:10227000F9E700000D2F0008492F0008C32E0008C1
:10228000704770472DE9F843044690F839001F461F
:1022900016460D46202850D1A5B19EB194F83800BD
:1022A00001284AD0012084F838004FF00008C4F813
:1022B0003C80212084F83900FEF796FDA6848146F3
:1022C000E68426E00120BDE8F883E08C401EE0842F
:1022D000A0684B46B0F5805F4FF000024FF08001E0
:1022E0002046009703D000F09CFFE8B90DE000F015
:1022F00098FFC8B928882168C0F3080048602069A1
:1023000008B16D1C05E0AD1C03E0216815F8010B58
:102310004860E08C0028D8D14B460022402120465E
:10232000009700F07EFF08B10320CCE7202084F85E
:10233000390084F838800020C5E70220C3E7000098
:1023400070B5044690F83900202830D169B362B3E3
:1023500094F8380001282AD0012084F8380021623E
:10236000A284E2840025E563212084F83900236BF0
:1023700010489862236B1048D862236B0F4818638B
:10238000206B134645632668206B321DFEF7ECFB7D
:1023900021686FF04000086084F838502068416977
:1023A00041F080014161002070BD012070BD02201C
:1023B00070BD0000532F0008812F0008C32E0008B5
:1023C0007047704701684A69D24352050CD46FF4D4
:1023D00080624A6104210164002140F8301F2022FC
:1023E0004273017301207047002070472DE9F84FB8
:1023F0000446C06A1E4692460D4621680A6842F4A9
:1024000080620A60042807D0012805D010F5803FBB
:1024100002D0206B112804D12068016841F480713A
:1024200001604FF0011853460022414620460096B5
:1024300000F0BDF8B8BB206908F10109B0F5804F84
:1024400012D00620216800EAD51747F0F000086195
:102450003346524608F10701204600F0D9F838B15A
:10246000206C04282FD01EE0E8B240F001001FE0ED
:102470002168E8B20861334652464946204600F0DA
:10248000C7F80028ECD12068416981690091016892
:1024900041F4807101605346002241462046009677
:1024A00000F085F810B10320BDE8F88F47F0F10087
:1024B00021680861334652464946204600F0A8F894
:1024C0000028CDD1F0E70120EEE70000F8B5044682
:1024D000C06A1E460D461746042807D0012805D0BD
:1024E00010F5803F02D0206B122804D120680168CB
:1024F00041F480710160134600224FF00111204623
:10250000009600F054F8A0B92069B0F5804F12D0C1
:102510000620216800EAD51040F0F000086133463B
:102520003A460E49204600F073F838B1206C042872
:1025300011D00320F8BD05F0FE0000E0E8B22168EC
:102540000861064933463A46891F204600F060F884
:102550000028EBD1F8BD0120F8BD00000800010003
:1025600070B516460D4604461AE02046FFF72AFFCE
:1025700008B1012070BD681C12D025B1FEF734FCF3
:10258000801BA8420CD954F8400F40F0200044F8BA
:10259000100900202060202161732073032070BD8A
:1025A00020684069C0434007DFD4002070BD2DE99A
:1025B000F0471E4690460D460446C1F30747DDF836
:1025C000209012E0701C10D02EB1FEF70DFCA0EB95
:1025D0000900B04209D9002044F8300F202161736E
:1025E000A07320730320BDE8F0872068012F0AD074
:1025F000806925EA00000004000C06D00021414556
:10260000E0D00020EFE74069F3E70121F7E70000A1
:102610002DE9F0479A4691460D46044600264FF0B4
:102620002008C1F307472AE020684069C0434005FD
:1026300012D42068016841F40071016021686FF4D0
:102640008060486104202064266384F83D8084F81B
:102650003C600120BDE8F087B9F1FF3F0FD0B9F130
:10266000000F05D0FEF7C0FBA0EB0A01494506D9D3
:1026700044F8306F84F80D8026730320EAE7206861
:10268000012F07D0D0F8180025EA00000004000C44
:10269000E0D0C9E74069F7E72DE9F0410025904611
:1026A0000E460446202721E04069C043C0060CD4F2
:1026B00021686FF0100048612564256384F83D703F
:1026C00084F83C500120BDE8F0812EB1FEF78CFB70
:1026D000A0EB0800B04209D954F8400F40F02000A8
:1026E00044F80409677025700320ECE7206841690D
:1026F000C9434906D8D40020E5E770B516460D4613
:1027000004461AE02046FFF75DFE08B1012070BDC7
:10271000681C12D025B1FEF767FB801BA8420CD9BC
:1027200054F8400F40F0200044F8100900202060C9
:10273000202161732073032070BD20684069C0436D
:102740000006DFD4002070BD154808B5416941F08E
:10275000010141614069002200F001000090114632
:102760000C20FEF7E5FE0C20FEF7D6FE00221146F7
:102770000D20FEF7DDFE0D20FEF7CEFE00221146F5
:102780000E20FEF7D5FE0E20FEF7C6FE00221146F3
:102790000F20FEF7CDFEBDE808400F20FEF7BCBEBF
:1027A000001002402DE9F043314885B0816941F0C5
:1027B00010018161816901F010010491816941F08A
:1027C00020018161816901F020010491816941F05A
:1027D00004018161816901F004010491816941F082
:1027E000080181618069DFF88C8000F008000490A6
:1027F000002220214046FEF7F1FADFF87C904FF4EA
:102800004047002239464846FEF7E8FA4FF40050A8
:1028100000901A480024CDE9010469461848FEF7E3
:10282000FBF9202001250226CDE90005CDE902466D
:1028300069464046FEF7F0F900970396CDE901544A
:1028400069464846FEF7E8F93020CDE900046946BC
:1028500048460294FEF7E0F9002211462820FEF7D0
:1028600067FE2820FEF758FE05B0BDE8F0830000A3
:102870000010024000080140000C0140000011104F
:10288000001001400E4810B50C4901600D4941602F
:1028900000214FF480428160C0E9031241618161EF
:1028A000C1610162FEF7A6FA002805D0BDE810401C
:1028B000422105A000F01CBD10BD000000580040E2
:1028C000B8000020A08601002E2E2F436F72652FC6
:1028D0005372632F6932632E6300000010B51648EF
:1028E00086B04FF080410024C0E900148460C460C9
:1028F00004618461FFF723F918B141210FA000F0B2
:10290000F7FC4FF48050009069460B48FFF75EF9E2
:1029100018B1472109A000F0EBFC049404A9064873
:102920000594FFF7E4F8002803D04E2103A000F03F
:10293000DFFC06B010BD00000C0100202E2E2F433E
:102940006F72652F5372632F74696D2E63000000E0
:1029500010B525488EB02349016040F2CF210024F4
:10296000C0E9011440F2CF71C0E903148461FFF79C
:10297000E6F818B161211DA000F0BAFC4FF48050B8
:10298000079007A91848FFF721F918B1672117A088
:1029900000F0AEFC1448FFF717FA18B16C2113A031
:1029A00000F0A6FC0B940BA90F480C94FFF79FF8BE
:1029B00018B173210DA000F09BFC6020CDE900044C
:1029C00002940C22694608480494FFF795F918B15F
:1029D0007C2106A000F08CFC0348FFF771F90EB0D3
:1029E00010BD0000000400404C0100202E2E2F439B
:1029F0006F72652F5372632F74696D2E6300000030
:102A000010B525488EB02349016040F2CF21002443
:102A1000C0E9011440F2CF71C0E903148461FFF7EB
:102A20008EF818B191211DA000F062FC4FF4805087
:102A3000079007A91848FFF7C9F818B1972117A000
:102A400000F056FC1448FFF7BFF918B19C2113A001
:102A500000F04EFC0B940BA90F480C94FFF747F8BD
:102A600018B1A3210DA000F043FC6020CDE90004C3
:102A700002940C22694608480494FFF73DF918B106
:102A8000AC2106A000F034FC0348FFF719F90EB0A2
:102A900010BD0000000800408C0100202E2E2F43A6
:102AA0006F72652F5372632F74696D2E630000007F
:102AB0000D4810B50B4901604FF4E1314160002130
:102AC00081600C22C160C0E904128161C161FFF71D
:102AD00065FA002805D0BDE810404C2103A000F0A5
:102AE00007BC10BD00380140940200202E2E2F4359
:102AF0006F72652F5372632F75736172742E63004A
:102B00000D4810B50B4901604FF4E13141600021DF
:102B100081600C22C160C0E904128161C161FFF7CC
:102B20003DFA002805D0BDE810405F2103A000F069
:102B3000DFBB10BD00440040D40200202E2E2F43E6
:102B40006F72652F5372632F75736172742E6300F9
:102B50000D4810B50B4901604FF41651416000213A
:102B600081600C22C160C0E904128161C161FFF77C
:102B700015FA002805D0BDE81040722103A000F02E
:102B8000B7BB10BD00480040140300202E2E2F4379
:102B90006F72652F5372632F75736172742E6300A9
:102BA0000907090E002806DA00F00F0000F1E02006
:102BB00080F8141D704700F1E02080F80014704781
:102BC00010B5FEF727FCBDE81040FEF78CBF30B50E
:102BD0008FB001204FF4A02100248DE81300049051
:102BE00002250004CDE907504FF4E0100990684633
:102BF000FEF7D6FD00B1FEE70F20CDE90A054FF440
:102C00008060CDE90C4002210AA80E94FEF7C2FCB8
:102C100000B1FEE7FEF768FD4FF47A71B0FBF1F00A
:102C2000FEF74DFF0420FEF73DFF00221146501E27
:102C3000FEF77EFC0FB030BD0D48016841F0010188
:102C4000016041680B4A1140416001680A4A114025
:102C50000160016821F480210160416821F4FE01D6
:102C600041604FF41F0181600449C0030860704750
:102C7000001002400000FFF8FFFFF6FE08ED00E044
:102C8000F0B50268164B174C174D4FF0804798422D
:102C900005D0B84203D0A04201D0A84203D122F00F
:102CA00070064A683243984205D0B84203D0A04229
:102CB00001D0A84203D122F44074CA68224322F012
:102CC00080044A69224302608A68C2620A6882629A
:102CD000984201D10969016301214161F0BD000001
:102CE000002C0140000400400008004010B5012302
:102CF000046A8B409C430462036A8A401343036264
:102D000010BD10B5846842EA032224F47F440A43CC
:102D10002243826010BD826822F070020A4342F0B2
:102D2000070181607047000030B5026A22F001029D
:102D30000262026A4368846924F073050C682C43BC
:102D400022F002058A682A430A4DA8420BD122F0DC
:102D50000805CA6823F440732A434D6922F004022F
:102D60001D438B692B434360846149684163026260
:102D700030BD0000002C014030B5026A22F0100284
:102D80000262026A436884690D6824F4E64444EAF6
:102D900005248D6822F0200242EA05120B4DA8425C
:102DA0000ED1CD6822F0800242EA05124D6923F46B
:102DB000406343EA85038D6922F0400243EA8503BC
:102DC0004360846149688163026230BD002C014028
:102DD00030B5026A22F480720262036A4268C469F2
:102DE00023F4007324F073050C682C438D6843EAC8
:102DF00005230C4DA8420ED1CD6823F4006343EAAD
:102E000005234D6922F4405242EA05128D6923F4EC
:102E1000806342EA05124260C4614968C16303628B
:102E200030BD0000002C014030B5026A22F480520F
:102E30000262046A4268C3690D6823F4E64343EA08
:102E400005238D6824F4005444EA0534064DA84255
:102E500004D14D6922F4804242EA85124260C36186
:102E600049680164046230BD002C014010B5036A5A
:102E7000046A24F001040462846924F0F00444EA42
:102E8000021423F00A020A438461026210BD10B5E5
:102E9000036A23F0100303628369046A23F4704316
:102EA00043EA023224F0A00343EA01118261016285
:102EB00010BD10B5406A0021C185C184FEF7E4FF52
:102EC00010BD70B5446A2068406994F83910C0F3A9
:102ED000C0100025212904D118B1E584204600F056
:102EE00062F82068406994F83A10C0F380102229F3
:102EF00004D118B1E585204600F047F8E06B40F0BA
:102F00001000E0632046FEF7BFFF70BD10B501461C
:102F1000406A09680968890613D40021C1850168DF
:102F2000CA6822F48072CA6001684A6922F001020C
:102F30004A6101684A6922F040024A61202180F812
:102F40003A10FFF79DF910BD10B5406AFFF799F9E7
:102F500010BD10B50146406A0968096889060CD49D
:102F60000021C18401684A6922F080024A61006838
:102F7000C16841F04001C16010BDFFF721FA10BDEA
:102F800010B5406AFFF71DFA10BD0168CA6822F447
:102F90009072CA6001684A6922F001024A612021E8
:102FA00080F83A1070470168CA6822F0C002CA600F
:102FB000202180F83910704710B590F83A10222976
:102FC00001D0022010BD8168B1F5805F11D0016988
:102FD000002901681FD0496801F07F03816A4A1CFB
:102FE00082620B70C18D491E0904090CC18518D07D
:102FF0002BE00269816A002A0268526805D0D2B2C9
:103000000A80816A491C8162ECE7C2F308020A80E7
:10301000816A891CF7E74A68816A4B1C83620A70DF
:10302000E0E70168CA6822F02002CA600168CA6845
:1030300022F48072CA6001684A6922F001024A6182
:10304000202180F83A10FFF71BF9002010BD000086
:103050002DE9F041044600680169E26821F440511D
:10306000114301612169A06808436169084321682F
:10307000CA6841F20C639A430243CA6020684169FE
:10308000A26921F44071114341614C4920686425D3
:10309000322688423CD1FEF73DFB00EBC00101EB3C
:1030A000001061688900B0FBF1F7FEF733FB00EB1D
:1030B000C00101EB00106168B0468900B0FBF1F07F
:1030C000B0FBF5F06FF01801484307EB800106EB09
:1030D0000110B0FBF5F000F0F006FEF71BFB00EB73
:1030E000C00101EB001061688900B0FBF1F0B0FB9A
:1030F000F5F006EB0016FEF70DFB00EBC00101EB4F
:10310000001061688900B0FBF1F7FEF703FB3BE0BC
:10311000FEF7F0FA00EBC00101EB001061688900D6
:10312000B0FBF1F7FEF7E6FA00EBC00101EB00108F
:103130006168B0468900B0FBF1F0B0FBF5F06FF0CC
:103140001801484307EB800106EB0110B0FBF5F0D6
:1031500000F0F006FEF7CEFA00EBC00101EB001024
:1031600061688900B0FBF1F0B0FBF5F006EB0016EA
:10317000FEF7C0FA00EBC00101EB001061688900A6
:10318000B0FBF1F7FEF7B6FA00EBC00101EB00105F
:1031900061688900B0FBF1F0B0FBF5F06FF0180149
:1031A000484307EB800108EB0110B0FBF5F0216804
:1031B00000F00F0030448860BDE8F0810038014025
:1031C00090F83910212901D0022070478168B1F5AB
:1031D000805F016A0BD04A1C026202680978516064
:1031E000C18C491E0904090CC1840ED017E009885E
:1031F0000268C1F30801516001690029016A02D027
:10320000491C0162ECE7891CFBE70168CA6822F0EF
:103210008002CA600068C16841F04001C1600020BE
:1032200070472DE9F041984617460E460446069D24
:103230001DE0681C1BD02DB1FDF7D6FDA0EB0800EA
:10324000A84214D92068C16821F4D071C1602068F7
:10325000416921F001014161202084F8390084F89E
:103260003A00002084F838000320BDE8F08120688F
:10327000006836EA000004D00020B842D9D000200F
:10328000F3E70120F9E7000008B50A48FEF7FEFD64
:10329000084800680168C1F30011002908D00168DE
:1032A000406800900348FEF7C3FD03490120087001
:1032B00008BD0000940200202400002008B50A4840
:1032C000FEF7E4FD084800680168C1F30011002919
:1032D00008D00168406800900348FEF7A9FD034943
:1032E0000120087008BD0000140300202500002004
:1032F000FEE700000FB4054B10B503A9044A02987D
:1033000000F042F910BC5DF814FB0000813E00089B
:1033100038000020490050EAC12018BF04204A0D9F
:1033200018BF40F0010040F2FF72B2EB515F08BFDE
:1033300040F00200012808BF052070472DE9F04148
:103340004F1E00EBC7010446D1E9000115461E4699
:1033500037F006020DD02A463346FCF79AFF7F1E4F
:1033600004EBC703D3E90023FCF7ECFE37F00602B9
:10337000F1D1022F25D0042F13D0062F18BFBDE89E
:10338000F0812A463346FCF784FFD4E90A23FCF790
:10339000D9FE2A463346FCF77CFFD4E90823FCF724
:1033A000D1FE2A463346FCF774FFD4E90623FCF726
:1033B000C9FE2A463346FCF76CFFD4E90423FCF728
:1033C000C1FE2A463346FCF764FFD4E90223FCF72A
:1033D000B9FE2A463346FCF75CFFD4E90023BDE87A
:1033E000F041FCF7AFBE0000024A00201107FDF7D4
:1033F00031B8000001FDFFFF02E008C8121F08C13C
:10340000002AFAD170477047002001E001C1121F65
:10341000002AFBD170470000014908607047000096
:103420003C0000202DE9FF5FDDE90220010DDDF801
:1034300038B0024318D044F61050A1F2FF31414396
:103440000D140F98012820D0A5EB0B00401C5FEA5B
:10345000000A4FF00004474EDFF81C91A04650468A
:1034600016D5CAF1000728E00F98012443A20128CD
:1034700008D0002100980F9BC0E90021C0E9024359
:10348000BDE8FF9F6FEA0B01F4E7CBF10000DEE738
:10349000074612E0F80707D0224633464046494621
:1034A000FCF7F7FE80468946224633461046194609
:1034B000FCF7EFFE04460E467F10002FEAD1DDE94F
:1034C0000201BAF1000F42464B4602DAFCF7E1FE78
:1034D00001E0FCF750FF04460E460022284BFDF7A2
:1034E00015F803D84FF0FF30014607E00022254BC6
:1034F00020463146FCF726FEFDF732F9102409E09C
:10350000002C0ADB0A220023FDF746F8019B30322B
:103510001A55641E50EA0102F2D1641C019AC4F1EA
:10352000110314440F9A012A03D0012208430DD13C
:103530000AE0084304D000204FF0110B0F9080E701
:10354000A3EB0B056D1E0DE05B4504DD4FF00002A3
:1035500005F1010504E003DA4FF00002A5F10105D1
:10356000002AECD000980F99C0E90231C0E900456B
:1035700086E70000000024400000F03F300000001B
:103580000000F0430000E03F2DE9FF4F95B09B465F
:103590008946064600250FE2252877D100242746D4
:1035A000F84A0121059400E0044316F8013F203B4E
:1035B00001FA03F01042F7D130782A2811D06FF0C9
:1035C0002F033078A0F13002092A16D8059A44F06A
:1035D000020402EB820203EB42021044761C0590C7
:1035E000EFE759F8042B0592002A03DA504244F41D
:1035F0000054059044F00204761C30782E2816D131
:1036000016F8010F44F004042A280DD06FF02F02A1
:103610003078A0F13003092B09D807EB870302EBC0
:103620004303C718761CF3E759F8047B761C3078FF
:103630006C280FD006DC4C2817D068280DD06A28DB
:1036400014D104E0742810D07A280FD10DE044F48E
:1036500000140AE044F4801401E044F44014727849
:10366000824202D104F58014761C761C30786628DC
:103670000BD013DC582877D009DC002875D04528FA
:10368000F6D04628F4D047281AD19DE118E06328E7
:1036900035D0642879D0652812D195E1702873D08F
:1036A00008DC6728F1D069286FD06E280DD06F280C
:1036B00006D1B5E073282CD0752875D0782874D041
:1036C0005A46179990476D1C75E1C4F302500228C1
:1036D00009D003280DD0D9F8001004280DD00D60B2
:1036E00009F1040967E1D9F80010EA17C1E90052AD
:1036F000F6E7D9F800100D80F2E70D70F0E719F841
:10370000041B8DF8001000208DF80100EA4601200E
:1037100003E059F804AB4FF0FF3061074FF00001B0
:1037200002D40DE008F101018846B9420FDA804564
:10373000F8DB1AF808100029F4D108E008F10101BB
:1037400088468142FADB1AF808100029F6D105985C
:103750005B46A0EB080721463846179A00F094FA1A
:10376000284400EB080507E04DE029E10DE01AF8D8
:10377000010B5A4617999047B8F10108F7D25B46FA
:1037800021463846179A13E142E00A220092C4F318
:1037900002524FF0000A022A08D059F804CB032A3B
:1037A0004FEAEC710AD00DE029E02AE009F10701A7
:1037B00021F00702F2E802C1914609E00FFA8CFC01
:1037C0004FEAEC71042A03D14FFA8CFC4FEAEC71FA
:1037D000002907DA0A460021DCF1000C61EB020146
:1037E0002D2202E0220504D52B228DF8042001228F
:1037F00003E0E20701D02022F7E7904659E00A21D2
:1038000002E010220DE010214FF0000A00910BE0C1
:1038100010224FF0000A44F004040827009203E04D
:1038200008224FF0000A0092C4F30252022A05D087
:1038300059F804CB0021032A08D009E009F1070157
:1038400021F00702F2E802C1914605E01FFA8CFC64
:10385000042A01D10CF0FF0C4FF00008220728D5F4
:10386000702806D0009B83F0100353EA0A0305D0AA
:103870000EE040228DF80420012208E05CEA0102FB
:1038800006D030228DF804208DF8050002229046E3
:10389000009B83F0080353EA0A030AD15CEA0102A1
:1038A00001D1620705D530228DF804204FF00108C0
:1038B0007F1E582804D034A003900EA802900DE07B
:1038C00036A0F9E753466046009AFCF765FE844649
:1038D0000398825C0298401E029002705CEA01002C
:1038E000F0D1029806A9081A00F1200A600702D553
:1038F00024F4803400E00127574502DDA7EB0A00DD
:1039000000E0002000EB0A01009005984144401AB5
:103910000590E00306D45B462146179A059800F00F
:10392000B3F90544002706E001A85A46C05D17997F
:1039300090476D1C7F1C4745F6DBE0030CD55B46CA
:103940002146179A059800F09FF9054404E03020BD
:103950005A46179990476D1C0099481E00900029FF
:10396000F5DC08E0029802995A460078491C029159
:10397000179990476D1CBAF10001AAF1010AF1DC18
:1039800065E1000009280100303132333435363723
:10399000383961626364656600000000303132339B
:1039A000343536373839414243444546000000003B
:1039B00000F058F90544761C307800287FF4ECAD0F
:1039C00019B02846BDE8F08F620700D4062709F138
:1039D000070222F0070CFCE80223E14603F000484E
:1039E0005FEA080C02D00FF2702C0DE05FEA045C75
:1039F00002D50FF2682C07E05FEAC47C02D00FF218
:103A0000602C01E0AFF2700C4FF0FF3823F0004360
:103A1000CDF850C065280CD006DC452809D04628D2
:103A20001DD047283DD13DE0662818D067287ED1BB
:103A300038E00021112F01DB112000E0781CCDE9D6
:103A4000000106A90EA8FFF7EDFCDDE90F010E9AB3
:103A500003910021009207F1010A04914DE04FF01B
:103A600000400097CDE9011006A90EA8FFF7DAFC87
:103A7000DDE90F0203920E9B11990022DDF80CA0E4
:103A80000093049211B9791C00EB010AB7EB0A000C
:103A900004D4C0F1FF3007F1010A0490AAEB07003B
:103AA000019044E0012F00DA01270021112F01DDF0
:103AB000112000E03846CDE9000106A90EA8FFF765
:103AC000B1FCDDE90F010E9A0391002104910092EF
:103AD000BA4621070CD40399514500DA8A46BAF157
:103AE000010F05DD009AAAF10101515C302908D0CF
:103AF000B84202DA10F1040F06DA0121CDE9011013
:103B000015E0AAF10101E9E7002805DC0499014468
:103B10000491AAEB000102E0411C514500DD8A46F8
:103B20000499401A401C01904FF000400290200779
:103B300004D40198504501DBCDF8048000208DF8B5
:103B40004F0002980DF14F07B0F1004F25D02B2008
:103B50000E9002984FF0020800280CDA40420290C2
:103B60002D200E9007E00A210298FCF7FFFC30316F
:103B7000029007F8011DB8F10001A8F10108F2DC7C
:103B800002980028EFD1791E0E980870307800F066
:103B9000200040F0450007F8020D12A8C01B00F1FC
:103BA00007081498007800B1012000EB0A01019881
:103BB00001EBE07105984144401A401E0590E00376
:103BC00006D45B462146179A059800F05DF8054437
:103BD0001498007818B15A46179990476D1CE00365
:103BE00024D55B462146179A059800F04DF8054408
:103BF0001CE00498002807DBDDE90301884203DDAF
:103C00000098405C179901E0179930205A46904778
:103C1000049805F10105401C04900198401E019094
:103C200004D12E205A46179990476D1CBAF1000115
:103C3000AAF1010ADDDC05E017F8010B5A461799D5
:103C400090476D1CB8F10001A8F10108F4DC5B4657
:103C50002146179A0598ABE62D0000002B000000C6
:103C6000200000002DE9F041044600251E461746BD
:103C7000880404D405E039462020B0476D1C641E3A
:103C8000F9D52846BDE8F0812DE9F041044600252C
:103C90001E469046C80301D5302700E0202788043F
:103CA00004D505E041463846B0476D1C641EF9D581
:103CB0002846BDE8F08100002DE9F05F8346B1FBA6
:103CC000FBF08A46FCF7EEFB00228946804613464D
:103CD000FCF71CFC2BD2404649460022514BFCF716
:103CE00001FC24D8404649464FF066324E4B00F066
:103CF000B9FC06460F465846FCF7D4FB0D46044671
:103D00004A4A4B4BFCF7C5FA32463B46FCF7C1FA30
:103D100007460E4620462946464A474BFCF7B9FA65
:103D20003A463346FCF7AFFAFCF704FC044640463B
:103D3000494600223B4BFCF7E9FB1DD24046494671
:103D40003E4A3F4BFCF7CEFB16D85046FCF7AAFB89
:103D5000364A3C4BFCF79DFA05460C465846FCF7A4
:103D6000A1FB394A394BFCF794FA2A462346FCF763
:103D70008AFAFCF7DFFB0446404649462F4A304B9F
:103D8000FCF7C4FB1DD240464946314A314BFCF793
:103D9000A9FB16D85046FCF785FB2F4A2F4BFCF7A2
:103DA00078FA05460C465846FCF77CFB2C4A2D4B0E
:103DB000FCF76FFA2A462346FCF765FAFCF7BAFBD4
:103DC000044640464946224A224BFCF79FFB1DD23F
:103DD00040464946244A254BFCF784FB16D85046FA
:103DE000FCF760FB224A234BFCF753FA05460C46CE
:103DF0005846FCF757FB204A204BFCF74AFA2A4664
:103E00002346FCF740FAFCF795FB0446404649463A
:103E1000154A164BFCF77AFB00D200242046BDE879
:103E2000F09F00000000E03F6666F63F5839B4C8D6
:103E300076BEAF3FC58F31772D219F3F85EB51B8BF
:103E40001E85E33F76BE9F3FC7BAB88D06F0963F0A
:103E50009A9999999999E93F4BC8073D9B558F3F8E
:103E60002D431CEBE2368A3FCDCCCCCCCCCCF43FFE
:103E7000D2FBC6D79E59523FB2632310AFEB573FD8
:103E800013B5FF23012269460248FEF7FBF90098AB
:103E90001CBD0000D4020020FDF7C4FAFEF797FE17
:103EA000FEF780FCFEF750FCFEF72AFEFEF700FE50
:103EB000FEF7A6FDFEF74CFDFEF7E4FCFEF748FE1C
:103EC000FEF70CFD01F040F925480068C16841F09B
:103ED0001001C160642223492148FEF785F9224878
:103EE0000068C16841F01001C16064221F491E488A
:103EF000FEF77AF9002332221946104600F012F933
:103F00001B4C1C4E00271C4D01F012F9A060FCF761
:103F1000D6FA02460B4619A0FFF7ECF96288218811
:103F20001DA06368FFF7E6F93078012806D100F09C
:103F30002DFB64220B490A48FEF756F92878012820
:103F4000E2D100F045F8142208490748FEF7F8F9D5
:103F50002F70642205490448FEF746F9D4E70000B3
:103F600094020020CC010020140300203002002025
:103F7000180000202400002025000020546865203F
:103F80006C756D696E6F757320666C7578206973DA
:103F9000202566200A0000006C6566745F737465F6
:103FA00070206973202564200A2072696768745F35
:103FB00073746570206973202564200A20626C7513
:103FC000655F6B6579206973202564200A00000015
:103FD000F8B50024474A25462046115C612902D0E5
:103FE0002C292FD047E011184B78632B43D18B78C5
:103FF000632B40D1CB782D2B15D003F00F040B7918
:1040000001272E2B37D003F00F0304EB84044979EA
:1040100003EB44042E292ED001F00F0104EB84039E
:1040200001EB430427E00B79002703F00F044B79E1
:104030002E2B20D003F00F0304EB840403EB440485
:104040008979E7E711184B782D2B3BD003F00F054A
:104050008B7801262E2B0ED0C97803F00F0305EBC9
:10406000850503EB45052E2905D001F00F0105EB71
:10407000850301EB4305401C1428AEDB3B462A4672
:1040800021461DA00096FFF735F905EB85004FF698
:10409000FF7101EA800002464FB1642C07D26142F1
:1040A00001EB81014FF4FA6202EB81018AB2642DC7
:1040B00001D900200246334601B01946BDE8F04060
:1040C00000F030B88B78002603F00F05CB782E2B4C
:1040D000D1D0097903F00F0305EB850503EB450506
:1040E0002E29C8D005EB850301EB430101F00F0534
:1040F000C1E7000030020020782069732025642C7D
:10410000792069732025642C785F64697220697353
:104110002025642C795F6469722069732025640A04
:10412000000000002DE9F05F8846064699461546D6
:104130000C213248FDF764FE0C213148FDF760FE8A
:10414000012220212F48FCF749FE2F4C0122022199
:104150002046FCF743FE4FF4004A00225146204619
:10416000FCF73CFE00224FF480412046FCF736FE6F
:104170004FF4007B012259462046FCF72FFE234FC7
:10418000B8F1000F4FF001024FF00201204608DDA8
:10419000FCF724FE002251462046FCF71FFE3E603D
:1041A0000CE0FCF71BFE012251462046FCF716FEF0
:1041B000C6F5FA6000EBD07040103860144EB9F1CB
:1041C000000F4FF001025946204609DDFCF706FEBC
:1041D000002231142046FCF701FE3560BDE8F09F57
:1041E000FCF7FCFD012291032046FCF7F7FDC5F525
:1041F000FA6000EBD07040103060EFE74C01002017
:104200008C01002000080140000C014040040040E7
:10421000400800402DE9F05F0446D64D4078DFF8B5
:1042200058A3D64FDFF858B305F118086FF00E0603
:1042300005F13009512804D0522827D053285AD1EB
:1042400061E0B4F90200FCF71CF93246FCF702F910
:104250000422FCF7FFF8C5E90001B4F90400FCF7FB
:1042600010F93246FCF7F6F80422FCF7F3F8C5E93A
:104270000201B4F90600FCF704F93246FCF7EAF84B
:104280000422FCF7E7F8C5E9040126E0B4F90200CE
:10429000FCF7F7F83246FCF7DDF800225346FBF74F
:1042A000F8FFC8E90001B4F90400FCF7EAF8324667
:1042B000FCF7D0F800225346FBF7EBFFC8E90201F8
:1042C000B4F90600FCF7DDF83246FCF7C3F800222B
:1042D0005346FBF7DEFFC8E90401B4F90800FCF718
:1042E000D0F80022A74BFCF746F80022A64BFBF7BC
:1042F00029FFC7E90001207B51282CD052284FD03C
:1043000053287CD1C6E0B4F90200FCF7BAF8324673
:10431000FCF7A0F800225B46FBF7BBFFC9E90001F0
:10432000B4F90400FCF7ADF83246FCF793F800222C
:104330005B46FBF7AEFFC9E90201B4F90600FCF7E2
:10434000A0F83246FCF786F800225B46FBF7A1FF97
:10435000C9E90401C1E734F90D0FFCF792F83246C0
:10436000FCF778F80422FCF775F8C5E90001B4F908
:104370000200FCF786F83246FCF76CF80422FCF7E2
:1043800069F8C5E90201B4F90400FCF77AF832468D
:10439000FCF760F80422FCF75DF8C5E9040126E0AB
:1043A00034F90D0FFCF76DF83246FCF753F8002294
:1043B0005346FBF76EFFC8E90001B4F90200FCF7B1
:1043C00060F83246FCF746F800225346FBF761FFDF
:1043D000C8E90201B4F90400FCF753F83246FCF7CF
:1043E00039F800225346FBF754FFC8E90401B4F939
:1043F00006000D3CFCF745F80022624B00E007E0A8
:10440000FBF7B9FF0022604BFBF79CFEC7E90001F8
:10441000E07D512866D052287DD0532838D1B4F998
:104420001800FCF72EF8B0463246FCF713F80022CD
:104430005E465B46FBF72DFF4D46C5E90001B4F92A
:104440001A00FCF71EF84246FCF704F80022334637
:10445000FBF71FFFC5E90201B4F91C00FCF711F8D6
:104460004FEA0802FBF7F6FF00223346FBF711FF85
:10447000C5E90401B4F91E00FCF703F80022414B22
:10448000FBF779FF0022404BFBF75CFEC7E9000118
:10449000BDE8F09F34F90D0FFBF7F3FF3246FBF751
:1044A000D9FF00225B46FBF7F4FEC9E90001B4F92D
:1044B0000200FBF7E6FF3246FBF7CCFF00225B462B
:1044C000FBF7E7FEC9E90201B4F90400FBF7D9FFE5
:1044D0003246FBF7BFFF00225B46FBF7DAFEC9E975
:1044E000040184E7B4F91800FBF7CBFF3246FBF771
:1044F000B1FF0422FBF7AEFFC5E90001B4F91A00D1
:10450000FBF7BFFF3246FBF7A5FF0422FBF7A2FF34
:10451000C5E9020100E00AE0B4F91C00FBF7B1FFB5
:104520003246FBF797FF0422FBF794FFA0E7B4F9AC
:104530001800FBF7A6FFB1463246FBF78BFF0022BF
:1045400056465346FBF7A5FE4546C5E90001B4F9BA
:104550001A00FBF796FF4A46FBF77CFF0022334622
:10456000FBF797FEC5E90201B4F91C00FBF789FFD0
:104570004A4677E77000002000409F40000000207E
:1045800000806640004075400020424000B587B082
:104590001A48FFF73FFE1A48D0E90412CDE902128B
:1045A000D0E90212CDE90012D0E9002315A0FEF7F0
:1045B000A1FE13481830D0E90412CDE90212D0E967
:1045C0000212CDE90012D0E9002315A0FEF792FEF9
:1045D0001A49D1E90001CDE9040109483030D0E998
:1045E0000412CDE90212D0E90212CDE90012D0E99D
:1045F000002313A0FEF77EFE07B000BDCC01002013
:104600007000002061203D2025342E3366092534BA
:104610002E33660925342E3366090D0A000000008A
:1046200077203D2025342E33660925342E33660944
:1046300025342E3366090D0A00000000000000201A
:10464000416E676C65203D2025342E326609253485
:104650002E32660925342E326609543D25342E3219
:10466000660D0A002DE9F04D16460F46054602007C
:1046700094B01C4621F0004123F0004014BF4FF0DD
:10468000010C4FF0000C0CEB470CFE4B0CEB03083D
:104690004FEA630CE0452DD35FEA060818BF4FF0E0
:1046A000010808EB44089844F74B984522D3F74B90
:1046B00050EA060C02D09F4205D14AB914B000203E
:1046C0001946BDE8F08D002A08BF4FF0000C01D05C
:1046D0004FF0010C0CEB470313F5001F0AD8002E16
:1046E00014BF4FF0010C4FF0000C0CEB440313F51A
:1046F000001F08D914B03246234628463946BDE883
:10470000F04DFBF71FBDDFF888B34FF0000A002F14
:10471000B8BF584523DADF4B9842A8BF4FF0020AD2
:104720001DDADA4B83421ADCDB4B03EB2053142BEC
:1047300008DDC3F1340C26FA0CF303FA0CFCB44583
:104740000DD108E05EB9C3F1140C20FA0CF303FAA2
:104750000CFC844503D103F00103C3F1020A51EAC2
:10476000020321D1002C1FDA002F18BFBAF1020F6B
:1047700002D0BAF1010F0BD00220FEF74DFE14B0AB
:104780000022BDE8F04D13461046C049FBF7F3BDCB
:104790000220FEF741FE14B02A463B46BDE8F04D2C
:1047A0000020BA49FBF7E7BD33006DD1584525D14C
:1047B00007F1804010F5801001BF002A0020B349A6
:1047C00014B008BFBDE8F08DB048884207DC002C6B
:1047D000A1BF1846214614B0BDE8F08D07E0002CBB
:1047E000BFBF184684F0004114B0BDE8F08DAB495E
:1047F0007944D1E9000114B0BDE8F08DDFF88CC236
:10480000604526D1002C1FDA19B1594513D1DAB908
:104810000AE0002A40F0DA829D4A394614B00020AE
:1048200062F31E01BDE8F08D0020394614B060F33C
:104830001E01BDE8F08D07DA14B03B46BDE8F04D2F
:1048400000206146FBF797BD14B010463946BDE81D
:10485000F08D594518DAB4F1804F0DD0A4F1005312
:10486000B3F1FF5310D13B1E0EDB14B01046BDE870
:10487000F04D194600F0E6BB3B4614B01046BDE8CB
:10488000F04D1946FBF705BD27F00043A2BBE1B18F
:10489000594538D1002F06DD002CA1BF0020594614
:1048A00014B0BDE8F08D002F01DD002C1FDB002FC0
:1048B00016DA002C14DBBAF1010F4FF0000014BF20
:1048C0007349774914B0BDE8F08DBAF1020F18BFF3
:1048D000002F0CD0BAF1010F09D1002F07DA0CE03C
:1048E000002FB8BF002C0EDABAF1010F05D000205E
:1048F00014B00146BDE8F08D05E014B000204FF083
:104900000041BDE8F08D4FF0010C0CEBE7720D9209
:1049100052EA0A020BD0634A90427DDD624B634A41
:10492000984216DD8A420EDB002C1CDB2CE00120B5
:10493000FEF772FD14B00022BDE8F04D134610469C
:104940001146FBF718BD5148884202DC002C0ADCF6
:104950001AE0914202DA002C16DA04E04B4B99423D
:104960001EDD002C10DD0220FEF756FD40F2013264
:1049700000204FF0E041FBF76DFD454A14B061F3B4
:104980001E021146BDE8F08D0220FEF745FDFEF740
:104990002BFD3E4A14B061F31E021146BDE8F08DB6
:1049A000002228463946FBF76EFC054688466FF024
:1049B0000102FBF74FFD4FF055323D4BFBF766FC14
:1049C0002A464346FBF765FC00223A4BFBF75EFCA8
:1049D00007468B462A46434610461946FBF759FCC4
:1049E0003A465B46FBF755FC09910C904FF0C042EC
:1049F000314B28464146FBF74CFC07468B462F4A75
:104A00002D4B09990C98FBF744FCCDE901102C4A79
:104A10002C4B2846414600E019E0FBF73AFCDDE963
:104A20000132FBF730FC3A465B4605910890FBF7F4
:104A300089FB002588463A465B462846FBF723FC5F
:104A4000059B089AFBF722FC024600F076B900208D
:104A5000B1F5801F07DA352228461946FBF7FAFC24
:104A600005466FF0340000EB2150A0F2FF300190BA
:104A7000C1F3130040F07F6141F0405102911249AF
:104A8000884223E0FFFF1F00FFFF0F000000F03F00
:104A90000000F07F0000404301FCFFFFFC0A000023
:104AA0000000F0FF0000E0410000F043FFFFEF3F97
:104AB0005555D53F0000E03F4715F73FFE822B6577
:104AC00044DF5DF80BAE543E8E980300D8BF4FF024
:104AD000000B0EDDFE498142C8BF4FF0010B08DC20
:104AE00001984FF0000B401C01900298A0F5801037
:104AF0000290F8480299784400EBCB000B9110909B
:104B0000D0E900232846FBF7BEFB009010980791E0
:104B1000D0E9002328460B99FBF714FB02460B460D
:104B20000020ED49FBF727FC05910B460246089053
:104B300007990098FBF7ADFB0690E84888460027E8
:104B40007844029900680E904FF0005040EA6100EE
:104B500000EB8B4000F5002110980291D0E9002372
:104B60000E98FBF790FB2A460B9BFBF78FFB3A4610
:104B70004346FBF78EFB05460B9138464146029BA8
:104B80000E9AFBF786FB079B009AFBF77FFB2A46F2
:104B90000B9BFBF778FB059B089AFBF77AFB0B91C5
:104BA0001090069A434610461946FBF772FB0546DD
:104BB0000246CB480B46009106217844FEF7BEFB27
:104BC000009B2A460291089010461946FBF761FBAC
:104BD000029B089AFBF75DFB054605914346384664
:104BE0001946069AFBF7AEFA0B9B109AFBF751FB9E
:104BF0002A46059BFBF7A6FA3A46434605910890DC
:104C000010461946FBF745FB0022B64B00910C906D
:104C1000FBF798FA059B089AFBF794FA0D463A467B
:104C2000B04B3846FBF72FFB009B0C9AFBF72BFB96
:104C3000059B089AFBF72AFB11913A460C902B46EC
:104C400010464146FBF725FB079100904346069A24
:104C500011990C98FBF71DFB804603912B463A46B1
:104C60000B991098FBF715FB4246039BFBF76AFA7A
:104C7000059180460B46024607990098FBF762FAB9
:104C800000200F460546079B009AFBF7FCFA4246B8
:104C9000059BFBF7FBFA804609914FF06042924B6F
:104CA00028463946FBF7F5FA009102908F4A8E4B61
:104CB00040460999FBF7EDFA804603918C4A8D4BEB
:104CC00028463946FBF7E5FA4246039BFBF73AFADA
:104CD000894A7A4402EBCB03D3E90023FBF732FA8B
:104CE000069003910198FBF7CCFB0746DDE9020330
:104CF0000591069A0099FBF725FA804A7A4402EB5F
:104D0000CB0BDBE90023FBF71DFA3A46059BFBF7CB
:104D100019FA002588463A462846059BFBF7B3FA60
:104D2000DBE90023FBF7AFFA009B029AFBF7ABFA33
:104D3000039B069AFBF7AAFA0246002006900D98FC
:104D4000654FAAF10103184301D16D4F0690002071
:104D50000B46009030462146FBF79BFA82468B4675
:104D6000234630461946009AFBF78DFA2A464346F9
:104D7000FBF78FFA52465B46FBF7E4F906468A4694
:104D80002A46434621460098FBF783FA04460D461F
:104D900032465346FBF7D6F95A4A8B46914226DBF8
:104DA000ABEB020353EA000210D122462B46FBF77D
:104DB0006AFA80460591544A544B30465146FBF7F7
:104DC000C1F94246059BFBF7A1FB30D20220FEF75A
:104DD00023FB40F2013200204FF0E041FBF73AFBA9
:104DE0000A46394614B062F31E01BDE8F08D484B07
:104DF0002BF000429A421AD3464A0BEB020353EAC5
:104E0000000208D122462B46FBF73DFA32465346B4
:104E1000FBF77CFB0BD80220FEF7FEFAFEF7E4FA64
:104E20000A46394614B062F31E01BDE8F08D2BF03E
:104E300000403949394A01EB20514FF000088242C5
:104E400023DA481C4FF4801121FA00F05844344A08
:104E5000C0F30A517A44334BA1F2FF31CB4020EA30
:104E60000303C0F3130040F4801CC1F11400126866
:104E70002CFA00F8BBF1000FB8BFC8F100082046BB
:104E80002946FBF700FA04460D4622462B463046DB
:104E90005146FBF757F94FF0000B5A46224B584644
:104EA0000591FBF7F6F900900791204A204B5846F0
:104EB0000599FBF7EEF90491029022462B465846DD
:104EC0000599FBF7E0F932465346FBF7DFF931E08D
:104ED0007AB60B006E0700000000F03FAC07000040
:104EE000DA0600000000084009C7EE3FFD033ADC87
:104EF000F5015B14E02F3EBEB2050000780500000E
:104F00000000F0BF00009040FE822B654715973CE3
:104F100000CC904000346F3F01FCFFFF0000E03FF9
:104F200098040000FFFF0F00432EE63F396CA80CE9
:104F3000615C20BE3F4A404BFBF7ABF9049B029AF1
:104F4000FBF700F906468A46079B009AFBF7FAF83A
:104F500004460D46079B009AFBF795F932465346E7
:104F6000FBF794F9064622462B460991104619464E
:104F7000FBF78FF98346024630488A460B460521E7
:104F80007844FEF7DBF95A465346FBF782F922468E
:104F90002B46FBF77BF982468B4632462046294654
:104FA000099BFBF776F93246099BFBF7CBF8059195
:104FB000089000224FF0804350465946FBF763F9B2
:104FC0000646009152465B4620462946FBF761F9AA
:104FD0003246009BFBF7CFF9059B089AFBF753F984
:104FE00022462B46FBF74FF90022154BFBF74EF9F3
:104FF0000D46044601EB08510815002810DC424616
:1050000020462946FBF726FAFEF784F9042808BF54
:10501000FEF7EAF9424620462946FBF71BFA04460A
:1050200006980B4614B022463946BDE8F04DFBF712
:1050300030B90000EF39FAFE422EE63F440300008B
:105040000000F03F2DE9F04106460F46FBF7B2FBAA
:1050500004000D4618BF0120284320F00040C0F195
:105060007F6000F1E040C00F0ED0301C18BF01205F
:10507000384320F00040C0F17F6000F1E040C00FF5
:1050800004BF0120FEF7C8F920462946BDE8F0819B
:1050900038B525498C20FF2408700A460123722167
:1050A00022480094FCF7F8F81F4A0123121F7221CE
:1050B0001E480094FBF7E8FF01231B4A72211B489E
:1050C0000094FCF7E9F8184D01232D1F6A1C72218A
:1050D00016480094FBF7D8FF01232A1D72211348BC
:1050E0000094FCF7D9F80123AA1C72210F48009400
:1050F000FBF7CAFF01232A1D72210C480094FCF71C
:10510000CBF80123EA1C722108480094FBF7BCFF8E
:105110002878697800EB0121281F0180A978EA78B6
:1051200001EB0221418038BD10000020B8000020B2
:1051300010B5FFF7ADFF034841880088BDE8104077
:10514000FEF7BABD0800002038B5FF231A467221C9
:105150001B48FBF7E9FE00282BD01AA0FEF7CAF87F
:105160001E4C8020FF252070032060700223224601
:10517000722113480095FCF78FF8E0B118A000BF2A
:10518000FEF7B8F86420FBF727FD8120207010207F
:1051900060700223114A722109480095FCF77CF8DF
:1051A00058B114A0FEF7A6F8BDE838400A20FBF776
:1051B00013BD15A0D2E718A0E2E71EA0F2E7000099
:1051C000B8000020646976696365206973206E6F9A
:1051D000742072656164790A0000000010000020EC
:1051E000636D6420312073656E64206572726F7226
:1051F0000A000000636D6420322073656E642065D0
:1052000072726F720A0000006465766963652069D6
:1052100073206F6B0A000000636D6420706F776508
:10522000722073656E64207375636365737366754E
:105230006C0A0000636D642074696D65207375638A
:105240006365737366756C0A00000000000000005F
:105250000000000001020304060708090000000026
:105260000102030400000000000000000000F03F05
:10527000000000000000F83F0000000000000000F7
:105280000000004003B8E23F000000000000000002
:1052900006D0CF43EBFD4C3E033333333333E33F90
:1052A000FFAB6FDBB66DDB3F4D268F515555D53FBC
:1052B00001411DA96074D13F65DBC9934A86CD3F8A
:1052C000EF4E454A287ECA3F3E5555555555C53F78
:1052D00093BDBE166CC166BF2CDE25AF6A56113F6A
:1052E000F16BD2C541BDBBBED0A4BE726937663E6C
:1052F000000000000000000018530008000000201B
:1053000040000000F8330008585300084000002017
:105310002808000008340008000000000000000019
:1053200000000000990000000000000000000000E4
:10533000000000000000000000000000000000006D
:1053400001000000100000000000000000A24A045C
:08535000000000000000000055
:04000005080000ED02
:00000001FF
