:020000040800F2
:10000000D804002001010008090100080B010008C4
:100010000D0100080F010008110100080000000098
:1000200000000000000000000000000013010008B4
:10003000150100080000000017010008D910000891
:100040001B0100081B0100081B0100081B01000820
:100050001B0100081B0100081B0100081B01000810
:100060001B0100081B0100081B0100081B01000800
:100070001B0100081B0100081B0100081B010008F0
:100080001B0100081B0100081B0100081B010008E0
:100090001B0100081B0100081B0100081B010008D0
:1000A0001B0100081B0100081B0100081B010008C0
:1000B0001B0100081B0100081B0100081B010008B0
:1000C0001B0100081B0100081B0100081B010008A0
:1000D0001B0100081B0100081B0100081B01000890
:1000E000490100081B0100081B010008DFF80CD0C3
:1000F00000F018F80048004709160008D80400204E
:100100000648804706480047FEE7FEE7FEE7FEE7B1
:10011000FEE7FEE7FEE7FEE7FEE7FEE75111000817
:10012000ED000008064C074D06E0E06840F00103D2
:1001300094E8070098471034AC42F6D3FFF7DAFF93
:10014000E81600080817000810B54FF4005000F03A
:1001500023F84FF44041044800F008F9BDE810408E
:100160002021024800F002B9000C014000080140C3
:1001700070B5044600F004F90546601C02D004483E
:100180000078044400F0FCF8401BA042FAD370BD94
:100190000000002070470000044910B50A680242C0
:1001A00002D00860FFF7F6FF10BD00001404014004
:1001B0002DE9F84FDFF890A100220AF1040B144654
:1001C00001274FF00F090BF1040E00BF0B6807FA6F
:1001D00004F52B40AB4274D1DFF870C14E68A6EB3A
:1001E0000C0866452BD00DDC032E34D005DC36B36D
:1001F000012E19D0022E2FD11BE0112E16D0122E57
:100200002AD119E0B8F5881F19D006DCB8F5803F6F
:1002100015D0B8F5801F1FD111E0B8F5001F0ED022
:10022000B8F5041F18D10AE0CA6815E0CA68121DA3
:1002300012E0CA6808320FE0CA680C320CE08A6823
:100240002AB1012A4FF0080203D0456104E00422DC
:1002500002E0056100E00022FF2B01D8064601E024
:1002600000F104064FEA840501D9A5F12005D6F86E
:1002700000C009FA05F82CEA080C02FA05F54CEA68
:10028000050CC6F800C04D68ED0057D5304DAE697D
:1002900046F00106AE61AD6924F0030605F00105E4
:1002A00000952C4D06EB050CDCF80850A6074FEA2C
:1002B000167809FA08F6B543274EB04202D1002657
:1002C00010E03BE0254EB04201D101260AE0244E69
:1002D000B04201D1022605E0224EB04201D10326F0
:1002E00000E0042606FA08F62E43CCF808604D68B4
:1002F000DAF80060ED03554601D51E4300E09E4349
:100300002E604D68DBF80060AD035D4601D51E43ED
:1003100000E09E432E604D68DEF80060ED027546F9
:1003200001D51E4300E09E432E604D68AD020E4D88
:100330002E6801D51E4300E09E432E60641C102CE5
:10034000FFF444AFBDE8F88F000401400000111035
:10035000001002400000014000080140000C014074
:1003600000100140001401400C040140C2684A40E2
:10037000C26070470AB1016170470904FBE70000E1
:100380000148806870470000000000200248816832
:10039000027811448160704700000020074810B5C2
:1003A000016841F010010160032000F09DF8002079
:1003B00000F006F800F024F8002010BD00200240F4
:1003C00070B50D4D04464FF47A712878B1FBF0F00A
:1003D0000A490968B1FBF0F000F02DFB48B9102C78
:1003E00007D200222146501E00F05EF800206C600B
:1003F00070BD012070BD0000000000200C00002036
:10040000214808B5816941F001018161816901F0EC
:1004100001010091C16941F08051C161C06900F0E2
:1004200080500090032000F05FF8002211466FF02A
:100430000B0000F039F8002211466FF00A0000F0BE
:1004400033F8002211466FF0090000F02DF8002269
:100450001146501F00F028F800221146101F00F02E
:1004600023F800221146901E00F01EF800221146CB
:10047000501E00F019F80548416821F0E06141F094
:100480000071416008BD0000001002400000014002
:1004900000F01F02012191404009800000F1E0209E
:1004A000C0F8001170470000F0B40E4B1B680C46FA
:1004B000C3F30223C3F10705042D00D90425191D38
:1004C000072901D2002300E0DB1E012606FA05F110
:1004D000491E214099409E40761E16403143F0BC93
:1004E00000F0EABD0CED00E0064900F007020868E4
:1004F0004FF6FF03184040EA0220034A1043086009
:10050000704700000CED00E00000FA052DE9F0470F
:10051000DFF83C8105460E46D8F8000000F00700E1
:10052000B0420CD2D8F8001021F007013143C8F8CE
:100530000010D8F8000000F00700B04263D128781E
:10054000444C800705D56068A96820F0F000084396
:1005500060602878C00745D06868012816D02168F7
:10056000022816D0890700294DDA616821F00301BD
:1005700001436160FFF704FF6968074641F2883074
:1005800001290FD00229814619D027E0216889036B
:10059000E9E78901E7E700BFFFF7F2FEC11B494524
:1005A00001D918E081466068C0F381000128F3D1C9
:1005B00018E000BFFFF7E4FEC11B49450BD8606897
:1005C000C0F381000228F5D10CE000BFFFF7D8FE90
:1005D000C11B494502D90320BDE8F087606810F0CF
:1005E0000C0FF3D1D8F80010404601F00701B142DA
:1005F0000BD9016821F0070131430160006800F068
:100600000700B04201D00120E6E72878400705D571
:100610006068E96820F4E0600843606028780007BB
:1006200006D56068296920F4605040EAC100606026
:1006300000F03CF86168084AC1F30311515CC840FE
:10064000064908600020FFF7BBFE0020C4E7000059
:100650000020024000100240D01600080C000020CC
:1006600001480068704700000C000020044805495C
:1006700000684968044AC1F30221515CC8407047D0
:100680000C00002000100240E01600080448054954
:1006900000684968044AC1F3C221515CC8407047F0
:1006A0000C00002000100240E016000812A185B0E6
:1006B0000FC98DE80F0014A0144A00680490516817
:1006C000134801F00C03042B10D0082B0ED1C1F3FA
:1006D0008343C9031DF803000AD5516804AAC1F376
:1006E0004041515C0A4A5043B0FBF1F005B07047FD
:1006F00008494843FAE70000020304050607080911
:100700000A0B0C0D0E0F1010010200000010024029
:1007100000127A0000093D002DE9F84F04460078E8
:10072000B94DC00748D06868C0F38100012807D0E0
:100730006868C0F38100022809D16868C00306D543
:100740002868800338D5606800286FD034E060687E
:10075000B0F5803F0BD010B1B0F5A02F11D02868B4
:1007600020F480302860286820F4802002E0286887
:1007700040F480302860606888B1FFF701FE0646CB
:1007800009E0286840F480202860F0E7FFF7F8FDD2
:10079000801B642875D828688003F7D50CE0FFF724
:1007A000EFFD064605E000BFFFF7EAFD801B642869
:1007B000F0D828688003F7D42078944E80074FF053
:1007C00001094FF000083BD5686810F00C0F07D006
:1007D0006868C0F38100022809D16868C00306D4A4
:1007E0002868800714D5206901281FD110E02069EE
:1007F000B0B1C6F80090FFF7C3FD074605E000BFA3
:10080000FFF7BEFDC01B0228C4D828688007F7D5B3
:100810002868616920F0F80040EAC10028600FE014
:10082000C6F80080FFF7ACFD074606E0E9E000BF30
:10083000FFF7A6FDC01B022823D828688007F7D43D
:10084000207800072CD57248A169D9B1C0F8009072
:10085000FFF796FD074604E0FFF792FDC01B022854
:100860000FD8686A8007F7D56A484FF4FA510068D4
:10087000B0FBF1F0009000BF0098411E0091FAD249
:100880000EE080E0C0F80080FFF77AFD074604E044
:10089000FFF776FDC01B022875D8686A8007F7D479
:1008A0002078400760D5E8690027C00008D4E869CF
:1008B00040F08050E861E869012700F08050009026
:1008C00055480168C90513D40168834641F4807115
:1008D0000160FFF755FD824606E000BFFFF750FDBF
:1008E000A0EB0A0064284ED8DBF80000C005F5D55F
:1008F000E06801280AD008B1052813D0286A20F042
:1009000001002862286A20F0040002E0286A40F012
:1009100001002862E06841F2883B98B1FFF730FDA2
:1009200082460BE0286A40F004002862EEE700BF30
:10093000FFF726FDA0EB0A0159455AD8286A80071F
:10094000F6D50CE0FFF71CFD824605E0FFF718FD29
:10095000A0EB0A0159454CD8286A8007F6D41FB18C
:10096000E86920F08050E861E06988B36968C1F304
:100970008101022945D00228C6F8608004D0FFF723
:10098000FFFC044638E034E0FFF7FAFC074604E0D9
:10099000FFF7F6FCC01B02282BD828688001F7D48B
:1009A000206AB0F5803F05D16868A16820F4003066
:1009B00008436860D4E908010843696821F47411A8
:1009C00008436860C6F86090FFF7DAFC044606E06A
:1009D00015E000BFFFF7D4FC001B022809D82868E7
:1009E0008001F7D50BE000BFFFF7CAFC001B02280F
:1009F00002D90320BDE8F88F28688001F4D40020D4
:100A0000F8E70120F6E70000001002400000424233
:100A1000800442420C000020007000404FF0E021B2
:100A20000428086903D020F004000861704740F0F2
:100A30000400FAE7704710B5401EB0F1807F01D383
:100A4000012010BD4FF0E02460610F21601700F01D
:100A500033FB0020A06107202061002010BD10B5ED
:100A6000FFF7E8FF10BD30B590F83C20012A20D0F8
:100A7000012280F83C20022380F83D3003685C6846
:100A800024F070045C6003685C680D682C435C6053
:100A900003689C6824F080049C6003689C68496833
:100AA0000C439C6080F83D20002180F83C100846F3
:100AB00030BD022030BD10B5040003D094F83D00D5
:100AC00010B107E0012010BD002084F83C00204652
:100AD00000F00CF8022084F83D00211D206800F091
:100AE0005BFB012084F83D00002010BD08B50C4AD6
:100AF00001680C48914207D1C16941F00201C1610E
:100B0000C06900F0020009E0074A914207D1C169BB
:100B100041F00401C161C06900F00400009008BD0B
:100B200000040040001002400008004070B5044678
:100B300090F83C00012817D0012584F83C50022091
:100B400084F83D002068826822F0770222F47F4218
:100B500082600868502837D00DDC202859D005DC89
:100B600088B3102841D151E0022070BD302853D005
:100B700040283AD13FE060282ED070280BD0B0F545
:100B8000805F03D0B0F5005F2FD110E0206881684E
:100B900021F0070115E0CB68D1E90121206800F0C0
:100BA0003CFB2168886840F0770088601DE0CB68D6
:100BB000D1E90121206800F030FB2068816841F410
:100BC0008041816011E01EE0CA684968206800F039
:100BD000D9FB5021206806E0CA684968206800F007
:100BE000E2FB6021206800F022FB84F83D500020E9
:100BF00084F83C0070BDCA684968206800F0C2FBF8
:100C000040212068EFE700212068ECE710212068F0
:100C1000E9E720212068E6E730212068E3E70000CB
:100C20001FB50A4B0268022109489A4203D100917C
:100C30000191032105E0074B9A4206D15215CDE9F7
:100C4000002103916946FFF7B3FA1FBD000400407D
:100C5000000C01400008004070B5044690F83C00CC
:100C60000D4601280DD0012684F83C60022084F84E
:100C70003D0042B1042A18D0082A2AD00C2A4DD1AE
:100C800039E0022070BD206800F0DAFA206881693E
:100C900041F0080181612068816921F004018161CE
:100CA000206881692A69114311E0206800F0F0FA98
:100CB0002068816941F4006181612068816921F4C3
:100CC00080618161206881692A6941EA022181612C
:100CD00024E0206800F008FB2068C16941F00801A9
:100CE000C1612068C16921F00401C1612068C16946
:100CF0002A69114311E0206800F022FB2068C169D5
:100D000041F40061C1612068C16921F48061C16161
:100D10002068C1692A6941EA0221C16184F83D6005
:100D2000002084F83C0070BD10B5040003D094F896
:100D30003D0010B107E0012010BD002084F83C0008
:100D4000204600F00CF8022084F83D00211D2068A8
:100D500000F022FA012084F83D00002010BD704709
:100D600010B504460068012200F04CFA07492068DB
:100D7000884203D1416C41F400414164206801681C
:100D800041F001010160002010BD0000002C014075
:100D900070B5040004D094F83900002510B106E0C5
:100DA000012070BD84F83850204600F023F824203C
:100DB00084F839002068C16821F40051C1602046E0
:100DC00000F004FB2068016921F490410161206872
:100DD000416921F02A0141612068C16841F4005154
:100DE000C160E563202084F8390084F83A000020CF
:100DF00070BD000000B500680B4985B0884211D174
:100E00000A48C16941F40031C161C069694600F412
:100E1000003004900C2000900220019003900448C0
:100E2000FFF7C6F905B000BD0044004000100240C5
:100E3000000801402DE9F843044690F839001F46A8
:100E400016460D46202850D1A5B19EB194F8380021
:100E500001284AD0012084F838004FF00008C4F877
:100E60003C80212084F83900FFF78AFAA684814665
:100E7000E68426E00120BDE8F883E08C401EE08493
:100E8000A0684B46B0F5805F4FF000024FF0800144
:100E90002046009703D000F051FBE8B90DE000F0C8
:100EA0004DFBC8B928882168C0F308004860206954
:100EB00008B16D1C05E0AD1C03E0216815F8010BBD
:100EC0004860E08C0028D8D14B46002240212046C3
:100ED000009700F033FB08B10320CCE7202084F812
:100EE000390084F838800020C5E70220C3E70000FD
:100EF0002DE9F0432D4885B0816941F010018161F1
:100F0000816901F010010491816941F02001816142
:100F1000816901F020010491816941F0040181613E
:100F2000816901F004010491816941F00801816146
:100F30008069DFF87C8000F0080004900022202106
:100F40004046FFF717FADFF86C904FF44047002255
:100F500039464846FFF70EFA4FF400500090164805
:100F60000024CDE9010469461448FFF721F9202047
:100F700001250226CDE90005CDE902466946404635
:100F8000FFF716F900970396CDE9015469464846E4
:100F9000FFF70EF9002211462820FFF785FA2820D6
:100FA000FFF776FA05B0BDE8F083000000100240BC
:100FB00000080140000C0140000011100010014029
:100FC00010B51D488EB01B49016040F2CF210024AE
:100FD000C0E9011440F2CF71C0E903148461FFF746
:100FE0006AFD00B1FEE74FF48050079007A9124850
:100FF000FFF79CFD00B1FEE70F48FFF795FE00B13B
:10100000FEE70B940BA90C480C94FFF72CFD00B1E4
:10101000FEE76020CDE9000402940C2269460648F0
:101020000494FFF719FE00B1FEE70348FFF7F8FD4F
:101030000EB010BD000400401400002010B51D4883
:101040008EB01B49016040F2CF210024C0E9011499
:1010500040F2CF71C0E903148461FFF72CFD00B1A9
:10106000FEE74FF48050079007A91248FFF75EFD96
:1010700000B1FEE70F48FFF757FE00B1FEE70B9403
:101080000BA90C480C94FFF7EEFC00B1FEE76020C2
:10109000CDE9000402940C22694606480494FFF747
:1010A000DBFD00B1FEE70348FFF7BAFD0EB010BD4F
:1010B00000080040540000200907090E002806DA45
:1010C00000F00F0000F1E02080F8141D704700F1DF
:1010D000E02080F80014704710B5FFF757F9BDE81D
:1010E0001040FFF7BCBC30B58FB001204FF4A021F9
:1010F00000248DE81300049002250004CDE9075078
:101100004FF4E01009906846FFF706FB00B1FEE7D8
:101110000F20CDE90A054FF48060CDE90C40022193
:101120000AA80E94FFF7F2F900B1FEE7FFF798FA6C
:101130004FF47A71B0FBF1F0FFF77DFC0420FFF76C
:101140006DFC00221146501EFFF7AEF90FB030BD06
:101150000D48016841F00101016041680B4A1140EE
:10116000416001680A4A11400160016821F4802150
:101170000160416821F4FE0141604FF41F0181606C
:101180000449C00308607047001002400000FFF8E7
:10119000FFFFF6FE08ED00E0F0B50268164B174CB5
:1011A000174D4FF08047984205D0B84203D0A04277
:1011B00001D0A84203D122F070064A683243984217
:1011C00005D0B84203D0A04201D0A84203D122F4F6
:1011D0004074CA68224322F080044A6922430260B4
:1011E0008A68C2620A688262984201D10969016311
:1011F00001214161F0BD0000002C014000040040CD
:101200000008004010B50123046A8B409C4304622F
:10121000036A8A401343036210BD10B5846842EA32
:10122000032224F47F440A432243826010BD826873
:1012300022F070020A4342F007018160704700000B
:1012400030B5026A22F001020262026A43688469D0
:1012500024F073050C682C4322F002058A682A43A7
:101260000A4DA8420BD122F00805CA6823F4407346
:101270002A434D6922F004021D438B692B434360CE
:10128000846149684163026230BD0000002C014066
:1012900030B5026A22F010020262026A4368846971
:1012A0000D6824F4E64444EA05248D6822F0200207
:1012B00042EA05120B4DA8420ED1CD6822F0800201
:1012C00042EA05124D6923F4406343EA85038D69C0
:1012D00022F0400243EA85034360846149688163E8
:1012E000026230BD002C014030B5026A22F48072E7
:1012F0000262036A4268C46923F4007324F0730530
:101300000C682C438D6843EA05230C4DA8420ED18E
:10131000CD6823F4006343EA05234D6922F440526B
:1013200042EA05128D6923F4806342EA05124260A5
:10133000C4614968C163036230BD0000002C0140F4
:1013400030B5026A22F480520262046A4268C369BC
:101350000D6823F4E64343EA05238D6824F4005422
:1013600044EA0534064DA84204D14D6922F4804276
:1013700042EA85124260C36149680164046230BD7B
:10138000002C014010B5036A046A24F001040462D1
:10139000846924F0F00444EA021423F00A020A43A8
:1013A0008461026210BD10B5036A23F0100303626A
:1013B0008369046A23F4704343EA023224F0A003F1
:1013C00043EA01118261016210BD00002DE9F04184
:1013D000044600680169E26821F44051114301614B
:1013E0002169A0680843616908432168CA6841F21D
:1013F0000C639A430243CA6020684169A26921F4E0
:101400004071114341614C4920686425322688426D
:101410003CD1FFF73BF900EBC00101EB0010616824
:101420008900B0FBF1F7FFF731F900EBC00101EBE8
:1014300000106168B0468900B0FBF1F0B0FBF5F038
:101440006FF01801484307EB800106EB0110B0FB79
:10145000F5F000F0F006FFF719F900EBC00101EB21
:10146000001061688900B0FBF1F0B0FBF5F006EB0D
:101470000016FFF70BF900EBC00101EB00106168EB
:101480008900B0FBF1F7FFF701F93BE0FFF7EEF859
:1014900000EBC00101EB001061688900B0FBF1F7BF
:1014A000FFF7E4F800EBC00101EB00106168B04603
:1014B0008900B0FBF1F0B0FBF5F06FF01801484384
:1014C00007EB800106EB0110B0FBF5F000F0F00631
:1014D000FFF7CCF800EBC00101EB00106168890058
:1014E000B0FBF1F0B0FBF5F006EB0016FFF7BEF82D
:1014F00000EBC00101EB001061688900B0FBF1F75F
:10150000FFF7B4F800EBC00101EB0010616889003F
:10151000B0FBF1F0B0FBF5F06FF01801484307EBBA
:10152000800108EB0110B0FBF5F0216800F00F001E
:1015300030448860BDE8F081003801402DE9F04179
:10154000984617460E460446069D1DE0681C1BD0B3
:101550002DB1FEF715FFA0EB0800A84214D92068B2
:10156000C16821F4D071C1602068416921F0010196
:101570004161202084F8390084F83A00002084F882
:1015800038000320BDE8F0812068006836EA0000DA
:1015900004D00020B842D9D00020F3E70120F9E7B9
:1015A000014A024900F013B8F115000810000020AC
:1015B00002E008C8121F08C1002AFAD1704770471C
:1015C000002001E001C1121F002AFBD170472DE964
:1015D000F04116460F460446002503E03946B04761
:1015E000641C6D1C20780028F8D12846BDE8F081E5
:1015F00013B54FF6FF73012269460248FFF71AFC44
:1016000000981CBD94000020FEF7C8FEFFF76BFD9C
:10161000FFF76EFC254824490C2201604FF4E131AC
:10162000416000218160C160C0E904128161C16133
:10163000FFF7AEFB00B1FEE7FFF7C2FCFFF7FEFCD1
:10164000012220211A48FEF795FE1A4C01220221A0
:101650002046FEF78FFE00224FF400412046FEF7A1
:1016600089FE00224FF480412046FEF783FE0122CE
:1016700051022046FEF77EFE0C480C218038FFF711
:101680006FFB0A480C214038FFF76AFB0A484FF409
:10169000FA7404600948046009A0FFF781FF20463E
:1016A000FEF766FDF8E700000044004094000020CB
:1016B00000080140000C0140400400404008004088
:1016C00049742773206120746573740A0000000058
:1016D00000000000000000000102030406070809E2
:1016E00000000000010203040817000800000020A9
:1016F00014000000B01500081C170008140000209A
:10170000C4040000C0150008010000001000000023
:0C1710000000000000A24A0400000000DD
:04000005080000ED02
:00000001FF
