:020000040800F2
:1000000020070020890100089101000893010008E1
:100010009501000897010008990100080000000000
:100020000000000000000000000000009B0100082C
:100030009D010008000000009F010008C111000898
:10004000A3010008A3010008A3010008A301000800
:10005000A3010008A3010008A3010008A3010008F0
:10006000A3010008A3010008A3010008A3010008E0
:10007000A3010008A3010008A3010008A3010008D0
:10008000A3010008A3010008A3010008A3010008C0
:10009000A3010008A3010008A3010008A3010008B0
:1000A000A3010008A3010008A3010008A3010008A0
:1000B000A3010008A3010008A3010008A301000890
:1000C000A3010008A3010008A3010008A301000880
:1000D000A3010008A3010008A3010008A301000870
:1000E0008D020008A3010008A301000800F002F837
:1000F00000F03AF80AA090E8000C82448344AAF188
:100100000107DA4501D100F02FF8AFF2090EBAE885
:100110000F0013F0010F18BFFB1A43F0010318473B
:10012000E416000004170000103A24BF78C878C114
:10013000FAD8520724BF30C830C144BF04680C60ED
:10014000704700000023002400250026103A28BF35
:1001500078C1FBD8520728BF30C148BF0B60704739
:100160001FB51FBD10B510BD00F044F81146FFF7D4
:10017000F7FF01F0DDF900F062F803B4FFF7F2FFDA
:1001800003BC00F067F800000948804709480047B1
:10019000FEE7FEE7FEE7FEE7FEE7FEE7FEE7FEE737
:1001A000FEE7FEE704480549054A064B7047000094
:1001B00035120008ED000008200100202007002073
:1001C0002003002020030020B2F120030AD5C2F151
:1001D000200320FA02F001FA03F321FA02F140EAC7
:1001E0000300704721FA03F04FF000017047704799
:1001F00070477047754600F029F8AE46050069461D
:10020000534620F00700854618B020B5FFF7CAFF17
:10021000BDE820404FF000064FF000074FF0000807
:100220004FF0000B21F00701AC46ACE8C009ACE888
:10023000C009ACE8C009ACE8C0098D467047044667
:10024000AFF300802046FFF798FF0000004870479A
:10025000C000002001491820ABBEFEE726000200C6
:10026000704730B590F840500124AC40C56B6C60CD
:10027000046863604368102B036803D099600068CA
:10028000C26030BD9A600068C16030BD10B54FF4E7
:10029000005000F03DF9BDE8104001F03BB900000E
:1002A0002DE9F041164688460546002400F01AF96B
:1002B0000E4F13E058F8242000232946022000F0B6
:1002C000D1F810B10320BDE8F08158F82400296866
:1002D000814201D00220F6E7641C2D1DB44201D2F8
:1002E000BD42E7D900F0B4F80020ECE7FCFF0308BA
:1002F000044B0022DA61044A136943F001031361DD
:1003000001807047A0000020002002401448002215
:10031000C168CB06134904D5CA6942F00202CA611A
:100320001022C3685B0705D5CB6943F00103CB619D
:1003300042F00402C369DB0707D0CB6943F0040332
:10034000CB61C16921F00101C161A2F58071013960
:1003500001D0C2607047C16921F00101C1617047DD
:1003600000200240A000002070B5054600F0C4F94E
:100370000646114C09E0681C07D025B100F0BCF915
:10038000801BA84201D9032070BDE068C007F2D1EC
:10039000E068800601D52020E060E068C00605D452
:1003A000E069C00702D1E068400703D5FFF7AEFF60
:1003B000012070BD002070BD0020024070B50446D1
:1003C00090F82000002501280CD0012084F820009E
:1003D00094F821600020012E06D084F82000022528
:1003E000284670BD022070BD022684F82160A063FB
:1003F0002068066826F0010606602046FFF731FFF8
:10040000E06A00282068016802D041F00E0106E091
:1004100021F0040101602068016841F00A010160D7
:100420002068016841F001010160D9E770B5044618
:1004300000F062F90546601C02D0044800780444CC
:1004400000F05AF9401BA042FAD370BD1C000020F6
:100450000348016941F080010161002070470000FC
:10046000002002402DE9F05F07461C488846002422
:10047000017E15461E46012909D0012181460176DB
:100480004CF2503A5046FFF76FFF18B122E00220BD
:10049000BDE8F09F012F02D0022F00D00427D346E1
:1004A000DFF83CA0220128463146FFF78DFE81B2DD
:1004B00008EB4400FFF71CFF5846FFF755FFDAF83A
:1004C000102022F00102CAF8102018B9641CE4B20E
:1004D000BC42E7D3002289F81820D9E7A000002009
:1004E00000200240064900200A69120607D5054A85
:1004F0004A60054A4A600969090600D5012070472B
:100500000020024023016745AB89EFCD7047000012
:10051000044910B50A68024202D00860FFF7F6FFEE
:1005200010BD0000140401402DE9F84FDFF890A140
:1005300000220AF1040B144601274FF00F090BF1BA
:10054000040E00BF0B6807FA04F52B40AB4274D1D0
:10055000DFF870C14E68A6EB0C0866452BD00DDCA9
:10056000032E34D005DC36B3012E19D0022E2FD144
:100570001BE0112E16D0122E2AD119E0B8F5881FD3
:1005800019D006DCB8F5803F15D0B8F5801F1FD113
:1005900011E0B8F5001F0ED0B8F5041F18D10AE01D
:1005A000CA6815E0CA68121D12E0CA6808320FE076
:1005B000CA680C320CE08A682AB1012A4FF008029E
:1005C00003D0456104E0042202E0056100E000225E
:1005D000FF2B01D8064601E000F104064FEA84052E
:1005E00001D9A5F12005D6F800C009FA05F82CEAD2
:1005F000080C02FA05F54CEA050CC6F800C04D6877
:10060000ED0057D5304DAE6946F00106AE61AD69DB
:1006100024F0030605F0010500952C4D06EB050CB2
:10062000DCF80850A6074FEA167809FA08F6B54331
:10063000274EB04202D1002610E03BE0254EB042EA
:1006400001D101260AE0244EB04201D1022605E084
:10065000224EB04201D1032600E0042606FA08F635
:100660002E43CCF808604D68DAF80060ED0355467B
:1006700001D51E4300E09E432E604D68DBF800600C
:10068000AD035D4601D51E4300E09E432E604D68DC
:10069000DEF80060ED02754601D51E4300E09E4382
:1006A0002E604D68AD020E4D2E6801D51E4300E050
:1006B0009E432E60641C102CFFF444AFBDE8F88FFD
:1006C0000004014000001110001002400000014031
:1006D00000080140000C01400010014000140140DE
:1006E0000C040140C2684A40C26070470AB101610F
:1006F00070470904FBE7000001488068704700006C
:100700001C00002002488168027811448160704713
:100710001C000020074810B5016841F0100101607D
:10072000032000F09DF8002000F006F800F024F807
:10073000002010BD0020024070B50D4D04464FF45E
:100740007A712878B1FBF0F00A490968B1FBF0F042
:1007500000F02DFB48B9102C07D200222146501E74
:1007600000F05EF800206C6070BD012070BD0000DC
:100770001C00002028000020214808B5816941F0B4
:1007800001018161816901F001010091C16941F0BC
:100790008051C161C06900F080500090032000F0DA
:1007A0005FF8002211466FF00B0000F039F80022CC
:1007B00011466FF00A0000F033F8002211466FF086
:1007C000090000F02DF800221146501F00F028F813
:1007D00000221146101F00F023F800221146901E3F
:1007E00000F01EF800221146501E00F019F80548CE
:1007F000416821F0E06141F00071416008BD0000F6
:10080000001002400000014000F01F020121914051
:100810004009800000F1E020C0F80011704700009E
:10082000F0B40E4B1B680C46C3F30223C3F107055B
:10083000042D00D90425191D072901D2002300E049
:10084000DB1E012606FA05F1491E214099409E4013
:10085000761E16403143F0BC00F094BC0CED00E075
:10086000064900F0070208684FF6FF03184040EA07
:100870000220034A10430860704700000CED00E0BE
:100880000000FA052DE9F047DFF83C8105460E46E9
:10089000D8F8000000F00700B0420CD2D8F80010E1
:1008A00021F007013143C8F80010D8F8000000F02B
:1008B0000700B04263D12878444C800705D56068B2
:1008C000A96820F0F000084360602878C00745D090
:1008D0006868012816D02168022816D089070029E7
:1008E0004DDA616821F0030101436160FFF704FF05
:1008F0006968074641F2883001290FD002298146F4
:1009000019D027E021688903E9E78901E7E700BFFB
:10091000FFF7F2FEC11B494501D918E08146606826
:10092000C0F381000128F3D118E000BFFFF7E4FE17
:10093000C11B49450BD86068C0F381000228F5D17E
:100940000CE000BFFFF7D8FEC11B494502D90320C8
:10095000BDE8F087606810F00C0FF3D1D8F80010F4
:10096000404601F00701B1420BD9016821F00701AF
:1009700031430160006800F00700B04201D001205F
:10098000E6E72878400705D56068E96820F4E0606C
:10099000084360602878000706D56068296920F45C
:1009A000605040EAC100606000F03CF86168084AAD
:1009B000C1F30311515CC840064908600020FFF7ED
:1009C000BBFE0020C4E700000020024000100240EF
:1009D000EC1700082800002001480068704700005C
:1009E000280000200448054900684968044AC1F30A
:1009F0000221515CC84070472800002000100240CE
:100A0000FC1700080448054900684968044AC1F316
:100A1000C221515CC84070472800002000100240ED
:100A2000FC17000812A185B00FC98DE80F0014A0B3
:100A3000144A006804905168134801F00C03042B19
:100A400010D0082B0ED1C1F38343C9031DF8030056
:100A50000AD5516804AAC1F34041515C0A4A504387
:100A6000B0FBF1F005B0704708494843FAE70000D1
:100A700002030405060708090A0B0C0D0E0F1010DF
:100A8000010200000010024000127A0000093D003F
:100A90002DE9F84F04460078B94DC00748D0686882
:100AA000C0F38100012807D06868C0F381000228E4
:100AB00009D16868C00306D52868800338D5606806
:100AC00000286FD034E06068B0F5803F0BD010B1E3
:100AD000B0F5A02F11D0286820F480302860286855
:100AE00020F4802002E0286840F4803028606068AC
:100AF00088B1FFF701FE064609E0286840F480202F
:100B00002860F0E7FFF7F8FD801B642875D8286897
:100B10008003F7D50CE0FFF7EFFD064605E000BFC8
:100B2000FFF7EAFD801B6428F0D828688003F7D41B
:100B30002078944E80074FF001094FF000083BD514
:100B4000686810F00C0F07D06868C0F381000228B5
:100B500009D16868C00306D42868800714D52069C5
:100B600001281FD110E02069B0B1C6F80090FFF74E
:100B7000C3FD074605E000BFFFF7BEFDC01B02280E
:100B8000C4D828688007F7D52868616920F0F80084
:100B900040EAC10028600FE0C6F80080FFF7ACFD16
:100BA000074606E0E9E000BFFFF7A6FDC01B0228EC
:100BB00023D828688007F7D4207800072CD57248FE
:100BC000A169D9B1C0F80090FFF796FD074604E08F
:100BD000FFF792FDC01B02280FD8686A8007F7D57F
:100BE0006A484FF4FA510068B0FBF1F0009000BF82
:100BF0000098411E0091FAD20EE080E0C0F800801B
:100C0000FFF77AFD074604E0FFF776FDC01B0228D8
:100C100075D8686A8007F7D42078400760D5E869FE
:100C20000027C00008D4E86940F08050E861E86916
:100C3000012700F08050009055480168C90513D481
:100C40000168834641F480710160FFF755FD8246DB
:100C500006E000BFFFF750FDA0EB0A0064284ED865
:100C6000DBF80000C005F5D5E06801280AD008B11E
:100C7000052813D0286A20F001002862286A20F095
:100C8000040002E0286A40F001002862E06841F2B6
:100C9000883B98B1FFF730FD82460BE0286A40F0B0
:100CA00004002862EEE700BFFFF726FDA0EB0A0173
:100CB00059455AD8286A8007F6D50CE0FFF71CFD85
:100CC000824605E0FFF718FDA0EB0A0159454CD814
:100CD000286A8007F6D41FB1E86920F08050E861E7
:100CE000E06988B36968C1F38101022945D002280F
:100CF000C6F8608004D0FFF7FFFC044638E034E01B
:100D0000FFF7FAFC074604E0FFF7F6FCC01B0228D9
:100D10002BD828688001F7D4206AB0F5803F05D130
:100D20006868A16820F4003008436860D4E90801CD
:100D30000843696821F4741108436860C6F860903C
:100D4000FFF7DAFC044606E015E000BFFFF7D4FC2D
:100D5000001B022809D828688001F7D50BE000BFE6
:100D6000FFF7CAFC001B022802D90320BDE8F88F58
:100D700028688001F4D40020F8E70120F6E700009D
:100D8000001002400000424280044242280000203D
:100D9000007000404FF0E0210428086903D020F0E3
:100DA00004000861704740F00400FAE7704710B58E
:100DB000401EB0F1807F01D3012010BD4FF0E02430
:100DC00060610F21601700F0DDF90020A0610720AD
:100DD0002061002010BD10B5FFF7E8FF10BD70477F
:100DE00070B5040004D094F83900002510B106E075
:100DF000012070BD84F83850204600F023F82420EC
:100E000084F839002068C16821F40051C16020468F
:100E100000F094FA2068016921F490410161206892
:100E2000416921F02A0141612068C16841F4005103
:100E3000C160E563202084F8390084F83A0000207E
:100E400070BD000000B500680B4985B0884211D123
:100E50000A48C16941F40031C161C069694600F4C2
:100E6000003004900C200090022001900390044870
:100E7000FFF75AFB05B000BD0044004000100240DF
:100E8000000801402DE9F843044690F83A009946DD
:100E900016460D4620284FD195B18EB194F83800F2
:100EA000012849D0012084F838000027E763222078
:100EB00084F83A00FFF720FCA6858046E68531E0FD
:100EC0000120BDE8F883E08D401EE085A068434620
:100ED000B0F5805F4FF000024FF020012046CDF8C2
:100EE000009004D000F0E2FA98B10320E9E700F0A6
:100EF000DDFA0028F9D1206900282068406803D075
:100F0000C1B225F8011B0DE0C0F3080125F8021B52
:100F100008E0206900282068406801D000F07F00C8
:100F200005F8010BE08D0028CDD1202084F83A008F
:100F300084F838700020C4E70220C2E7F8B5044600
:100F400090F83A0020283CD1C1B3BAB394F83800E5
:100F5000012836D0012084F83800A162A28500253E
:100F6000E563222084F83A00636B17489862636B4C
:100F70001648D862636B16481863606B1346456366
:100F80000846666B216802463046091DFFF716FACF
:100F9000206801684168009184F83850C16841F4C4
:100FA0008071C1602068416941F0010141612068A0
:100FB000416941F0400141610020F8BDFFE7012097
:100FC000FBE70220F9E70000C7120008031300083E
:100FD0007D120008704770472DE9F843044690F8E9
:100FE00039001F4616460D46202850D1A5B19EB1A6
:100FF00094F8380001284AD0012084F838004FF0D6
:101000000008C4F83C80212084F83900FFF774FB05
:10101000A6848146E68426E00120BDE8F883E08CC2
:10102000401EE084A0684B46B0F5805F4FF00002A0
:101030004FF080012046009703D000F037FAE8B95E
:101040000DE000F033FAC8B928882168C0F3080021
:101050004860206908B16D1C05E0AD1C03E0216803
:1010600015F8010B4860E08C0028D8D14B460022CF
:1010700040212046009700F019FA08B10320CCE780
:10108000202084F8390084F838800020C5E7022049
:10109000C3E7000030B5234885B0816941F01001F5
:1010A0008161816901F010010491816941F02001A1
:1010B0008161816901F020010491816941F004019D
:1010C0008161816901F004010491816941F00801A5
:1010D00081618069144D00F00800049000222021F5
:1010E0002846FFF703FB6814009010480024CDE960
:1010F000010469460E48FFF717FA202000900120EE
:10110000CDE901040220039069462846FFF70CFA56
:10111000002211462820FFF783FB2820FFF774FBED
:1011200005B030BD00100240000801400000111061
:10113000001001400D4810B50B4901604FF4E1313A
:101140004160002181600C22C160C0E9041281610C
:10115000C161FFF745FE002805D0BDE810404221DF
:1011600003A000F0D5B910BD004400402C000020C1
:101170002E2E2F436F72652F5372632F757361721A
:10118000742E63000907090E002806DA00F00F002C
:1011900000F1E02080F8141D704700F1E02080F895
:1011A00000147047002201E0521C92B2815C0029B9
:1011B000FAD1014664230148FFF70EBF2C0000203E
:1011C00010B5FFF79FFABDE81040FFF704BE30B539
:1011D0008FB0022501200490009510200590002476
:1011E0004FF46010CDE9084007956846FFF750FCC2
:1011F00000B1FEE70F20CDE90A054FF48060CDE98C
:101200000C4002210AA80E94FFF73CFB00B1FEE758
:10121000FFF7E2FB4FF47A71B0FBF1F0FFF7C7FD87
:101220000420FFF7B7FD00221146501EFFF7F8FA21
:101230000FB030BD0D48016841F001010160416807
:101240000B4A1140416001680A4A1140016001687F
:1012500021F480210160416821F4FE0141604FF4D6
:101260001F0181600449C0030860704700100240FC
:101270000000FFF8FFFFF6FE08ED00E070B5446ADD
:101280002068406994F83910C0F3C0100025212966
:1012900004D118B1E584204600F046F82068406982
:1012A00094F83A10C0F38010222904D118B1E585D2
:1012B000204600F02BF8E06B40F01000E063204681
:1012C000FFF78DFD70BD10B50146406A09680968D9
:1012D000890613D40021C1850168CA6822F480728E
:1012E000CA6001684A6922F001024A6101684A69DC
:1012F00022F040024A61202180F83A10FFF76AFE8E
:1013000010BD10B5406AFFF766FE10BD0168CA68DF
:1013100022F49072CA6001684A6922F001024A61AF
:10132000202180F83A1070470168CA6822F0C00294
:10133000CA60202180F83910704700002DE9F04183
:10134000044600680169E26821F4405111430161DB
:101350002169A0680843616908432168CA6841F2AD
:101360000C639A430243CA6020684169A26921F470
:101370004071114341614C492068642532268842FE
:101380003CD1FFF73FFB00EBC00101EB00106168AF
:101390008900B0FBF1F7FFF735FB00EBC00101EB73
:1013A00000106168B0468900B0FBF1F0B0FBF5F0C9
:1013B0006FF01801484307EB800106EB0110B0FB0A
:1013C000F5F000F0F006FFF71DFB00EBC00101EBAC
:1013D000001061688900B0FBF1F0B0FBF5F006EB9E
:1013E0000016FFF70FFB00EBC00101EB0010616876
:1013F0008900B0FBF1F7FFF705FB3BE0FFF7F2FADE
:1014000000EBC00101EB001061688900B0FBF1F74F
:10141000FFF7E8FA00EBC00101EB00106168B0468D
:101420008900B0FBF1F0B0FBF5F06FF01801484314
:1014300007EB800106EB0110B0FBF5F000F0F006C1
:10144000FFF7D0FA00EBC00101EB001061688900E2
:10145000B0FBF1F0B0FBF5F006EB0016FFF7C2FAB7
:1014600000EBC00101EB001061688900B0FBF1F7EF
:10147000FFF7B8FA00EBC00101EB001061688900CA
:10148000B0FBF1F0B0FBF5F06FF01801484307EB4B
:10149000800108EB0110B0FBF5F0216800F00F00AF
:1014A00030448860BDE8F081003801402DE9F0410A
:1014B000984617460E460446069D1DE0681C1BD044
:1014C0002DB1FFF719F9A0EB0800A84214D9206844
:1014D000C16821F4D071C1602068416921F0010127
:1014E0004161202084F8390084F83A00002084F813
:1014F00038000320BDE8F0812068006836EA00006B
:1015000004D00020B842D9D00020F3E70120F9E749
:10151000FEE7000004494A68044842600260096826
:1015200081F3088800680047008000080000002060
:10153000FFF7F0F8FFF74BFEFFF7ACFDFFF7FAFD02
:1015400000F010F8064D002420212846FFF7CAF8C5
:10155000C820FEF76BFF641C0A2CF5DBF3E70000E4
:1015600000080140124C4FF0FF3512A0FFF71AFEA1
:1015700020A0FFF717FE2FA0FFF714FE0C492B4603
:101580000122C91C3B48FFF77DFCE078312802D0DE
:10159000322808D102E000F009F9E6E736A0FFF7AB
:1015A00001FEFFF7B7FF3DA0FFF7FCFDDDE7000000
:1015B000080000200D0A3D3D3D3D3D3D3D3D3D3D8A
:1015C0003D3D3D3D3D3D3D3D3D204D61696E204DE4
:1015D000656E75203D3D3D3D3D3D3D3D3D3D3D3DC7
:1015E0003D3D3D3D3D3D3D3D3D3D3D3D3D3D3D3D2B
:1015F0000D0A0A00202055706C6F616420696D61CE
:1016000067652066726F6D2074686520696E746509
:10161000726E616C20466C617368202D2D2D2D2D0E
:101620002D2D2D2D2D2D2D2D2D2D2D2D20310D0A36
:101630000A00000020204578656375746520746891
:1016400065206C6F61646564206170706C696361B2
:1016500074696F6E202D2D2D2D2D2D2D2D2D2D2DC1
:101660002D2D2D2D2D2D2D2D2D2D2D2D20320D0AF5
:101670000A0000002C000020537461727420707204
:101680006F6772616D20657865637574696F6E2E22
:101690002E2E2E2E2E0D0A0A00000000496E7661B5
:1016A0006C6964204E756D6265722021203D3D3E5F
:1016B00020546865206E756D6265722073686F7561
:1016C0006C642062652065697468657220312C2025
:1016D000322C2033200D00002DE9F0410446017822
:1016E0002748621800254170127902702B468570D8
:1016F0000F1D04E014F806C0761C654486708678D9
:10170000BE42F7D3C5F58075954201D01DA030E0EB
:10171000E278042A05D16279A579120602EB054226
:101720008260E2780ABB837045680CE014F82230CE
:1017300003EB03361F0207EB0313334445F8223053
:101740008278521C82708278B2EB910FEED3A1782E
:10175000627801EB0211C16082685318036141781D
:101760008A0841681846FEF79BFDE078012804D1FD
:1017700009A0BDE8F041FFF715BDBDE8F08100000C
:10178000080000200A0A0D207665726966792065D6
:1017900072726F720A0D00000A0A0D2070726F6774
:1017A00072616D20646F6E65210A0D0010B506A090
:1017B000FFF7F8FC32220B490B48FFF7BFFBBDE8EF
:1017C00010400848FFF788BF0A0A0D53656E642071
:1017D00064617461207669612075736172740A0DA9
:1017E000000000006C0000202C0000200000000021
:1017F00000000000010203040607080900000000C1
:101800000102030424180008000000202C0000003E
:1018100028010008501800082C000020F4060000E1
:10182000440100080000000000000000000000006B
:1018300000000000000000000000000000000000A8
:1018400001000000100000000000000000A24A0497
:04000005080000ED02
:00000001FF
