:020000040800F2
:100000005804002001010008090100080B01000844
:100010000D0100080F010008110100080000000098
:1000200000000000000000000000000013010008B4
:10003000150100080000000017010008050C000869
:100040001B0100081B0100081B0100081B01000820
:100050001B0100081B0100081B0100081B01000810
:100060001B0100081B0100081B0100081B01000800
:100070001B0100081B0100081B0100081B010008F0
:100080001B0100081B0100081B0100081B010008E0
:100090001B0100081B0100081B0100081B010008D0
:1000A0001B0100081B0100081B0100081B010008C0
:1000B0001B0100081B0100081B0100081B010008B0
:1000C0001B0100081B0100081B0100081B010008A0
:1000D0001B0100081B0100081B0100081B01000890
:1000E000490100081B0100081B010008DFF80CD0C3
:1000F00000F018F8004800476D0E00085804002072
:100100000648804706480047FEE7FEE7FEE7FEE7B1
:10011000FEE7FEE7FEE7FEE7FEE7FEE7790C0008F4
:10012000ED000008064C074D06E0E06840F00103D2
:1001300094E8070098471034AC42F6D3FFF7DAFF93
:10014000AC0E0008CC0E000810B54FF4005000F0C3
:1001500019F8BDE8104000F07BBE000070B5044601
:1001600000F004F90546601C02D0044800780444FD
:1001700000F0FCF8401BA042FAD370BD080000203C
:1001800070470000044910B50A68024202D00860B6
:10019000FFF7F6FF10BD0000140401402DE9F84FF1
:1001A000DFF890A100220AF1040B144601274FF05A
:1001B0000F090BF1040E00BF0B6807FA04F52B4082
:1001C000AB4274D1DFF870C14E68A6EB0C086645EF
:1001D0002BD00DDC032E34D005DC36B3012E19D024
:1001E000022E2FD11BE0112E16D0122E2AD119E08B
:1001F000B8F5881F19D006DCB8F5803F15D0B8F5E2
:10020000801F1FD111E0B8F5001F0ED0B8F5041FF4
:1002100018D10AE0CA6815E0CA68121D12E0CA685F
:1002200008320FE0CA680C320CE08A682AB1012A51
:100230004FF0080203D0456104E0042202E00561AA
:1002400000E00022FF2B01D8064601E000F1040681
:100250004FEA840501D9A5F12005D6F800C009FAB6
:1002600005F82CEA080C02FA05F54CEA050CC6F86C
:1002700000C04D68ED0057D5304DAE6946F001061F
:10028000AE61AD6924F0030605F0010500952C4D23
:1002900006EB050CDCF80850A6074FEA167809FAB9
:1002A00008F6B543274EB04202D1002610E03BE0ED
:1002B000254EB04201D101260AE0244EB04201D1C0
:1002C000022605E0224EB04201D1032600E00426BA
:1002D00006FA08F62E43CCF808604D68DAF800609C
:1002E000ED03554601D51E4300E09E432E604D6848
:1002F000DBF80060AD035D4601D51E4300E09E4380
:100300002E604D68DEF80060ED02754601D51E4393
:1003100000E09E432E604D68AD020E4D2E6801D563
:100320001E4300E09E432E60641C102CFFF444AF7B
:10033000BDE8F88F000401400000111000100240D9
:100340000000014000080140000C01400010014085
:10035000001401400C040140C2684A40C26070476A
:100360000AB1016170470904FBE700000148806899
:10037000704700000800002002488168027811449C
:100380008160704708000020074810B5016841F0FF
:1003900010010160032000F09DF8002000F006F835
:1003A00000F024F8002010BD0020024070B50D4D73
:1003B00004464FF47A712878B1FBF0F00A490968D5
:1003C000B1FBF0F000F02DFB48B9102C07D2002251
:1003D0002146501E00F05EF800206C6070BD0120C8
:1003E00070BD00000800002014000020214808B55E
:1003F000816941F001018161816901F00101009190
:10040000C16941F08051C161C06900F08050009025
:10041000032000F05FF8002211466FF00B0000F09F
:1004200039F8002211466FF00A0000F033F800227C
:1004300011466FF0090000F02DF800221146501F00
:1004400000F028F800221146101F00F023F80022C7
:100450001146901E00F01EF800221146501E00F0BA
:1004600019F80548416821F0E06141F000714160F0
:1004700008BD0000001002400000014000F01F0213
:10048000012191404009800000F1E020C0F80011F6
:1004900070470000F0B40E4B1B680C46C3F30223F8
:1004A000C3F10705042D00D90425191D072901D220
:1004B000002300E0DB1E012606FA05F1491E21405B
:1004C00099409E40761E16403143F0BC00F08ABB36
:1004D0000CED00E0064900F0070208684FF6FF0344
:1004E000184040EA0220034A1043086070470000A9
:1004F0000CED00E00000FA052DE9F047DFF83C8143
:1005000005460E46D8F8000000F00700B0420CD2B5
:10051000D8F8001021F007013143C8F80010D8F8CE
:10052000000000F00700B04263D12878444C8007F7
:1005300005D56068A96820F0F0000843606028785D
:10054000C00745D06868012816D02168022816D057
:10055000890700294DDA616821F0030101436160D8
:10056000FFF704FF6968074641F2883001290FD080
:100570000229814619D027E021688903E9E789012A
:10058000E7E700BFFFF7F2FEC11B494501D918E0BC
:1005900081466068C0F381000128F3D118E000BFF4
:1005A000FFF7E4FEC11B49450BD86068C0F381002A
:1005B0000228F5D10CE000BFFFF7D8FEC11B49456A
:1005C00002D90320BDE8F087606810F00C0FF3D16A
:1005D000D8F80010404601F00701B1420BD901687C
:1005E00021F0070131430160006800F00700B042CC
:1005F00001D00120E6E72878400705D56068E96862
:1006000020F4E060084360602878000706D5606841
:10061000296920F4605040EAC100606000F03CF8B5
:100620006168084AC1F30311515CC840064908607B
:100630000020FFF7BBFE0020C4E7000000200240BE
:1006400000100240940E00081400002001480068C9
:1006500070470000140000200448054900684968FC
:10066000044AC1F30221515CC840704714000020C5
:1006700000100240A40E00080448054900684968BB
:10068000044AC1F3C221515CC840704714000020E5
:1006900000100240A40E000812A185B00FC98DE819
:1006A0000F0014A0144A006804905168134801F028
:1006B0000C03042B10D0082B0ED1C1F38343C903C4
:1006C0001DF803000AD5516804AAC1F34041515CEA
:1006D0000A4A5043B0FBF1F005B07047084948435F
:1006E000FAE7000002030405060708090A0B0C0DCF
:1006F0000E0F1010010200000010024000127A00DC
:1007000000093D002DE9F84F04460078B94DC007B7
:1007100048D06868C0F38100012807D06868C0F33A
:100720008100022809D16868C00306D528688003C3
:1007300038D5606800286FD034E06068B0F5803F3D
:100740000BD010B1B0F5A02F11D0286820F4803064
:100750002860286820F4802002E0286840F4803077
:100760002860606888B1FFF701FE064609E0286846
:1007700040F480202860F0E7FFF7F8FD801B642834
:1007800075D828688003F7D50CE0FFF7EFFD064623
:1007900005E000BFFFF7EAFD801B6428F0D8286859
:1007A0008003F7D42078944E80074FF001094FF072
:1007B00000083BD5686810F00C0F07D06868C0F3DC
:1007C0008100022809D16868C00306D42868800720
:1007D00014D5206901281FD110E02069B0B1C6F8F6
:1007E0000090FFF7C3FD074605E000BFFFF7BEFD21
:1007F000C01B0228C4D828688007F7D5286861691B
:1008000020F0F80040EAC10028600FE0C6F8008040
:10081000FFF7ACFD074606E0E9E000BFFFF7A6FDE5
:10082000C01B022823D828688007F7D42078000747
:100830002CD57248A169D9B1C0F80090FFF796FD98
:10084000074604E0FFF792FDC01B02280FD8686A34
:100850008007F7D56A484FF4FA510068B0FBF1F011
:10086000009000BF0098411E0091FAD20EE080E097
:10087000C0F80080FFF77AFD074604E0FFF776FD39
:10088000C01B022875D8686A8007F7D42078400713
:1008900060D5E8690027C00008D4E86940F08050BE
:1008A000E861E869012700F0805000905548016830
:1008B000C90513D40168834641F480710160FFF7D4
:1008C00055FD824606E000BFFFF750FDA0EB0A0091
:1008D00064284ED8DBF80000C005F5D5E068012893
:1008E0000AD008B1052813D0286A20F00100286238
:1008F000286A20F0040002E0286A40F00100286223
:10090000E06841F2883B98B1FFF730FD82460BE08A
:10091000286A40F004002862EEE700BFFFF726FDDA
:10092000A0EB0A0159455AD8286A8007F6D50CE091
:10093000FFF71CFD824605E0FFF718FDA0EB0A015A
:1009400059454CD8286A8007F6D41FB1E86920F0D1
:100950008050E861E06988B36968C1F381010229C8
:1009600045D00228C6F8608004D0FFF7FFFC04469B
:1009700038E034E0FFF7FAFC074604E0FFF7F6FC46
:10098000C01B02282BD828688001F7D4206AB0F554
:10099000803F05D16868A16820F400300843686092
:1009A000D4E908010843696821F4741108436860B8
:1009B000C6F86090FFF7DAFC044606E015E000BFD9
:1009C000FFF7D4FC001B022809D828688001F7D55E
:1009D0000BE000BFFFF7CAFC001B022802D903206E
:1009E000BDE8F88F28688001F4D40020F8E70120E2
:1009F000F6E700000010024000004242800442423C
:100A000014000020007000404FF0E0210428086925
:100A100003D020F004000861704740F00400FAE7BA
:100A2000704710B5401EB0F1807F01D3012010BD8A
:100A30004FF0E02460610F21601700F0D3F8002030
:100A4000A06107202061002010BD10B5FFF7E8FF6E
:100A500010BD70B5040004D094F83900002510B121
:100A600006E0012070BD84F83850204600F022F8DE
:100A7000242084F839002068C16821F40051C16045
:100A8000204600F01DF92068016921F490410161C0
:100A90002068416921F02A0141612068C16841F460
:100AA0000051C160E563202084F8390084F83A00E1
:100AB000002070BD00B500680B4985B0884211D197
:100AC0000A48C16941F40031C161C069694600F456
:100AD000003004900C200090022001900390044804
:100AE000FFF75CFB05B000BD004400400010024071
:100AF0000008014030B5234885B0816941F01001FC
:100B00008161816901F010010491816941F0200146
:100B10008161816901F020010491816941F0040142
:100B20008161816901F004010491816941F008014A
:100B300081618069144D00F008000490002220219A
:100B40002846FFF70DFC6814009010480024CDE9FA
:100B5000010469460E48FFF721FB20200090012088
:100B6000CDE901040220039069462846FFF716FBF1
:100B7000002211462820FFF78DFC2820FFF77EFC7D
:100B800005B030BD00100240000801400000111007
:100B9000001001400D4810B50B4901604FF4E131E0
:100BA0004160002181600C22C160C0E904128161B2
:100BB000C161FFF74EFF002805D0BDE8104042217B
:100BC00003A000F035B910BD00440040180000201B
:100BD0002E2E2F436F72652F5372632F75736172C0
:100BE000742E63000907090E002806DA00F00F00D2
:100BF00000F1E02080F8141D704700F1E02080F83B
:100C00000014704710B5FFF7B7FBBDE81040FFF7C1
:100C10001CBF30B58FB00225012004900095102034
:100C2000059000244FF46010CDE908400795684610
:100C3000FFF768FD00B1FEE70F20CDE90A054FF48C
:100C40008060CDE90C4002210AA80E94FFF754FC05
:100C500000B1FEE7FFF7FAFC4FF47A71B0FBF1F058
:100C6000FFF7DFFE0420FFF7CFFE00221146501EE3
:100C7000FFF710FC0FB030BD0D48016841F00101D5
:100C8000016041680B4A1140416001680A4A114005
:100C90000160016821F480210160416821F4FE01B6
:100CA00041604FF41F0181600449C0030860704730
:100CB000001002400000FFF8FFFFF6FE08ED00E024
:100CC0002DE9F041044600680169E26821F44051D1
:100CD000114301612169A0680843616908432168E3
:100CE000CA6841F20C639A430243CA6020684169B2
:100CF000A26921F44071114341614C492068642587
:100D0000322688423CD1FFF7B7FC00EBC00101EB73
:100D1000001061688900B0FBF1F7FFF7ADFC00EB54
:100D2000C00101EB00106168B0468900B0FBF1F032
:100D3000B0FBF5F06FF01801484307EB800106EBBC
:100D40000110B0FBF5F000F0F006FFF795FC00EBAA
:100D5000C00101EB001061688900B0FBF1F0B0FB4D
:100D6000F5F006EB0016FFF787FC00EBC00101EB86
:100D7000001061688900B0FBF1F7FFF77DFC3BE0F4
:100D8000FFF76AFC00EBC00101EB0010616889000D
:100D9000B0FBF1F7FFF760FC00EBC00101EB0010C6
:100DA0006168B0468900B0FBF1F0B0FBF5F06FF080
:100DB0001801484307EB800106EB0110B0FBF5F08A
:100DC00000F0F006FFF748FC00EBC00101EB00105B
:100DD00061688900B0FBF1F0B0FBF5F006EB00169E
:100DE000FFF73AFC00EBC00101EB001061688900DD
:100DF000B0FBF1F7FFF730FC00EBC00101EB001096
:100E000061688900B0FBF1F0B0FBF5F06FF01801FC
:100E1000484307EB800108EB0110B0FBF5F02168B7
:100E200000F00F0030448860BDE8F08100380140D8
:100E3000FEE702E008C8121F08C1002AFAD1704775
:100E40007047002001E001C1121F002AFBD170474A
:100E500004494A68044842600260096881F30888CE
:100E6000006800470080000800000020FFF78CFAAF
:100E7000FFF7CFFEFFF73EFEFFF78CFE044C20216C
:100E80002046FFF769FAC820FFF768F9F7E7000086
:100E900000080140000000000000000001020304FF
:100EA000060708090000000001020304CC0E000838
:100EB0000000002018000000320E0008E40E0008B8
:100EC0001800002040040000420E0008000000004E
:100ED0000000000001000000100000000000000001
:040EE00000A24A041E
:04000005080000ED02
:00000001FF
