:020000040800F2
:10000000F807002089010008910100089301000809
:100010009501000897010008990100080000000000
:100020000000000000000000000000009B0100082C
:100030009D010008000000009F01000881120008D7
:10004000A3010008A3010008A3010008A301000800
:10005000A3010008A3010008A3010008A3010008F0
:10006000A3010008A3010008A3010008A3010008E0
:10007000A3010008A3010008A3010008A3010008D0
:100080003D02000849020008A3010008A30100087E
:10009000A3010008A3010008A3010008A3010008B0
:1000A000A3010008A3010008A3010008A3010008A0
:1000B000A3010008A3010008A3010008A301000890
:1000C000A3010008A3010008A3010008A301000880
:1000D000A3010008A3010008D5150008A30100082A
:1000E00055020008A3010008A301000800F002F86F
:1000F00000F03AF80AA090E8000C82448344AAF188
:100100000107DA4501D100F02FF8AFF2090EBAE885
:100110000F0013F0010F18BFFB1A43F0010318473B
:100120007C1500009C150000103A24BF78C878C1E7
:10013000FAD8520724BF30C830C144BF04680C60ED
:10014000704700000023002400250026103A28BF35
:1001500078C1FBD8520728BF30C148BF0B60704739
:100160001FB51FBD10B510BD00F031F81146FFF7E7
:10017000F7FF01F045FA00F04FF803B4FFF7F2FF84
:1001800003BC00F053F800000948804709480047C5
:10019000FEE7FEE7FEE7FEE7FEE7FEE7FEE7FEE737
:1001A000FEE7FEE704480549054A064B7047000094
:1001B000F5120008ED000008F8010020F807002003
:1001C000F8030020F8030020704770477047754619
:1001D00000F028F8AE4605006946534620F00700B7
:1001E000854618B020B5FFF7DDFFBDE820404FF091
:1001F00000064FF000074FF000084FF0000B21F011
:100200000701AC46ACE8C009ACE8C009ACE8C009DD
:10021000ACE8C0098D4670470446AFF30080204625
:10022000FFF7ABFF004870479801002001491820F4
:10023000ABBEFEE72600020070470000014800F058
:100240005FB80000AC000020014800F059B8000081
:10025000F000002010B54FF4005000F041F9BDE867
:10026000104001F0BFB9000010B590F82110002433
:10027000022903D00421816301243DE001680A685A
:1002800022F00E020A6001680A6822F001020A6088
:100290001A4A0168914201D1012121E0174A143222
:1002A000914201D110211BE0144A2832914201D120
:1002B000891515E0114A3C32914201D189140FE0B1
:1002C0000E4A5032914202D14FF4803108E00B4A7D
:1002D0006432914202D14FF4801101E04FF08071FD
:1002E000064A083A5160012180F82110002180F867
:1002F0002010416B01B18847204610BD0800024024
:100300002DE9F05FC16B0C6801680B68D0F840C044
:10031000042202FA0CF2494DDFF824A1494E4A4F5B
:10032000DFF828B1DFF828E122422CD05A072AD57D
:100330000A68920603D40A6822F004020A6001687F
:10034000A94201D1042219E0514501D1402215E012
:10035000B14202D14FF4806210E0B94202D14FF4B1
:1003600080420BE0594502D14FF4802206E07145EE
:1003700002D14FF4800201E04FF080622F4908392A
:100380004A60C16A3BE04FF0020808FA0CF818EA2C
:10039000040F4FF000094FF0010235D05FEA837877
:1003A00032D50B689B0605D40B6823F00A030B605B
:1003B00080F821200168A94201D1022219E05145AB
:1003C00001D1202215E0B14202D14FF4007210E0B9
:1003D000B94202D14FF400520BE0594502D14FF41B
:1003E000003206E0714502D14FF4001201E04FF0F7
:1003F0000072124908394A6080F82090816A002909
:100400001AD0BDE8F05F0847082505FA0CF525422B
:1004100012D01B0710D50B6823F00E030B6090F869
:100420004010C36B02FA01F15960826380F8212009
:1004300080F82090016BE2E7BDE8F09F08000240E1
:100440001C000240300002404400024058000240BC
:100450006C00024030B548B308C81549142219444D
:10046000B1FBF2F18900C163124981630221417736
:100470001A6843F6F0718A43D0E900142143D0E9A9
:1004800002452C4321430469214344692143846983
:10049000214311431960002141628162C1620163FD
:1004A0004163012242770177084630BD012030BD0B
:1004B000F8FFFDBF0000024070B5044600F004F9EB
:1004C0000546601C02D004480078044400F0FCF8A3
:1004D000401BA042FAD370BD1C00002070470000F2
:1004E000044910B50A68024202D00860FFF7F6FF1F
:1004F00010BD0000140401402DE9F84FDFF890A171
:1005000000220AF1040B144601274FF00F090BF1EA
:10051000040E00BF0B6807FA04F52B40AB4274D100
:10052000DFF870C14E68A6EB0C0866452BD00DDCD9
:10053000032E34D005DC36B3012E19D0022E2FD174
:100540001BE0112E16D0122E2AD119E0B8F5881F03
:1005500019D006DCB8F5803F15D0B8F5801F1FD143
:1005600011E0B8F5001F0ED0B8F5041F18D10AE04D
:10057000CA6815E0CA68121D12E0CA6808320FE0A6
:10058000CA680C320CE08A682AB1012A4FF00802CE
:1005900003D0456104E0042202E0056100E000228E
:1005A000FF2B01D8064601E000F104064FEA84055E
:1005B00001D9A5F12005D6F800C009FA05F82CEA02
:1005C000080C02FA05F54CEA050CC6F800C04D68A7
:1005D000ED0057D5304DAE6946F00106AE61AD690C
:1005E00024F0030605F0010500952C4D06EB050CE3
:1005F000DCF80850A6074FEA167809FA08F6B54362
:10060000274EB04202D1002610E03BE0254EB0421A
:1006100001D101260AE0244EB04201D1022605E0B4
:10062000224EB04201D1032600E0042606FA08F665
:100630002E43CCF808604D68DAF80060ED035546AB
:1006400001D51E4300E09E432E604D68DBF800603C
:10065000AD035D4601D51E4300E09E432E604D680C
:10066000DEF80060ED02754601D51E4300E09E43B2
:100670002E604D68AD020E4D2E6801D51E4300E080
:100680009E432E60641C102CFFF444AFBDE8F88F2D
:100690000004014000001110001002400000014061
:1006A00000080140000C014000100140001401400E
:1006B0000C040140C2684A40C26070470AB101613F
:1006C00070470904FBE7000001488068704700009C
:1006D0001C00002002488168027811448160704744
:1006E0001C000020074810B5016841F010010160AE
:1006F000032000F09DF8002000F006F800F024F838
:10070000002010BD0020024070B50D4D04464FF48E
:100710007A712878B1FBF0F00A490968B1FBF0F072
:1007200000F02DFB48B9102C07D200222146501EA4
:1007300000F05EF800206C6070BD012070BD00000C
:100740001C00002028000020214808B5816941F0E4
:1007500001018161816901F001010091C16941F0EC
:100760008051C161C06900F080500090032000F00A
:100770005FF8002211466FF00B0000F039F80022FC
:1007800011466FF00A0000F033F8002211466FF0B6
:10079000090000F02DF800221146501F00F028F843
:1007A00000221146101F00F023F800221146901E6F
:1007B00000F01EF800221146501E00F019F80548FE
:1007C000416821F0E06141F00071416008BD000026
:1007D000001002400000014000F01F020121914082
:1007E0004009800000F1E020C0F8001170470000CF
:1007F000F0B40E4B1B680C46C3F30223C3F107058C
:10080000042D00D90425191D072901D2002300E079
:10081000DB1E012606FA05F1491E214099409E4043
:10082000761E16403143F0BC00F00CBD0CED00E02C
:10083000064900F0070208684FF6FF03184040EA37
:100840000220034A10430860704700000CED00E0EE
:100850000000FA052DE9F047DFF83C8105460E4619
:10086000D8F8000000F00700B0420CD2D8F8001011
:1008700021F007013143C8F80010D8F8000000F05B
:100880000700B04263D12878444C800705D56068E2
:10089000A96820F0F000084360602878C00745D0C0
:1008A0006868012816D02168022816D08907002917
:1008B0004DDA616821F0030101436160FFF704FF35
:1008C0006968074641F2883001290FD00229814624
:1008D00019D027E021688903E9E78901E7E700BF2C
:1008E000FFF7F2FEC11B494501D918E08146606857
:1008F000C0F381000128F3D118E000BFFFF7E4FE48
:10090000C11B49450BD86068C0F381000228F5D1AE
:100910000CE000BFFFF7D8FEC11B494502D90320F8
:10092000BDE8F087606810F00C0FF3D1D8F8001024
:10093000404601F00701B1420BD9016821F00701DF
:1009400031430160006800F00700B04201D001208F
:10095000E6E72878400705D56068E96820F4E0609C
:10096000084360602878000706D56068296920F48C
:10097000605040EAC100606000F03CF86168084ADD
:10098000C1F30311515CC840064908600020FFF71D
:10099000BBFE0020C4E7000000200240001002401F
:1009A00084160008280000200148006870470000F5
:1009B000280000200448054900684968044AC1F33A
:1009C0000221515CC84070472800002000100240FE
:1009D000941600080448054900684968044AC1F3B0
:1009E000C221515CC840704728000020001002401E
:1009F0009416000812A185B00FC98DE80F0014A04D
:100A0000144A006804905168134801F00C03042B49
:100A100010D0082B0ED1C1F38343C9031DF8030086
:100A20000AD5516804AAC1F34041515C0A4A5043B7
:100A3000B0FBF1F005B0704708494843FAE7000001
:100A400002030405060708090A0B0C0D0E0F10100F
:100A5000010200000010024000127A0000093D006F
:100A60002DE9F84F04460078B94DC00748D06868B2
:100A7000C0F38100012807D06868C0F38100022814
:100A800009D16868C00306D52868800338D5606836
:100A900000286FD034E06068B0F5803F0BD010B113
:100AA000B0F5A02F11D0286820F480302860286885
:100AB00020F4802002E0286840F4803028606068DC
:100AC00088B1FFF701FE064609E0286840F480205F
:100AD0002860F0E7FFF7F8FD801B642875D82868C8
:100AE0008003F7D50CE0FFF7EFFD064605E000BFF9
:100AF000FFF7EAFD801B6428F0D828688003F7D44C
:100B00002078944E80074FF001094FF000083BD544
:100B1000686810F00C0F07D06868C0F381000228E5
:100B200009D16868C00306D42868800714D52069F5
:100B300001281FD110E02069B0B1C6F80090FFF77E
:100B4000C3FD074605E000BFFFF7BEFDC01B02283E
:100B5000C4D828688007F7D52868616920F0F800B4
:100B600040EAC10028600FE0C6F80080FFF7ACFD46
:100B7000074606E0E9E000BFFFF7A6FDC01B02281C
:100B800023D828688007F7D4207800072CD572482E
:100B9000A169D9B1C0F80090FFF796FD074604E0BF
:100BA000FFF792FDC01B02280FD8686A8007F7D5AF
:100BB0006A484FF4FA510068B0FBF1F0009000BFB2
:100BC0000098411E0091FAD20EE080E0C0F800804B
:100BD000FFF77AFD074604E0FFF776FDC01B022809
:100BE00075D8686A8007F7D42078400760D5E8692F
:100BF0000027C00008D4E86940F08050E861E86947
:100C0000012700F08050009055480168C90513D4B1
:100C10000168834641F480710160FFF755FD82460B
:100C200006E000BFFFF750FDA0EB0A0064284ED895
:100C3000DBF80000C005F5D5E06801280AD008B14E
:100C4000052813D0286A20F001002862286A20F0C5
:100C5000040002E0286A40F001002862E06841F2E6
:100C6000883B98B1FFF730FD82460BE0286A40F0E0
:100C700004002862EEE700BFFFF726FDA0EB0A01A3
:100C800059455AD8286A8007F6D50CE0FFF71CFDB5
:100C9000824605E0FFF718FDA0EB0A0159454CD844
:100CA000286A8007F6D41FB1E86920F08050E86117
:100CB000E06988B36968C1F38101022945D002283F
:100CC000C6F8608004D0FFF7FFFC044638E034E04B
:100CD000FFF7FAFC074604E0FFF7F6FCC01B02280A
:100CE0002BD828688001F7D4206AB0F5803F05D161
:100CF0006868A16820F4003008436860D4E90801FE
:100D00000843696821F4741108436860C6F860906C
:100D1000FFF7DAFC044606E015E000BFFFF7D4FC5D
:100D2000001B022809D828688001F7D50BE000BF16
:100D3000FFF7CAFC001B022802D90320BDE8F88F88
:100D400028688001F4D40020F8E70120F6E70000CD
:100D5000001002400000424280044242280000206D
:100D6000007000404FF0E0210428086903D020F013
:100D700004000861704740F00400FAE7704710B5BE
:100D8000401EB0F1807F01D3012010BD4FF0E02460
:100D900060610F21601700F055FA0020A061072064
:100DA0002061002010BD10B5FFF7E8FF10BD7047AF
:100DB00070B5026804461068D168536910F00F0FCF
:100DC00051D003F0010501F4907635435DD0C207A0
:100DD00005D0CA0503D5E26B42F00102E263420787
:100DE00005D5DA0703D0E26B42F00202E263820724
:100DF00005D5DA0703D0E26B42F00402E263020792
:100E000005D5DA0703D0E26B42F00802E263E26B39
:100E1000002A34D0800604D5880602D5204600F08A
:100E2000A3FA20684069E16BC0F3801001F008016B
:100E30000143204624D000F089FA20684169490620
:100E40001AD5416921F040014161606BA0B11B4995
:100E50004163606BFFF708FA002810D0606B416BAC
:100E6000BDE87040084783060FD58B060DD5204698
:100E7000BDE8704000F078BA2046FFF798FF70BDDB
:100E8000FFF795FF0020E06370BD030606D50B0653
:100E900004D52046BDE8704000F06ABB4006F3D59B
:100EA0004806F1D5D168204621F04001D1602021CB
:100EB00084F8391000F007F970BD00003D130008F8
:100EC00070B5040004D094F83900002510B106E094
:100ED000012070BD84F83850204600F023F824200B
:100EE00084F839002068C16821F40051C1602046AF
:100EF00000F086FA2068016921F4904101612068C0
:100F0000416921F02A0141612068C16841F4005122
:100F1000C160E563202084F8390084F83A0000209D
:100F200070BD0000F0B50646374D03683748022112
:100F3000374A002485B0AB421CD1836943F4804317
:100F400083618069154600F4804004900802CDE971
:100F500000010320039069461046FFF7CDFA4FF4D5
:100F60008060CDE90004694628460294FFF7C4FA80
:100F700005B0F0BD274DAB42FAD1C36943F400334D
:100F8000C361C069039100F4003004900C20CDE9E6
:100F9000000169461046FFF7AFFA204D1E48802732
:100FA000C5E90004C5E902472C614FF440506C616B
:100FB000C5E906402846FFF74DFA18B1992118A057
:100FC00000F00EFB75636E62144D13484435143007
:100FD00001C5102091C5114845F8104944306C6195
:100FE000AC61EC61FFF736FA18B1A9210CA000F052
:100FF000F7FA35630022114626206E62FFF7F8FBF0
:101000002620FFF7E9FBB3E700380140001002405B
:1010100000080140004400406C000240AC00002089
:101020002E2E2F436F72652F5372632F757361726B
:10103000742E630090F83A30202B22D1F9B1F2B12E
:1010400090F83830012B1CD081628285C285002146
:10105000C163222280F83A2080F838100168CA68FB
:1010600042F48072CA6001684A6942F001024A6132
:101070000068C16841F02001C16000207047012074
:10108000704702207047704790F83930202B18D1F4
:10109000A9B1A2B190F83830012B12D0016282843C
:1010A000C2840021C163212280F8392080F83810E1
:1010B0000068C16841F08001C160002070470120D4
:1010C00070470220704770470D4808B5416941F0EC
:1010D000010141614069002200F0010000901146C9
:1010E0001020FFF785FB1020FFF776FB002211464A
:1010F0001120FFF77DFBBDE808401120FFF76CBB16
:101100000010024030B5234885B0816941F01001DC
:101110008161816901F010010491816941F0200130
:101120008161816901F020010491816941F004012C
:101130008161816901F004010491816941F0080134
:1011400081618069144D00F0080004900022202184
:101150002846FFF7B3FA6814009010480024CDE940
:10116000010469460E48FFF7C7F9202000900120CE
:10117000CDE901040220039069462846FFF7BCF937
:10118000002211462820FFF733FB2820FFF724FB1D
:1011900005B030BD001002400008014000001110F1
:1011A000001001400D4810B50B4901604FF4E131CA
:1011B0004160002181600C22C160C0E9041281619C
:1011C000C161FFF77DFE002805D0BDE81040462133
:1011D00003A000F005BA10BD003801402C0000202B
:1011E0002E2E2F436F72652F5372632F75736172AA
:1011F000742E63000D4810B50B4901604FF4E131C6
:101200004160002181600C22C160C0E9041281614B
:10121000C161FFF755FE002805D0BDE810405921F7
:1012200003A000F0DDB910BD004400406C000020B8
:101230002E2E2F436F72652F5372632F7573617259
:10124000742E63000907090E002806DA00F00F006B
:1012500000F1E02080F8141D704700F1E02080F8D4
:1012600000147047002201E0521C92B2815C0029F8
:10127000FAD101460148FFF707BF00006C000020CB
:1012800010B5FFF727FABDE81040FFF78CBD30B569
:101290008FB00225012004900095102005900024B5
:1012A0004FF46010CDE9084007956846FFF7D8FB7A
:1012B00000B1FEE70F20CDE90A054FF48060CDE9CB
:1012C0000C4002210AA80E94FFF7C4FA00B1FEE711
:1012D000FFF76AFB4FF47A71B0FBF1F0FFF74FFDB7
:1012E0000420FFF73FFD00221146501EFFF780FA51
:1012F0000FB030BD0D48016841F001010160416847
:101300000B4A1140416001680A4A114001600168BE
:1013100021F480210160416821F4FE0141604FF415
:101320001F0181600449C00308607047001002403B
:101330000000FFF8FFFFF6FE08ED00E010B5406A80
:101340000021C185C184FFF732FD10BD0168CA6864
:1013500022F49072CA6001684A6922F001024A616F
:10136000202180F83A10704710B590F83A102229E1
:1013700001D0022010BD8168B1F5805F11D00169F4
:10138000002901681FD0496801F07F03816A4A1C67
:1013900082620B70C18D491E0904090CC18518D0E9
:1013A0002BE00269816A002A0268526805D0D2B235
:1013B0000A80816A491C8162ECE7C2F308020A8054
:1013C000816A891CF7E74A68816A4B1C83620A704C
:1013D000E0E70168CA6822F02002CA600168CA68B2
:1013E00022F48072CA6001684A6922F001024A61EF
:1013F000202180F83A10FFF746FE002010BD0000C3
:101400002DE9F041044600680169E26821F4405189
:10141000114301612169A06808436169084321689B
:10142000CA6841F20C639A430243CA60206841696A
:10143000A26921F44071114341614C49206864253F
:10144000322688423CD1FFF7C5FA00EBC00101EB20
:10145000001061688900B0FBF1F7FFF7BBFA00EB01
:10146000C00101EB00106168B0468900B0FBF1F0EB
:10147000B0FBF5F06FF01801484307EB800106EB75
:101480000110B0FBF5F000F0F006FFF7A3FA00EB57
:10149000C00101EB001061688900B0FBF1F0B0FB06
:1014A000F5F006EB0016FFF795FA00EBC00101EB33
:1014B000001061688900B0FBF1F7FFF78BFA3BE0A1
:1014C000FFF778FA00EBC00101EB001061688900BA
:1014D000B0FBF1F7FFF76EFA00EBC00101EB001073
:1014E0006168B0468900B0FBF1F0B0FBF5F06FF039
:1014F0001801484307EB800106EB0110B0FBF5F043
:1015000000F0F006FFF756FA00EBC00101EB001007
:1015100061688900B0FBF1F0B0FBF5F006EB001656
:10152000FFF748FA00EBC00101EB00106168890089
:10153000B0FBF1F7FFF73EFA00EBC00101EB001042
:1015400061688900B0FBF1F0B0FBF5F06FF01801B5
:10155000484307EB800108EB0110B0FBF5F0216870
:1015600000F00F0030448860BDE8F0810038014091
:1015700090F83910212901D0022070478168B1F517
:10158000805F016A0BD04A1C0262026809785160D0
:10159000C18C491E0904090CC1840ED017E00988CA
:1015A0000268C1F30801516001690029016A02D093
:1015B000491C0162ECE7891CFBE70168CA6822F05C
:1015C0008002CA600068C16841F04001C16000202B
:1015D000704700000148FFF7EBBB00006C000020E3
:1015E000FEE7000004494A68044842600260096856
:1015F00081F3088800680047008000080000002090
:10160000FFF770F8FFF743FEFFF77CFDFFF75CFD87
:10161000FFF7F0FDFFF7C6FD00F010F8064D0024BF
:1016200020212846FFF746F8C820FEF745FF641C36
:101630000A2CF5DBF3E70000000801400D4C0E4ECC
:10164000002564220B490D48FFF7F4FC01220949EB
:101650000A48FFF719FD2078532802D108A0FFF7A8
:1016600001FEB570B0782554401CC0B2B07064283B
:10167000F8D3E6E734010020080000206C000020C9
:1016800073000000000000000000000001020304DD
:10169000060708090000000001020304BC16000848
:1016A000000000202C00000028010008E8160008B7
:1016B0002C000020CC0700004401000800000000BE
:1016C0000000000000000000000000080000000012
:1016D00000000000000000000100000010000000F9
:0816E0000000000000A24A0412
:04000005080000ED02
:00000001FF
